{
  "_format": "hh3-artifact-1",
  "contractName": "EventFactory",
  "sourceName": "contracts/EventFactory.sol",
  "abi": [
    {
      "inputs": [
        {
          "internalType": "address",
          "name": "_ticketImplementation",
          "type": "address"
        }
      ],
      "stateMutability": "nonpayable",
      "type": "constructor"
    },
    {
      "inputs": [],
      "name": "FailedDeployment",
      "type": "error"
    },
    {
      "inputs": [
        {
          "internalType": "uint256",
          "name": "balance",
          "type": "uint256"
        },
        {
          "internalType": "uint256",
          "name": "needed",
          "type": "uint256"
        }
      ],
      "name": "InsufficientBalance",
      "type": "error"
    },
    {
      "anonymous": false,
      "inputs": [
        {
          "indexed": true,
          "internalType": "uint256",
          "name": "eventId",
          "type": "uint256"
        },
        {
          "indexed": true,
          "internalType": "string",
          "name": "eventName",
          "type": "string"
        },
        {
          "indexed": true,
          "internalType": "address",
          "name": "eventOrganizer",
          "type": "address"
        },
        {
          "indexed": false,
          "internalType": "uint256",
          "name": "date",
          "type": "uint256"
        },
        {
          "indexed": false,
          "internalType": "address",
          "name": "ticketContract",
          "type": "address"
        }
      ],
      "name": "EventCreated",
      "type": "event"
    },
    {
      "anonymous": false,
      "inputs": [
        {
          "indexed": true,
          "internalType": "uint256",
          "name": "eventId",
          "type": "uint256"
        },
        {
          "indexed": true,
          "internalType": "string",
          "name": "eventName",
          "type": "string"
        }
      ],
      "name": "EventUpdated",
      "type": "event"
    },
    {
      "inputs": [
        {
          "components": [
            {
              "internalType": "string",
              "name": "name",
              "type": "string"
            },
            {
              "internalType": "string",
              "name": "desc",
              "type": "string"
            },
            {
              "internalType": "string",
              "name": "imageURI",
              "type": "string"
            },
            {
              "internalType": "uint256",
              "name": "date",
              "type": "uint256"
            },
            {
              "internalType": "string",
              "name": "venue",
              "type": "string"
            },
            {
              "internalType": "uint256",
              "name": "maxParticipant",
              "type": "uint256"
            },
            {
              "internalType": "uint256",
              "name": "deadline",
              "type": "uint256"
            },
            {
              "components": [
                {
                  "internalType": "string",
                  "name": "name",
                  "type": "string"
                },
                {
                  "internalType": "uint256",
                  "name": "price",
                  "type": "uint256"
                },
                {
                  "internalType": "uint256",
                  "name": "maxSupply",
                  "type": "uint256"
                },
                {
                  "internalType": "uint256",
                  "name": "sold",
                  "type": "uint256"
                }
              ],
              "internalType": "struct TicketNFT.TicketTier[]",
              "name": "tiers",
              "type": "tuple[]"
            }
          ],
          "internalType": "struct EventFactory.CreateEventParams",
          "name": "params",
          "type": "tuple"
        }
      ],
      "name": "createEvent",
      "outputs": [
        {
          "internalType": "uint256",
          "name": "eventId",
          "type": "uint256"
        }
      ],
      "stateMutability": "nonpayable",
      "type": "function"
    },
    {
      "inputs": [
        {
          "internalType": "uint256",
          "name": "",
          "type": "uint256"
        }
      ],
      "name": "events",
      "outputs": [
        {
          "internalType": "uint256",
          "name": "id",
          "type": "uint256"
        },
        {
          "internalType": "string",
          "name": "name",
          "type": "string"
        },
        {
          "internalType": "string",
          "name": "desc",
          "type": "string"
        },
        {
          "internalType": "string",
          "name": "imageURI",
          "type": "string"
        },
        {
          "internalType": "uint256",
          "name": "date",
          "type": "uint256"
        },
        {
          "internalType": "string",
          "name": "venue",
          "type": "string"
        },
        {
          "internalType": "address",
          "name": "organizer",
          "type": "address"
        },
        {
          "internalType": "uint256",
          "name": "maxParticipant",
          "type": "uint256"
        },
        {
          "internalType": "uint256",
          "name": "deadline",
          "type": "uint256"
        },
        {
          "internalType": "uint256",
          "name": "totalRevenue",
          "type": "uint256"
        },
        {
          "internalType": "bool",
          "name": "active",
          "type": "bool"
        },
        {
          "internalType": "address",
          "name": "ticketContract",
          "type": "address"
        }
      ],
      "stateMutability": "view",
      "type": "function"
    },
    {
      "inputs": [],
      "name": "getActiveEvents",
      "outputs": [
        {
          "components": [
            {
              "internalType": "uint256",
              "name": "id",
              "type": "uint256"
            },
            {
              "internalType": "string",
              "name": "name",
              "type": "string"
            },
            {
              "internalType": "string",
              "name": "desc",
              "type": "string"
            },
            {
              "internalType": "string",
              "name": "imageURI",
              "type": "string"
            },
            {
              "internalType": "uint256",
              "name": "date",
              "type": "uint256"
            },
            {
              "internalType": "string",
              "name": "venue",
              "type": "string"
            },
            {
              "internalType": "address",
              "name": "organizer",
              "type": "address"
            },
            {
              "internalType": "uint256",
              "name": "maxParticipant",
              "type": "uint256"
            },
            {
              "internalType": "uint256",
              "name": "deadline",
              "type": "uint256"
            },
            {
              "internalType": "uint256",
              "name": "totalRevenue",
              "type": "uint256"
            },
            {
              "internalType": "bool",
              "name": "active",
              "type": "bool"
            },
            {
              "internalType": "address",
              "name": "ticketContract",
              "type": "address"
            }
          ],
          "internalType": "struct EventFactory.Event[]",
          "name": "",
          "type": "tuple[]"
        }
      ],
      "stateMutability": "view",
      "type": "function"
    },
    {
      "inputs": [],
      "name": "getAllEvents",
      "outputs": [
        {
          "components": [
            {
              "internalType": "uint256",
              "name": "id",
              "type": "uint256"
            },
            {
              "internalType": "string",
              "name": "name",
              "type": "string"
            },
            {
              "internalType": "string",
              "name": "desc",
              "type": "string"
            },
            {
              "internalType": "string",
              "name": "imageURI",
              "type": "string"
            },
            {
              "internalType": "uint256",
              "name": "date",
              "type": "uint256"
            },
            {
              "internalType": "string",
              "name": "venue",
              "type": "string"
            },
            {
              "internalType": "address",
              "name": "organizer",
              "type": "address"
            },
            {
              "internalType": "uint256",
              "name": "maxParticipant",
              "type": "uint256"
            },
            {
              "internalType": "uint256",
              "name": "deadline",
              "type": "uint256"
            },
            {
              "internalType": "uint256",
              "name": "totalRevenue",
              "type": "uint256"
            },
            {
              "internalType": "bool",
              "name": "active",
              "type": "bool"
            },
            {
              "internalType": "address",
              "name": "ticketContract",
              "type": "address"
            }
          ],
          "internalType": "struct EventFactory.Event[]",
          "name": "",
          "type": "tuple[]"
        }
      ],
      "stateMutability": "view",
      "type": "function"
    },
    {
      "inputs": [
        {
          "internalType": "uint256",
          "name": "_eventId",
          "type": "uint256"
        }
      ],
      "name": "getEvent",
      "outputs": [
        {
          "components": [
            {
              "internalType": "uint256",
              "name": "id",
              "type": "uint256"
            },
            {
              "internalType": "string",
              "name": "name",
              "type": "string"
            },
            {
              "internalType": "string",
              "name": "desc",
              "type": "string"
            },
            {
              "internalType": "string",
              "name": "imageURI",
              "type": "string"
            },
            {
              "internalType": "uint256",
              "name": "date",
              "type": "uint256"
            },
            {
              "internalType": "string",
              "name": "venue",
              "type": "string"
            },
            {
              "internalType": "address",
              "name": "organizer",
              "type": "address"
            },
            {
              "internalType": "uint256",
              "name": "maxParticipant",
              "type": "uint256"
            },
            {
              "internalType": "uint256",
              "name": "deadline",
              "type": "uint256"
            },
            {
              "internalType": "uint256",
              "name": "totalRevenue",
              "type": "uint256"
            },
            {
              "internalType": "bool",
              "name": "active",
              "type": "bool"
            },
            {
              "internalType": "address",
              "name": "ticketContract",
              "type": "address"
            }
          ],
          "internalType": "struct EventFactory.Event",
          "name": "",
          "type": "tuple"
        }
      ],
      "stateMutability": "view",
      "type": "function"
    },
    {
      "inputs": [
        {
          "internalType": "address",
          "name": "_organizer",
          "type": "address"
        }
      ],
      "name": "getEventsByOrganizer",
      "outputs": [
        {
          "components": [
            {
              "internalType": "uint256",
              "name": "id",
              "type": "uint256"
            },
            {
              "internalType": "string",
              "name": "name",
              "type": "string"
            },
            {
              "internalType": "string",
              "name": "desc",
              "type": "string"
            },
            {
              "internalType": "string",
              "name": "imageURI",
              "type": "string"
            },
            {
              "internalType": "uint256",
              "name": "date",
              "type": "uint256"
            },
            {
              "internalType": "string",
              "name": "venue",
              "type": "string"
            },
            {
              "internalType": "address",
              "name": "organizer",
              "type": "address"
            },
            {
              "internalType": "uint256",
              "name": "maxParticipant",
              "type": "uint256"
            },
            {
              "internalType": "uint256",
              "name": "deadline",
              "type": "uint256"
            },
            {
              "internalType": "uint256",
              "name": "totalRevenue",
              "type": "uint256"
            },
            {
              "internalType": "bool",
              "name": "active",
              "type": "bool"
            },
            {
              "internalType": "address",
              "name": "ticketContract",
              "type": "address"
            }
          ],
          "internalType": "struct EventFactory.Event[]",
          "name": "",
          "type": "tuple[]"
        }
      ],
      "stateMutability": "view",
      "type": "function"
    },
    {
      "inputs": [
        {
          "internalType": "address",
          "name": "_organizer",
          "type": "address"
        }
      ],
      "name": "getOrganizerEvent",
      "outputs": [
        {
          "internalType": "uint256[]",
          "name": "",
          "type": "uint256[]"
        }
      ],
      "stateMutability": "view",
      "type": "function"
    },
    {
      "inputs": [],
      "name": "getTotalEvent",
      "outputs": [
        {
          "internalType": "uint256",
          "name": "",
          "type": "uint256"
        }
      ],
      "stateMutability": "view",
      "type": "function"
    },
    {
      "inputs": [
        {
          "internalType": "uint256",
          "name": "_eventId",
          "type": "uint256"
        }
      ],
      "name": "isEventActive",
      "outputs": [
        {
          "internalType": "bool",
          "name": "",
          "type": "bool"
        }
      ],
      "stateMutability": "view",
      "type": "function"
    },
    {
      "inputs": [
        {
          "internalType": "address",
          "name": "",
          "type": "address"
        },
        {
          "internalType": "uint256",
          "name": "",
          "type": "uint256"
        }
      ],
      "name": "organizerEvents",
      "outputs": [
        {
          "internalType": "uint256",
          "name": "",
          "type": "uint256"
        }
      ],
      "stateMutability": "view",
      "type": "function"
    },
    {
      "inputs": [
        {
          "internalType": "uint256",
          "name": "_eventId",
          "type": "uint256"
        },
        {
          "internalType": "uint256",
          "name": "_amount",
          "type": "uint256"
        }
      ],
      "name": "recordRevenue",
      "outputs": [],
      "stateMutability": "nonpayable",
      "type": "function"
    },
    {
      "inputs": [
        {
          "internalType": "uint256",
          "name": "_eventId",
          "type": "uint256"
        },
        {
          "internalType": "address",
          "name": "_ticketContract",
          "type": "address"
        }
      ],
      "name": "setTicketContract",
      "outputs": [],
      "stateMutability": "nonpayable",
      "type": "function"
    },
    {
      "inputs": [],
      "name": "ticketImplementation",
      "outputs": [
        {
          "internalType": "address",
          "name": "",
          "type": "address"
        }
      ],
      "stateMutability": "view",
      "type": "function"
    },
    {
      "inputs": [
        {
          "internalType": "uint256",
          "name": "_eventId",
          "type": "uint256"
        },
        {
          "internalType": "string",
          "name": "_name",
          "type": "string"
        },
        {
          "internalType": "string",
          "name": "_desc",
          "type": "string"
        },
        {
          "internalType": "string",
          "name": "_imageURI",
          "type": "string"
        }
      ],
      "name": "updateEvent",
      "outputs": [],
      "stateMutability": "nonpayable",
      "type": "function"
    }
  ],
  "bytecode": "0x60a0604052348015600e575f5ffd5b50604051612c3e380380612c3e833981016040819052602b91603b565b6001600160a01b03166080526066565b5f60208284031215604a575f5ffd5b81516001600160a01b0381168114605f575f5ffd5b9392505050565b608051612bb96100855f395f81816101800152610dfd0152612bb95ff3fe608060405234801561000f575f5ffd5b50600436106100e5575f3560e01c80636d1884e011610088578063c32c2e0b11610063578063c32c2e0b146101fc578063dc4a440d1461021f578063e4aa47e314610232578063eb80df5614610245575f5ffd5b80636d1884e0146101c15780639f6271c3146101e1578063c27a500d146101f4575f5ffd5b80633612280f116100c35780633612280f146101455780633a120d8d1461015a5780633a72eeab1461017b5780635cb9c5f2146101ba575f5ffd5b806303f81607146100e95780630b791430146100fe5780631b833f0614610132575b5f5ffd5b6100fc6100f7366004612344565b610265565b005b61011161010c3660046123dc565b61042e565b6040516101299c9b9a99989796959493929190612421565b60405180910390f35b6100fc6101403660046124d4565b6106c1565b61014d6107ae565b60405161012991906125dd565b61016d610168366004612640565b610bf4565b604051908152602001610129565b6101a27f000000000000000000000000000000000000000000000000000000000000000081565b6040516001600160a01b039091168152602001610129565b5f5461016d565b6101d46101cf3660046123dc565b611278565b604051610129919061267f565b61014d6101ef3660046126ac565b611554565b61014d611934565b61020f61020a3660046123dc565b611c37565b6040519015158152602001610129565b6100fc61022d3660046126c5565b611f5b565b61016d6102403660046126ef565b6120ff565b6102586102533660046126ac565b61212a565b6040516101299190612717565b83336001600160a01b03165f828154811061028257610282612759565b5f91825260209091206006600b9092020101546001600160a01b0316146102c45760405162461bcd60e51b81526004016102bb9061276d565b60405180910390fd5b5f84511161030a5760405162461bcd60e51b8152602060048201526013602482015272496e76616c6964206e616d652075706461746560681b60448201526064016102bb565b600a83511161035b5760405162461bcd60e51b815260206004820152601a60248201527f496e76616c6964206465736372697074696f6e2075706461746500000000000060448201526064016102bb565b835f868154811061036e5761036e612759565b905f5260205f2090600b020160010190816103899190612833565b50825f868154811061039d5761039d612759565b905f5260205f2090600b020160020190816103b89190612833565b50815f86815481106103cc576103cc612759565b905f5260205f2090600b020160030190816103e79190612833565b50836040516103f691906128ee565b6040519081900381209086907f0c21d47f606573d65eedb6ee084e32d784cfcd5ce32240b22f19de37d6b40969905f90a35050505050565b5f818154811061043c575f80fd5b5f9182526020909120600b90910201805460018201805491935090610460906127b5565b80601f016020809104026020016040519081016040528092919081815260200182805461048c906127b5565b80156104d75780601f106104ae576101008083540402835291602001916104d7565b820191905f5260205f20905b8154815290600101906020018083116104ba57829003601f168201915b5050505050908060020180546104ec906127b5565b80601f0160208091040260200160405190810160405280929190818152602001828054610518906127b5565b80156105635780601f1061053a57610100808354040283529160200191610563565b820191905f5260205f20905b81548152906001019060200180831161054657829003601f168201915b505050505090806003018054610578906127b5565b80601f01602080910402602001604051908101604052809291908181526020018280546105a4906127b5565b80156105ef5780601f106105c6576101008083540402835291602001916105ef565b820191905f5260205f20905b8154815290600101906020018083116105d257829003601f168201915b50505050509080600401549080600501805461060a906127b5565b80601f0160208091040260200160405190810160405280929190818152602001828054610636906127b5565b80156106815780601f1061065857610100808354040283529160200191610681565b820191905f5260205f20905b81548152906001019060200180831161066457829003601f168201915b5050506006840154600785015460088601546009870154600a9097015495966001600160a01b03938416969295509093509160ff8216916101009004168c565b5f54829081106106e35760405162461bcd60e51b81526004016102bb90612904565b5f83815481106106f5576106f5612759565b5f9182526020909120600b90910201600a015461010090046001600160a01b031633146107745760405162461bcd60e51b815260206004820152602760248201527f4f6e6c79207469636b657420636f6e74726163742063616e207265636f726420604482015266726576656e756560c81b60648201526084016102bb565b815f848154811061078757610787612759565b905f5260205f2090600b02016009015f8282546107a49190612942565b9091555050505050565b60605f805b5f5481101561082b575f81815481106107ce576107ce612759565b5f9182526020909120600a600b90920201015460ff16801561081057505f81815481106107fd576107fd612759565b905f5260205f2090600b02016008015442105b15610823578161081f81612955565b9250505b6001016107b3565b505f8167ffffffffffffffff811115610846576108466122a5565b60405190808252806020026020018201604052801561087f57816020015b61086c612238565b8152602001906001900390816108645790505b5090505f805b5f54811015610beb575f81815481106108a0576108a0612759565b5f9182526020909120600a600b90920201015460ff1680156108e257505f81815481106108cf576108cf612759565b905f5260205f2090600b02016008015442105b15610be3575f81815481106108f9576108f9612759565b905f5260205f2090600b0201604051806101800160405290815f820154815260200160018201805461092a906127b5565b80601f0160208091040260200160405190810160405280929190818152602001828054610956906127b5565b80156109a15780601f10610978576101008083540402835291602001916109a1565b820191905f5260205f20905b81548152906001019060200180831161098457829003601f168201915b505050505081526020016002820180546109ba906127b5565b80601f01602080910402602001604051908101604052809291908181526020018280546109e6906127b5565b8015610a315780601f10610a0857610100808354040283529160200191610a31565b820191905f5260205f20905b815481529060010190602001808311610a1457829003601f168201915b50505050508152602001600382018054610a4a906127b5565b80601f0160208091040260200160405190810160405280929190818152602001828054610a76906127b5565b8015610ac15780601f10610a9857610100808354040283529160200191610ac1565b820191905f5260205f20905b815481529060010190602001808311610aa457829003601f168201915b5050505050815260200160048201548152602001600582018054610ae4906127b5565b80601f0160208091040260200160405190810160405280929190818152602001828054610b10906127b5565b8015610b5b5780601f10610b3257610100808354040283529160200191610b5b565b820191905f5260205f20905b815481529060010190602001808311610b3e57829003601f168201915b505050918352505060068201546001600160a01b039081166020830152600783015460408301526008830154606083015260098301546080830152600a9092015460ff8116151560a0830152610100900490911660c0909101528351849084908110610bc957610bc9612759565b60200260200101819052508180610bdf90612955565b9250505b600101610885565b50909392505050565b5f80610c00838061296d565b905011610c455760405162461bcd60e51b8152602060048201526013602482015272496e76616c6964204576656e74204e616d652160681b60448201526064016102bb565b600a610c54602084018461296d565b905011610cb65760405162461bcd60e51b815260206004820152602a60248201527f4576656e74204465736372697074696f6e206d757374206d6f7265207468616e6044820152692031302063686172732160b01b60648201526084016102bb565b6003610cc5608084018461296d565b905011610d0b5760405162461bcd60e51b8152602060048201526014602482015273496e76616c6964204576656e742056656e75652160601b60448201526064016102bb565b42826060013511610d545760405162461bcd60e51b8152602060048201526013602482015272496e76616c6964204576656e7420646174652160681b60448201526064016102bb565b5f8260a0013511610da75760405162461bcd60e51b815260206004820152601860248201527f496e76616c6964206d6178207061727469636970616e7421000000000000000060448201526064016102bb565b81606001358260c0013510610df75760405162461bcd60e51b8152602060048201526016602482015275496e76616c6964204576656e7420646561646c696e6560501b60448201526064016102bb565b5f610e217f0000000000000000000000000000000000000000000000000000000000000000612193565b60025490915081906001600160a01b0382169063667027109033903090610e48898061296d565b610e5560208c018c61296d565b610e6260808e018e61296d565b8e606001356040518b63ffffffff1660e01b8152600401610e8c9a999897969594939291906129df565b5f604051808303815f87803b158015610ea3575f5ffd5b505af1158015610eb5573d5f5f3e3d5ffd5b5050506001600160a01b0382169050635575027a610ed660e0870187612a52565b6040518363ffffffff1660e01b8152600401610ef3929190612a98565b5f604051808303815f87803b158015610f0a575f5ffd5b505af1158015610f1c573d5f5f3e3d5ffd5b505060408051610180810190915260025481525f9250905060208101610f42878061296d565b8080601f0160208091040260200160405190810160405280939291908181526020018383808284375f92019190915250505090825250602090810190610f8a9088018861296d565b8080601f0160208091040260200160405190810160405280939291908181526020018383808284375f92019190915250505090825250602001610fd0604088018861296d565b8080601f0160208091040260200160405190810160405280939291908181526020018383808284375f9201919091525050509082525060608701356020820152604001611020608088018861296d565b8080601f0160208091040260200160405190810160405280939291908181526020018383808284375f92018290525093855250503360208085019190915260a0808b0135604086015260c0808c013560608701526080860185905260019186018290526001600160a01b038a1695019490945282549384018355918052508251600b9092027f290decd9548b62a8d60345a988386fc84ba6bc95484008f6362f93160ef3e56381019283559083015192935083927f290decd9548b62a8d60345a988386fc84ba6bc95484008f6362f93160ef3e564909101906111039082612833565b50604082015160028201906111189082612833565b506060820151600382019061112d9082612833565b506080820151600482015560a0820151600582019061114c9082612833565b5060c08201516006820180546001600160a01b0319166001600160a01b0392831617905560e083015160078301556101008084015160088401556101208401516009840155610140840151600a9093018054610160909501516001600160a81b0319909516931515610100600160a81b031916939093179390911602919091179055335f818152600160208181526040832060025481549384018255908452922001556111f9868061296d565b604051611207929190612b74565b6040805191829003822060025460608a013584526001600160a01b0388166020850152909290917f90664dbc30d785e00b626f5a1c4416a8bec03bc3fc911a0b792282e0c5af3a21910160405180910390a460028054945084905f61126b83612955565b9190505550505050919050565b611280612238565b5f828154811061129257611292612759565b905f5260205f2090600b0201604051806101800160405290815f82015481526020016001820180546112c3906127b5565b80601f01602080910402602001604051908101604052809291908181526020018280546112ef906127b5565b801561133a5780601f106113115761010080835404028352916020019161133a565b820191905f5260205f20905b81548152906001019060200180831161131d57829003601f168201915b50505050508152602001600282018054611353906127b5565b80601f016020809104026020016040519081016040528092919081815260200182805461137f906127b5565b80156113ca5780601f106113a1576101008083540402835291602001916113ca565b820191905f5260205f20905b8154815290600101906020018083116113ad57829003601f168201915b505050505081526020016003820180546113e3906127b5565b80601f016020809104026020016040519081016040528092919081815260200182805461140f906127b5565b801561145a5780601f106114315761010080835404028352916020019161145a565b820191905f5260205f20905b81548152906001019060200180831161143d57829003601f168201915b505050505081526020016004820154815260200160058201805461147d906127b5565b80601f01602080910402602001604051908101604052809291908181526020018280546114a9906127b5565b80156114f45780601f106114cb576101008083540402835291602001916114f4565b820191905f5260205f20905b8154815290600101906020018083116114d757829003601f168201915b505050918352505060068201546001600160a01b039081166020830152600783015460408301526008830154606083015260098301546080830152600a9092015460ff8116151560a0830152610100900490911660c09091015292915050565b6001600160a01b0381165f9081526001602090815260408083208054825181850281018501909352808352606094938301828280156115b057602002820191905f5260205f20905b81548152602001906001019080831161159c575b505050505090505f815167ffffffffffffffff8111156115d2576115d26122a5565b60405190808252806020026020018201604052801561160b57816020015b6115f8612238565b8152602001906001900390816115f05790505b5090505f5b825181101561192c575f83828151811061162c5761162c612759565b602002602001015190505f818154811061164857611648612759565b905f5260205f2090600b0201604051806101800160405290815f8201548152602001600182018054611679906127b5565b80601f01602080910402602001604051908101604052809291908181526020018280546116a5906127b5565b80156116f05780601f106116c7576101008083540402835291602001916116f0565b820191905f5260205f20905b8154815290600101906020018083116116d357829003601f168201915b50505050508152602001600282018054611709906127b5565b80601f0160208091040260200160405190810160405280929190818152602001828054611735906127b5565b80156117805780601f1061175757610100808354040283529160200191611780565b820191905f5260205f20905b81548152906001019060200180831161176357829003601f168201915b50505050508152602001600382018054611799906127b5565b80601f01602080910402602001604051908101604052809291908181526020018280546117c5906127b5565b80156118105780601f106117e757610100808354040283529160200191611810565b820191905f5260205f20905b8154815290600101906020018083116117f357829003601f168201915b5050505050815260200160048201548152602001600582018054611833906127b5565b80601f016020809104026020016040519081016040528092919081815260200182805461185f906127b5565b80156118aa5780601f10611881576101008083540402835291602001916118aa565b820191905f5260205f20905b81548152906001019060200180831161188d57829003601f168201915b505050918352505060068201546001600160a01b039081166020830152600783015460408301526008830154606083015260098301546080830152600a9092015460ff8116151560a0830152610100900490911660c090910152835184908490811061191857611918612759565b602090810291909101015250600101611610565b509392505050565b60605f805480602002602001604051908101604052809291908181526020015f905b82821015611c2e578382905f5260205f2090600b0201604051806101800160405290815f8201548152602001600182018054611991906127b5565b80601f01602080910402602001604051908101604052809291908181526020018280546119bd906127b5565b8015611a085780601f106119df57610100808354040283529160200191611a08565b820191905f5260205f20905b8154815290600101906020018083116119eb57829003601f168201915b50505050508152602001600282018054611a21906127b5565b80601f0160208091040260200160405190810160405280929190818152602001828054611a4d906127b5565b8015611a985780601f10611a6f57610100808354040283529160200191611a98565b820191905f5260205f20905b815481529060010190602001808311611a7b57829003601f168201915b50505050508152602001600382018054611ab1906127b5565b80601f0160208091040260200160405190810160405280929190818152602001828054611add906127b5565b8015611b285780601f10611aff57610100808354040283529160200191611b28565b820191905f5260205f20905b815481529060010190602001808311611b0b57829003601f168201915b5050505050815260200160048201548152602001600582018054611b4b906127b5565b80601f0160208091040260200160405190810160405280929190818152602001828054611b77906127b5565b8015611bc25780601f10611b9957610100808354040283529160200191611bc2565b820191905f5260205f20905b815481529060010190602001808311611ba557829003601f168201915b505050918352505060068201546001600160a01b03908116602080840191909152600784015460408401526008840154606084015260098401546080840152600a9093015460ff8116151560a084015261010090041660c0909101529082526001929092019101611956565b50505050905090565b5f805482908110611c5a5760405162461bcd60e51b81526004016102bb90612904565b5f5f8481548110611c6d57611c6d612759565b905f5260205f2090600b0201604051806101800160405290815f8201548152602001600182018054611c9e906127b5565b80601f0160208091040260200160405190810160405280929190818152602001828054611cca906127b5565b8015611d155780601f10611cec57610100808354040283529160200191611d15565b820191905f5260205f20905b815481529060010190602001808311611cf857829003601f168201915b50505050508152602001600282018054611d2e906127b5565b80601f0160208091040260200160405190810160405280929190818152602001828054611d5a906127b5565b8015611da55780601f10611d7c57610100808354040283529160200191611da5565b820191905f5260205f20905b815481529060010190602001808311611d8857829003601f168201915b50505050508152602001600382018054611dbe906127b5565b80601f0160208091040260200160405190810160405280929190818152602001828054611dea906127b5565b8015611e355780601f10611e0c57610100808354040283529160200191611e35565b820191905f5260205f20905b815481529060010190602001808311611e1857829003601f168201915b5050505050815260200160048201548152602001600582018054611e58906127b5565b80601f0160208091040260200160405190810160405280929190818152602001828054611e84906127b5565b8015611ecf5780601f10611ea657610100808354040283529160200191611ecf565b820191905f5260205f20905b815481529060010190602001808311611eb257829003601f168201915b505050918352505060068201546001600160a01b039081166020830152600783015460408301526008830154606083015260098301546080830152600a9092015460ff8116151560a0830152610100900490911660c0909101526101408101519091508015611f42575080610100015142105b8015611f515750806080015142105b9250505b50919050565b5f5482908110611f7d5760405162461bcd60e51b81526004016102bb90612904565b82336001600160a01b03165f8281548110611f9a57611f9a612759565b5f91825260209091206006600b9092020101546001600160a01b031614611fd35760405162461bcd60e51b81526004016102bb9061276d565b6001600160a01b0383166120295760405162461bcd60e51b815260206004820152601860248201527f496e76616c696420636f6e74726163742061646472657373000000000000000060448201526064016102bb565b5f6001600160a01b03165f858154811061204557612045612759565b5f9182526020909120600b90910201600a015461010090046001600160a01b0316146120b35760405162461bcd60e51b815260206004820152601b60248201527f5469636b657420636f6e747261637420616c726561647920736574000000000060448201526064016102bb565b825f85815481106120c6576120c6612759565b905f5260205f2090600b0201600a0160016101000a8154816001600160a01b0302191690836001600160a01b0316021790555050505050565b6001602052815f5260405f208181548110612118575f80fd5b905f5260205f20015f91509150505481565b6001600160a01b0381165f9081526001602090815260409182902080548351818402810184019094528084526060939283018282801561218757602002820191905f5260205f20905b815481526020019060010190808311612173575b50505050509050919050565b5f61219e825f6121a4565b92915050565b5f814710156121cf5760405163cf47918160e01b8152476004820152602481018390526044016102bb565b763d602d80600a3d3981f3363d3d373d3d3d363d730000008360601b60e81c175f526e5af43d82803e903d91602b57fd5bf38360781b176020526037600983f090506001600160a01b03811661219e5760405163b06ebf3d60e01b815260040160405180910390fd5b6040518061018001604052805f81526020016060815260200160608152602001606081526020015f8152602001606081526020015f6001600160a01b031681526020015f81526020015f81526020015f81526020015f151581526020015f6001600160a01b031681525090565b634e487b7160e01b5f52604160045260245ffd5b5f82601f8301126122c8575f5ffd5b813567ffffffffffffffff8111156122e2576122e26122a5565b604051601f8201601f19908116603f0116810167ffffffffffffffff81118282101715612311576123116122a5565b604052818152838201602001851015612328575f5ffd5b816020850160208301375f918101602001919091529392505050565b5f5f5f5f60808587031215612357575f5ffd5b84359350602085013567ffffffffffffffff811115612374575f5ffd5b612380878288016122b9565b935050604085013567ffffffffffffffff81111561239c575f5ffd5b6123a8878288016122b9565b925050606085013567ffffffffffffffff8111156123c4575f5ffd5b6123d0878288016122b9565b91505092959194509250565b5f602082840312156123ec575f5ffd5b5035919050565b5f81518084528060208401602086015e5f602082860101526020601f19601f83011685010191505092915050565b8c815261018060208201525f61243b61018083018e6123f3565b828103604084015261244d818e6123f3565b90508281036060840152612461818d6123f3565b90508a608084015282810360a084015261247b818b6123f3565b6001600160a01b038a1660c085015260e084018990526101008401889052610120840187905285151561014085015291506124b39050565b6001600160a01b0383166101608301529d9c50505050505050505050505050565b5f5f604083850312156124e5575f5ffd5b50508035926020909101359150565b805182525f602082015161018060208501526125146101808501826123f3565b90506040830151848203604086015261252d82826123f3565b9150506060830151848203606086015261254782826123f3565b9150506080830151608085015260a083015184820360a086015261256b82826123f3565b91505060c083015161258860c08601826001600160a01b03169052565b5060e083015160e08501526101008301516101008501526101208301516101208501526101408301516125c061014086018215159052565b5061016083015161192c6101608601826001600160a01b03169052565b5f602082016020835280845180835260408501915060408160051b8601019250602086015f5b8281101561263457603f1987860301845261261f8583516124f4565b94506020938401939190910190600101612603565b50929695505050505050565b5f60208284031215612650575f5ffd5b813567ffffffffffffffff811115612666575f5ffd5b82016101008185031215612678575f5ffd5b9392505050565b602081525f61267860208301846124f4565b80356001600160a01b03811681146126a7575f5ffd5b919050565b5f602082840312156126bc575f5ffd5b61267882612691565b5f5f604083850312156126d6575f5ffd5b823591506126e660208401612691565b90509250929050565b5f5f60408385031215612700575f5ffd5b61270983612691565b946020939093013593505050565b602080825282518282018190525f918401906040840190835b8181101561274e578351835260209384019390920191600101612730565b509095945050505050565b634e487b7160e01b5f52603260045260245ffd5b60208082526028908201527f596f7520617265206e6f7420746865206f7267616e697a6572206f662074686960408201526773204576656e742160c01b606082015260800190565b600181811c908216806127c957607f821691505b602082108103611f5557634e487b7160e01b5f52602260045260245ffd5b601f82111561282e57805f5260205f20601f840160051c8101602085101561280c5750805b601f840160051c820191505b8181101561282b575f8155600101612818565b50505b505050565b815167ffffffffffffffff81111561284d5761284d6122a5565b6128618161285b84546127b5565b846127e7565b6020601f821160018114612893575f831561287c5750848201515b5f19600385901b1c1916600184901b17845561282b565b5f84815260208120601f198516915b828110156128c257878501518255602094850194600190920191016128a2565b50848210156128df57868401515f19600387901b60f8161c191681555b50505050600190811b01905550565b5f82518060208501845e5f920191825250919050565b60208082526010908201526f496e76616c6964206576656e7449442160801b604082015260600190565b634e487b7160e01b5f52601160045260245ffd5b8082018082111561219e5761219e61292e565b5f600182016129665761296661292e565b5060010190565b5f5f8335601e19843603018112612982575f5ffd5b83018035915067ffffffffffffffff82111561299c575f5ffd5b6020019150368190038213156129b0575f5ffd5b9250929050565b81835281816020850137505f828201602090810191909152601f909101601f19169091010190565b6001600160a01b038b811682528a1660208201526040810189905260e0606082018190525f90612a12908301898b6129b7565b8281036080840152612a2581888a6129b7565b905082810360a0840152612a3a8186886129b7565b9150508260c08301529b9a5050505050505050505050565b5f5f8335601e19843603018112612a67575f5ffd5b83018035915067ffffffffffffffff821115612a81575f5ffd5b6020019150600581901b36038213156129b0575f5ffd5b602080825281018290525f6040600584901b830181019083018583607e1936839003015b87821015612b6757868503603f190184528235818112612ada575f5ffd5b8901803536829003601e19018112612af0575f5ffd5b810160208101903567ffffffffffffffff811115612b0c575f5ffd5b803603821315612b1a575f5ffd5b60808852612b2c6080890182846129b7565b6020848101358a820152604080860135908b015260609485013594909901939093525090959485019493909301925060019190910190612abc565b5092979650505050505050565b818382375f910190815291905056fea2646970667358221220b4bafbc64b6403ceddbe8bf69eb80404797f1cc0ac86c5fc4e7d26a806a9e13964736f6c634300081c0033",
  "linkReferences": {},
  "deployedLinkReferences": {},
  "immutableReferences": {
    "7170": [
      {
        "length": 32,
        "start": 384
      },
      {
        "length": 32,
        "start": 3581
      }
    ]
  },
  "inputSourceName": "project/contracts/EventFactory.sol",
  "buildInfoId": "solc-0_8_28-e822a9ad9809ececce557d2a8543849e9d728825"
}