{
  "_format": "hh3-artifact-1",
  "contractName": "TicketNFT",
  "sourceName": "contracts/TicketNFT.sol",
  "abi": [
    {
      "inputs": [],
      "stateMutability": "nonpayable",
      "type": "constructor"
    },
    {
      "inputs": [],
      "name": "ERC721EnumerableForbiddenBatchMint",
      "type": "error"
    },
    {
      "inputs": [
        {
          "internalType": "address",
          "name": "sender",
          "type": "address"
        },
        {
          "internalType": "uint256",
          "name": "tokenId",
          "type": "uint256"
        },
        {
          "internalType": "address",
          "name": "owner",
          "type": "address"
        }
      ],
      "name": "ERC721IncorrectOwner",
      "type": "error"
    },
    {
      "inputs": [
        {
          "internalType": "address",
          "name": "operator",
          "type": "address"
        },
        {
          "internalType": "uint256",
          "name": "tokenId",
          "type": "uint256"
        }
      ],
      "name": "ERC721InsufficientApproval",
      "type": "error"
    },
    {
      "inputs": [
        {
          "internalType": "address",
          "name": "approver",
          "type": "address"
        }
      ],
      "name": "ERC721InvalidApprover",
      "type": "error"
    },
    {
      "inputs": [
        {
          "internalType": "address",
          "name": "operator",
          "type": "address"
        }
      ],
      "name": "ERC721InvalidOperator",
      "type": "error"
    },
    {
      "inputs": [
        {
          "internalType": "address",
          "name": "owner",
          "type": "address"
        }
      ],
      "name": "ERC721InvalidOwner",
      "type": "error"
    },
    {
      "inputs": [
        {
          "internalType": "address",
          "name": "receiver",
          "type": "address"
        }
      ],
      "name": "ERC721InvalidReceiver",
      "type": "error"
    },
    {
      "inputs": [
        {
          "internalType": "address",
          "name": "sender",
          "type": "address"
        }
      ],
      "name": "ERC721InvalidSender",
      "type": "error"
    },
    {
      "inputs": [
        {
          "internalType": "uint256",
          "name": "tokenId",
          "type": "uint256"
        }
      ],
      "name": "ERC721NonexistentToken",
      "type": "error"
    },
    {
      "inputs": [
        {
          "internalType": "address",
          "name": "owner",
          "type": "address"
        },
        {
          "internalType": "uint256",
          "name": "index",
          "type": "uint256"
        }
      ],
      "name": "ERC721OutOfBoundsIndex",
      "type": "error"
    },
    {
      "inputs": [
        {
          "internalType": "address",
          "name": "owner",
          "type": "address"
        }
      ],
      "name": "OwnableInvalidOwner",
      "type": "error"
    },
    {
      "inputs": [
        {
          "internalType": "address",
          "name": "account",
          "type": "address"
        }
      ],
      "name": "OwnableUnauthorizedAccount",
      "type": "error"
    },
    {
      "inputs": [],
      "name": "ReentrancyGuardReentrantCall",
      "type": "error"
    },
    {
      "anonymous": false,
      "inputs": [
        {
          "indexed": true,
          "internalType": "address",
          "name": "owner",
          "type": "address"
        },
        {
          "indexed": true,
          "internalType": "address",
          "name": "approved",
          "type": "address"
        },
        {
          "indexed": true,
          "internalType": "uint256",
          "name": "tokenId",
          "type": "uint256"
        }
      ],
      "name": "Approval",
      "type": "event"
    },
    {
      "anonymous": false,
      "inputs": [
        {
          "indexed": true,
          "internalType": "address",
          "name": "owner",
          "type": "address"
        },
        {
          "indexed": true,
          "internalType": "address",
          "name": "operator",
          "type": "address"
        },
        {
          "indexed": false,
          "internalType": "bool",
          "name": "approved",
          "type": "bool"
        }
      ],
      "name": "ApprovalForAll",
      "type": "event"
    },
    {
      "anonymous": false,
      "inputs": [
        {
          "indexed": true,
          "internalType": "address",
          "name": "oldFactory",
          "type": "address"
        },
        {
          "indexed": true,
          "internalType": "address",
          "name": "newFactory",
          "type": "address"
        }
      ],
      "name": "FactoryChanged",
      "type": "event"
    },
    {
      "anonymous": false,
      "inputs": [
        {
          "indexed": false,
          "internalType": "uint256",
          "name": "oldPeriod",
          "type": "uint256"
        },
        {
          "indexed": false,
          "internalType": "uint256",
          "name": "newPeriod",
          "type": "uint256"
        }
      ],
      "name": "LockPeriodChanged",
      "type": "event"
    },
    {
      "anonymous": false,
      "inputs": [
        {
          "indexed": true,
          "internalType": "address",
          "name": "previousOwner",
          "type": "address"
        },
        {
          "indexed": true,
          "internalType": "address",
          "name": "newOwner",
          "type": "address"
        }
      ],
      "name": "OwnershipTransferred",
      "type": "event"
    },
    {
      "anonymous": false,
      "inputs": [
        {
          "indexed": false,
          "internalType": "bool",
          "name": "active",
          "type": "bool"
        }
      ],
      "name": "SaleStatusChanged",
      "type": "event"
    },
    {
      "anonymous": false,
      "inputs": [
        {
          "indexed": true,
          "internalType": "uint256",
          "name": "tokenId",
          "type": "uint256"
        }
      ],
      "name": "TicketBurned",
      "type": "event"
    },
    {
      "anonymous": false,
      "inputs": [
        {
          "indexed": true,
          "internalType": "uint256",
          "name": "tokenId",
          "type": "uint256"
        },
        {
          "indexed": true,
          "internalType": "address",
          "name": "user",
          "type": "address"
        },
        {
          "indexed": false,
          "internalType": "uint256",
          "name": "timestamp",
          "type": "uint256"
        }
      ],
      "name": "TicketUsed",
      "type": "event"
    },
    {
      "anonymous": false,
      "inputs": [
        {
          "indexed": true,
          "internalType": "address",
          "name": "buyer",
          "type": "address"
        },
        {
          "indexed": false,
          "internalType": "uint256[]",
          "name": "tokenIds",
          "type": "uint256[]"
        },
        {
          "indexed": false,
          "internalType": "uint256",
          "name": "tierIndex",
          "type": "uint256"
        },
        {
          "indexed": false,
          "internalType": "uint256",
          "name": "quantity",
          "type": "uint256"
        }
      ],
      "name": "TicketsPurchased",
      "type": "event"
    },
    {
      "anonymous": false,
      "inputs": [
        {
          "indexed": true,
          "internalType": "address",
          "name": "from",
          "type": "address"
        },
        {
          "indexed": true,
          "internalType": "address",
          "name": "to",
          "type": "address"
        },
        {
          "indexed": true,
          "internalType": "uint256",
          "name": "tokenId",
          "type": "uint256"
        }
      ],
      "name": "Transfer",
      "type": "event"
    },
    {
      "anonymous": false,
      "inputs": [
        {
          "indexed": true,
          "internalType": "address",
          "name": "to",
          "type": "address"
        },
        {
          "indexed": false,
          "internalType": "uint256",
          "name": "amount",
          "type": "uint256"
        }
      ],
      "name": "Withdrawn",
      "type": "event"
    },
    {
      "inputs": [],
      "name": "LOCK_PERIOD_SECONDS",
      "outputs": [
        {
          "internalType": "uint256",
          "name": "",
          "type": "uint256"
        }
      ],
      "stateMutability": "view",
      "type": "function"
    },
    {
      "inputs": [],
      "name": "MAX_PER_WALLET",
      "outputs": [
        {
          "internalType": "uint256",
          "name": "",
          "type": "uint256"
        }
      ],
      "stateMutability": "view",
      "type": "function"
    },
    {
      "inputs": [
        {
          "components": [
            {
              "internalType": "string",
              "name": "name",
              "type": "string"
            },
            {
              "internalType": "uint256",
              "name": "price",
              "type": "uint256"
            },
            {
              "internalType": "uint256",
              "name": "maxSupply",
              "type": "uint256"
            },
            {
              "internalType": "uint256",
              "name": "sold",
              "type": "uint256"
            }
          ],
          "internalType": "struct TicketNFT.TicketTier[]",
          "name": "_tiers",
          "type": "tuple[]"
        }
      ],
      "name": "addTiers",
      "outputs": [],
      "stateMutability": "nonpayable",
      "type": "function"
    },
    {
      "inputs": [
        {
          "internalType": "address",
          "name": "to",
          "type": "address"
        },
        {
          "internalType": "uint256",
          "name": "tokenId",
          "type": "uint256"
        }
      ],
      "name": "approve",
      "outputs": [],
      "stateMutability": "nonpayable",
      "type": "function"
    },
    {
      "inputs": [
        {
          "internalType": "address",
          "name": "owner",
          "type": "address"
        }
      ],
      "name": "balanceOf",
      "outputs": [
        {
          "internalType": "uint256",
          "name": "",
          "type": "uint256"
        }
      ],
      "stateMutability": "view",
      "type": "function"
    },
    {
      "inputs": [
        {
          "internalType": "uint256",
          "name": "tokenId",
          "type": "uint256"
        }
      ],
      "name": "burn",
      "outputs": [],
      "stateMutability": "nonpayable",
      "type": "function"
    },
    {
      "inputs": [
        {
          "internalType": "uint256",
          "name": "tierIndex",
          "type": "uint256"
        },
        {
          "internalType": "uint256",
          "name": "quantity",
          "type": "uint256"
        }
      ],
      "name": "buyTicket",
      "outputs": [
        {
          "internalType": "uint256[]",
          "name": "",
          "type": "uint256[]"
        }
      ],
      "stateMutability": "payable",
      "type": "function"
    },
    {
      "inputs": [],
      "name": "endEvent",
      "outputs": [],
      "stateMutability": "nonpayable",
      "type": "function"
    },
    {
      "inputs": [],
      "name": "eventDate",
      "outputs": [
        {
          "internalType": "uint256",
          "name": "",
          "type": "uint256"
        }
      ],
      "stateMutability": "view",
      "type": "function"
    },
    {
      "inputs": [],
      "name": "eventEnded",
      "outputs": [
        {
          "internalType": "bool",
          "name": "",
          "type": "bool"
        }
      ],
      "stateMutability": "view",
      "type": "function"
    },
    {
      "inputs": [],
      "name": "eventId",
      "outputs": [
        {
          "internalType": "uint256",
          "name": "",
          "type": "uint256"
        }
      ],
      "stateMutability": "view",
      "type": "function"
    },
    {
      "inputs": [],
      "name": "eventInfo",
      "outputs": [
        {
          "internalType": "string",
          "name": "",
          "type": "string"
        }
      ],
      "stateMutability": "view",
      "type": "function"
    },
    {
      "inputs": [],
      "name": "eventTitle",
      "outputs": [
        {
          "internalType": "string",
          "name": "",
          "type": "string"
        }
      ],
      "stateMutability": "view",
      "type": "function"
    },
    {
      "inputs": [],
      "name": "eventVenue",
      "outputs": [
        {
          "internalType": "string",
          "name": "",
          "type": "string"
        }
      ],
      "stateMutability": "view",
      "type": "function"
    },
    {
      "inputs": [],
      "name": "factory",
      "outputs": [
        {
          "internalType": "address",
          "name": "",
          "type": "address"
        }
      ],
      "stateMutability": "view",
      "type": "function"
    },
    {
      "inputs": [],
      "name": "getAllTiers",
      "outputs": [
        {
          "components": [
            {
              "internalType": "string",
              "name": "name",
              "type": "string"
            },
            {
              "internalType": "uint256",
              "name": "price",
              "type": "uint256"
            },
            {
              "internalType": "uint256",
              "name": "maxSupply",
              "type": "uint256"
            },
            {
              "internalType": "uint256",
              "name": "sold",
              "type": "uint256"
            }
          ],
          "internalType": "struct TicketNFT.TicketTier[]",
          "name": "",
          "type": "tuple[]"
        }
      ],
      "stateMutability": "view",
      "type": "function"
    },
    {
      "inputs": [
        {
          "internalType": "uint256",
          "name": "tokenId",
          "type": "uint256"
        }
      ],
      "name": "getApproved",
      "outputs": [
        {
          "internalType": "address",
          "name": "",
          "type": "address"
        }
      ],
      "stateMutability": "view",
      "type": "function"
    },
    {
      "inputs": [
        {
          "internalType": "uint256",
          "name": "tierIndex",
          "type": "uint256"
        }
      ],
      "name": "getTier",
      "outputs": [
        {
          "components": [
            {
              "internalType": "string",
              "name": "name",
              "type": "string"
            },
            {
              "internalType": "uint256",
              "name": "price",
              "type": "uint256"
            },
            {
              "internalType": "uint256",
              "name": "maxSupply",
              "type": "uint256"
            },
            {
              "internalType": "uint256",
              "name": "sold",
              "type": "uint256"
            }
          ],
          "internalType": "struct TicketNFT.TicketTier",
          "name": "",
          "type": "tuple"
        }
      ],
      "stateMutability": "view",
      "type": "function"
    },
    {
      "inputs": [
        {
          "internalType": "address",
          "name": "_organizer",
          "type": "address"
        },
        {
          "internalType": "address",
          "name": "_factory",
          "type": "address"
        },
        {
          "internalType": "uint256",
          "name": "_eventId",
          "type": "uint256"
        },
        {
          "internalType": "string",
          "name": "_eventTitle",
          "type": "string"
        },
        {
          "internalType": "string",
          "name": "_eventInfo",
          "type": "string"
        },
        {
          "internalType": "string",
          "name": "_eventVenue",
          "type": "string"
        },
        {
          "internalType": "uint256",
          "name": "_eventDate",
          "type": "uint256"
        }
      ],
      "name": "initialize",
      "outputs": [],
      "stateMutability": "nonpayable",
      "type": "function"
    },
    {
      "inputs": [
        {
          "internalType": "address",
          "name": "owner",
          "type": "address"
        },
        {
          "internalType": "address",
          "name": "operator",
          "type": "address"
        }
      ],
      "name": "isApprovedForAll",
      "outputs": [
        {
          "internalType": "bool",
          "name": "",
          "type": "bool"
        }
      ],
      "stateMutability": "view",
      "type": "function"
    },
    {
      "inputs": [
        {
          "internalType": "uint256",
          "name": "tokenId",
          "type": "uint256"
        }
      ],
      "name": "isLocked",
      "outputs": [
        {
          "internalType": "bool",
          "name": "",
          "type": "bool"
        }
      ],
      "stateMutability": "view",
      "type": "function"
    },
    {
      "inputs": [
        {
          "internalType": "uint256",
          "name": "tokenId",
          "type": "uint256"
        }
      ],
      "name": "markAsUsed",
      "outputs": [],
      "stateMutability": "nonpayable",
      "type": "function"
    },
    {
      "inputs": [],
      "name": "maxSupply",
      "outputs": [
        {
          "internalType": "uint256",
          "name": "",
          "type": "uint256"
        }
      ],
      "stateMutability": "view",
      "type": "function"
    },
    {
      "inputs": [],
      "name": "name",
      "outputs": [
        {
          "internalType": "string",
          "name": "",
          "type": "string"
        }
      ],
      "stateMutability": "view",
      "type": "function"
    },
    {
      "inputs": [],
      "name": "owner",
      "outputs": [
        {
          "internalType": "address",
          "name": "",
          "type": "address"
        }
      ],
      "stateMutability": "view",
      "type": "function"
    },
    {
      "inputs": [
        {
          "internalType": "uint256",
          "name": "tokenId",
          "type": "uint256"
        }
      ],
      "name": "ownerOf",
      "outputs": [
        {
          "internalType": "address",
          "name": "",
          "type": "address"
        }
      ],
      "stateMutability": "view",
      "type": "function"
    },
    {
      "inputs": [
        {
          "internalType": "address",
          "name": "",
          "type": "address"
        }
      ],
      "name": "purchasedCount",
      "outputs": [
        {
          "internalType": "uint256",
          "name": "",
          "type": "uint256"
        }
      ],
      "stateMutability": "view",
      "type": "function"
    },
    {
      "inputs": [
        {
          "internalType": "uint256",
          "name": "tokenId",
          "type": "uint256"
        }
      ],
      "name": "remainingLockSeconds",
      "outputs": [
        {
          "internalType": "uint256",
          "name": "",
          "type": "uint256"
        }
      ],
      "stateMutability": "view",
      "type": "function"
    },
    {
      "inputs": [],
      "name": "renounceOwnership",
      "outputs": [],
      "stateMutability": "nonpayable",
      "type": "function"
    },
    {
      "inputs": [
        {
          "internalType": "address",
          "name": "from",
          "type": "address"
        },
        {
          "internalType": "address",
          "name": "to",
          "type": "address"
        },
        {
          "internalType": "uint256",
          "name": "tokenId",
          "type": "uint256"
        }
      ],
      "name": "safeTransferFrom",
      "outputs": [],
      "stateMutability": "nonpayable",
      "type": "function"
    },
    {
      "inputs": [
        {
          "internalType": "address",
          "name": "from",
          "type": "address"
        },
        {
          "internalType": "address",
          "name": "to",
          "type": "address"
        },
        {
          "internalType": "uint256",
          "name": "tokenId",
          "type": "uint256"
        },
        {
          "internalType": "bytes",
          "name": "data",
          "type": "bytes"
        }
      ],
      "name": "safeTransferFrom",
      "outputs": [],
      "stateMutability": "nonpayable",
      "type": "function"
    },
    {
      "inputs": [],
      "name": "saleActive",
      "outputs": [
        {
          "internalType": "bool",
          "name": "",
          "type": "bool"
        }
      ],
      "stateMutability": "view",
      "type": "function"
    },
    {
      "inputs": [
        {
          "internalType": "address",
          "name": "operator",
          "type": "address"
        },
        {
          "internalType": "bool",
          "name": "approved",
          "type": "bool"
        }
      ],
      "name": "setApprovalForAll",
      "outputs": [],
      "stateMutability": "nonpayable",
      "type": "function"
    },
    {
      "inputs": [
        {
          "internalType": "address",
          "name": "newFactory",
          "type": "address"
        }
      ],
      "name": "setFactory",
      "outputs": [],
      "stateMutability": "nonpayable",
      "type": "function"
    },
    {
      "inputs": [
        {
          "internalType": "uint256",
          "name": "tokenId",
          "type": "uint256"
        },
        {
          "internalType": "string",
          "name": "uri",
          "type": "string"
        }
      ],
      "name": "setTokenURI",
      "outputs": [],
      "stateMutability": "nonpayable",
      "type": "function"
    },
    {
      "inputs": [
        {
          "internalType": "uint256[]",
          "name": "tokenIds",
          "type": "uint256[]"
        },
        {
          "internalType": "string[]",
          "name": "uris",
          "type": "string[]"
        }
      ],
      "name": "setTokenURIBatch",
      "outputs": [],
      "stateMutability": "nonpayable",
      "type": "function"
    },
    {
      "inputs": [
        {
          "internalType": "bytes4",
          "name": "interfaceId",
          "type": "bytes4"
        }
      ],
      "name": "supportsInterface",
      "outputs": [
        {
          "internalType": "bool",
          "name": "",
          "type": "bool"
        }
      ],
      "stateMutability": "view",
      "type": "function"
    },
    {
      "inputs": [],
      "name": "symbol",
      "outputs": [
        {
          "internalType": "string",
          "name": "",
          "type": "string"
        }
      ],
      "stateMutability": "view",
      "type": "function"
    },
    {
      "inputs": [
        {
          "internalType": "uint256",
          "name": "",
          "type": "uint256"
        }
      ],
      "name": "tickets",
      "outputs": [
        {
          "internalType": "uint256",
          "name": "id",
          "type": "uint256"
        },
        {
          "internalType": "string",
          "name": "tier",
          "type": "string"
        },
        {
          "internalType": "uint256",
          "name": "originalPrice",
          "type": "uint256"
        },
        {
          "internalType": "bool",
          "name": "used",
          "type": "bool"
        },
        {
          "internalType": "uint256",
          "name": "purchaseTimestamp",
          "type": "uint256"
        }
      ],
      "stateMutability": "view",
      "type": "function"
    },
    {
      "inputs": [
        {
          "internalType": "uint256",
          "name": "",
          "type": "uint256"
        }
      ],
      "name": "tiers",
      "outputs": [
        {
          "internalType": "string",
          "name": "name",
          "type": "string"
        },
        {
          "internalType": "uint256",
          "name": "price",
          "type": "uint256"
        },
        {
          "internalType": "uint256",
          "name": "maxSupply",
          "type": "uint256"
        },
        {
          "internalType": "uint256",
          "name": "sold",
          "type": "uint256"
        }
      ],
      "stateMutability": "view",
      "type": "function"
    },
    {
      "inputs": [],
      "name": "tiersSet",
      "outputs": [
        {
          "internalType": "bool",
          "name": "",
          "type": "bool"
        }
      ],
      "stateMutability": "view",
      "type": "function"
    },
    {
      "inputs": [
        {
          "internalType": "uint256",
          "name": "index",
          "type": "uint256"
        }
      ],
      "name": "tokenByIndex",
      "outputs": [
        {
          "internalType": "uint256",
          "name": "",
          "type": "uint256"
        }
      ],
      "stateMutability": "view",
      "type": "function"
    },
    {
      "inputs": [
        {
          "internalType": "address",
          "name": "owner",
          "type": "address"
        },
        {
          "internalType": "uint256",
          "name": "index",
          "type": "uint256"
        }
      ],
      "name": "tokenOfOwnerByIndex",
      "outputs": [
        {
          "internalType": "uint256",
          "name": "",
          "type": "uint256"
        }
      ],
      "stateMutability": "view",
      "type": "function"
    },
    {
      "inputs": [
        {
          "internalType": "uint256",
          "name": "tokenId",
          "type": "uint256"
        }
      ],
      "name": "tokenURI",
      "outputs": [
        {
          "internalType": "string",
          "name": "",
          "type": "string"
        }
      ],
      "stateMutability": "view",
      "type": "function"
    },
    {
      "inputs": [
        {
          "internalType": "address",
          "name": "owner",
          "type": "address"
        }
      ],
      "name": "tokensOfOwner",
      "outputs": [
        {
          "internalType": "uint256[]",
          "name": "",
          "type": "uint256[]"
        }
      ],
      "stateMutability": "view",
      "type": "function"
    },
    {
      "inputs": [],
      "name": "totalSupply",
      "outputs": [
        {
          "internalType": "uint256",
          "name": "",
          "type": "uint256"
        }
      ],
      "stateMutability": "view",
      "type": "function"
    },
    {
      "inputs": [
        {
          "internalType": "address",
          "name": "from",
          "type": "address"
        },
        {
          "internalType": "address",
          "name": "to",
          "type": "address"
        },
        {
          "internalType": "uint256",
          "name": "tokenId",
          "type": "uint256"
        }
      ],
      "name": "transferFrom",
      "outputs": [],
      "stateMutability": "nonpayable",
      "type": "function"
    },
    {
      "inputs": [
        {
          "internalType": "address",
          "name": "newOwner",
          "type": "address"
        }
      ],
      "name": "transferOwnership",
      "outputs": [],
      "stateMutability": "nonpayable",
      "type": "function"
    },
    {
      "inputs": [
        {
          "internalType": "uint256",
          "name": "tokenId",
          "type": "uint256"
        }
      ],
      "name": "verifyTicket",
      "outputs": [
        {
          "internalType": "bool",
          "name": "isValid",
          "type": "bool"
        },
        {
          "internalType": "address",
          "name": "currentOwner",
          "type": "address"
        },
        {
          "internalType": "string",
          "name": "tier",
          "type": "string"
        },
        {
          "internalType": "bool",
          "name": "used",
          "type": "bool"
        },
        {
          "internalType": "string",
          "name": "reason",
          "type": "string"
        }
      ],
      "stateMutability": "view",
      "type": "function"
    },
    {
      "inputs": [],
      "name": "withdraw",
      "outputs": [],
      "stateMutability": "nonpayable",
      "type": "function"
    },
    {
      "inputs": [
        {
          "internalType": "address payable",
          "name": "recipient",
          "type": "address"
        }
      ],
      "name": "withdrawTo",
      "outputs": [],
      "stateMutability": "nonpayable",
      "type": "function"
    }
  ],
  "bytecode": "0x60806040526011805460ff191690556018805461ffff19166001179055348015610027575f5ffd5b50336040518060400160405280600c81526020016b1391951a5e08151a58dad95d60a21b8152506040518060400160405280600581526020016409c8ca892b60db1b815250815f908161007a91906101b4565b50600161008782826101b4565b5050506001600160a01b0381166100b757604051631e4fbdf760e01b81525f600482015260240160405180910390fd5b6100c0816100cb565b506001600b5561026e565b600a80546001600160a01b038381166001600160a01b0319831681179093556040519116919082907f8be0079c531659141344cd1fd0a4f28419497f9722a3daafe3b4186f6b6457e0905f90a35050565b634e487b7160e01b5f52604160045260245ffd5b600181811c9082168061014457607f821691505b60208210810361016257634e487b7160e01b5f52602260045260245ffd5b50919050565b601f8211156101af57805f5260205f20601f840160051c8101602085101561018d5750805b601f840160051c820191505b818110156101ac575f8155600101610199565b50505b505050565b81516001600160401b038111156101cd576101cd61011c565b6101e1816101db8454610130565b84610168565b6020601f821160018114610213575f83156101fc5750848201515b5f19600385901b1c1916600184901b1784556101ac565b5f84815260208120601f198516915b828110156102425787850151825560209485019460019092019101610222565b508482101561025f57868401515f19600387901b60f8161c191681555b50505050600190811b01905550565b613bfb8061027b5f395ff3fe6080604052600436106102d9575f3560e01c80636352211e11610189578063a22cb465116100d8578063c9bb9a4a11610092578063e985e9c51161006d578063e985e9c514610882578063f2fde38b146108a1578063f57e63e2146108c0578063f6aacfb1146108de575f5ffd5b8063c9bb9a4a14610841578063d5abeb011461085a578063e22bda351461086e575f5ffd5b8063a22cb46514610786578063b1b410f5146107a5578063b88d4fde146107b9578063ba2a0655146107d8578063c45a015514610803578063c87b56dd14610822575f5ffd5b806372b0d90c1161014357806386ec61771161011e57806386ec61771461072b5780638bf322c51461073f5780638da5cb5b1461075557806395d89b4114610772575f5ffd5b806372b0d90c146106d95780638462151c146106f8578063860954a214610717575f5ffd5b80636352211e1461062e5780636471af831461064d578063667027101461066e57806368428a1b1461068d57806370a08231146106a6578063715018a6146106c5575f5ffd5b80633ccfd60b116102455780634f6ccce7116101ff5780635575027a116101da5780635575027a146105b25780635bb47808146105d15780635da6a041146105f05780635f527fd41461060f575f5ffd5b80634f6ccce71461053357806350b4471214610552578063543cb81f14610582575f5ffd5b80633ccfd60b1461048157806342842e0e1461049557806342966c68146104b45780634bb99351146104d35780634bfbe5df146104f25780634f062c5a14610507575f5ffd5b80630f2cdd6c116102965780630f2cdd6c146103dc578063162094c4146103f057806318160ddd1461040f57806323b872dd14610423578063298ec208146104425780632f745c5914610462575f5ffd5b806301ffc9a7146102dd578063039af9eb1461031157806306fdde0314610340578063081812fc14610361578063089cdd0c14610398578063095ea7b3146103bb575b5f5ffd5b3480156102e8575f5ffd5b506102fc6102f7366004613072565b6108fd565b60405190151581526020015b60405180910390f35b34801561031c575f5ffd5b5061033061032b366004613094565b610927565b60405161030894939291906130d9565b34801561034b575f5ffd5b506103546109e8565b6040516103089190613107565b34801561036c575f5ffd5b5061038061037b366004613094565b610a77565b6040516001600160a01b039091168152602001610308565b3480156103a3575f5ffd5b506103ad600d5481565b604051908152602001610308565b3480156103c6575f5ffd5b506103da6103d536600461313d565b610a9e565b005b3480156103e7575f5ffd5b506103ad600381565b3480156103fb575f5ffd5b506103da61040a366004613167565b610aad565b34801561041a575f5ffd5b50600c546103ad565b34801561042e575f5ffd5b506103da61043d3660046131dc565b610b2b565b61045561045036600461321a565b610bae565b6040516103089190613274565b34801561046d575f5ffd5b506103ad61047c36600461313d565b6110ec565b34801561048c575f5ffd5b506103da61114f565b3480156104a0575f5ffd5b506103da6104af3660046131dc565b611296565b3480156104bf575f5ffd5b506103da6104ce366004613094565b6112b5565b3480156104de575f5ffd5b506103da6104ed3660046132cd565b611375565b3480156104fd575f5ffd5b506103ad600f5481565b348015610512575f5ffd5b50610526610521366004613094565b611432565b6040516103089190613375565b34801561053e575f5ffd5b506103ad61054d366004613094565b611578565b34801561055d575f5ffd5b5061057161056c366004613094565b6115cd565b604051610308959493929190613387565b34801561058d575f5ffd5b506105a161059c366004613094565b611687565b6040516103089594939291906133bc565b3480156105bd575f5ffd5b506103da6105cc3660046134ef565b61196f565b3480156105dc575f5ffd5b506103da6105eb366004613614565b611aa8565b3480156105fb575f5ffd5b506103da61060a366004613094565b611b57565b34801561061a575f5ffd5b506103ad610629366004613094565b611c88565b348015610639575f5ffd5b50610380610648366004613094565b611ce6565b348015610658575f5ffd5b50610661611cf0565b604051610308919061362f565b348015610679575f5ffd5b506103da610688366004613692565b611df9565b348015610698575f5ffd5b506018546102fc9060ff1681565b3480156106b1575f5ffd5b506103ad6106c0366004613614565b611ec3565b3480156106d0575f5ffd5b506103da611f08565b3480156106e4575f5ffd5b506103da6106f3366004613614565b611f19565b348015610703575f5ffd5b50610455610712366004613614565b61208d565b348015610722575f5ffd5b506103546121b7565b348015610736575f5ffd5b506103da612243565b34801561074a575f5ffd5b506103ad6202a30081565b348015610760575f5ffd5b50600a546001600160a01b0316610380565b34801561077d575f5ffd5b5061035461225c565b348015610791575f5ffd5b506103da6107a0366004613755565b61226b565b3480156107b0575f5ffd5b50610354612276565b3480156107c4575f5ffd5b506103da6107d3366004613790565b612283565b3480156107e3575f5ffd5b506103ad6107f2366004613614565b60136020525f908152604090205481565b34801561080e575f5ffd5b50600e54610380906001600160a01b031681565b34801561082d575f5ffd5b5061035461083c366004613094565b61229b565b34801561084c575f5ffd5b506011546102fc9060ff1681565b348015610865575f5ffd5b506103ad61237c565b348015610879575f5ffd5b506103546123c8565b34801561088d575f5ffd5b506102fc61089c36600461380a565b6123d5565b3480156108ac575f5ffd5b506103da6108bb366004613614565b612402565b3480156108cb575f5ffd5b506018546102fc90610100900460ff1681565b3480156108e9575f5ffd5b506102fc6108f8366004613094565b61243c565b5f6001600160e01b0319821663780e9d6360e01b148061092157506109218261247e565b92915050565b60108181548110610936575f80fd5b905f5260205f2090600402015f91509050805f01805461095590613836565b80601f016020809104026020016040519081016040528092919081815260200182805461098190613836565b80156109cc5780601f106109a3576101008083540402835291602001916109cc565b820191905f5260205f20905b8154815290600101906020018083116109af57829003601f168201915b5050505050908060010154908060020154908060030154905084565b60605f80546109f690613836565b80601f0160208091040260200160405190810160405280929190818152602001828054610a2290613836565b8015610a6d5780601f10610a4457610100808354040283529160200191610a6d565b820191905f5260205f20905b815481529060010190602001808311610a5057829003601f168201915b5050505050905090565b5f610a81826124cd565b505f828152600460205260409020546001600160a01b0316610921565b610aa9828233612505565b5050565b610ab683611ce6565b6001600160a01b0316336001600160a01b031614610b0d5760405162461bcd60e51b815260206004820152600f60248201526e4e6f7420417574686f72697a65642160881b60448201526064015b60405180910390fd5b5f838152601460205260409020610b258284836138ac565b50505050565b6001600160a01b038216610b5457604051633250574960e11b81525f6004820152602401610b04565b5f610b60838333612512565b9050836001600160a01b0316816001600160a01b031614610b25576040516364283d7b60e01b81526001600160a01b0380861660048301526024820184905282166044820152606401610b04565b6060610bb861259f565b60185460ff16610bfd5760405162461bcd60e51b815260206004820152601060248201526f73616c65206e6f74206163746976652160801b6044820152606401610b04565b60115460ff16610c5a5760405162461bcd60e51b815260206004820152602260248201527f5469636b65747320617265206e6f7420726561647920666f722073616c652079604482015261195d60f21b6064820152608401610b04565b335f90815260136020526040902054600390610c77908490613979565b1115610cd85760405162461bcd60e51b815260206004820152602a60248201527f457863656564207469636b657420627579206c696d6974207065722077616c6c604482015269657420286d617820332960b01b6064820152608401610b04565b6010548310610d185760405162461bcd60e51b815260206004820152600c60248201526b24b73b30b634b2103a34b2b960a11b6044820152606401610b04565b600f544210610d585760405162461bcd60e51b815260206004820152600c60248201526b115d995b9d0818db1bdcd95960a21b6044820152606401610b04565b5f60108481548110610d6c57610d6c61398c565b905f5260205f20906004020190508060020154838260030154610d8f9190613979565b1115610dcd5760405162461bcd60e51b815260206004820152600d60248201526c151a595c881cdbdb19081bdd5d609a1b6044820152606401610b04565b5f838260010154610dde91906139a0565b905080341015610e305760405162461bcd60e51b815260206004820152601b60248201527f496e73756666696369656e74207061796d656e7420616d6f756e7400000000006044820152606401610b04565b5f846001600160401b03811115610e4957610e4961340d565b604051908082528060200260200182016040528015610e72578160200160208202803683370190505b5090505f5b85811015610fdc57600c80545f9182610e8f836139b7565b919050559050610e9f33826125c9565b6040518060a00160405280828152602001865f018054610ebe90613836565b80601f0160208091040260200160405190810160405280929190818152602001828054610eea90613836565b8015610f355780601f10610f0c57610100808354040283529160200191610f35565b820191905f5260205f20905b815481529060010190602001808311610f1857829003601f168201915b50505050508152602001866001015481526020015f151581526020014281525060125f8381526020019081526020015f205f820151815f01556020820151816001019081610f8391906139cf565b5060408201516002820155606082015160038201805460ff191691151591909117905560809091015160049091015582518190849084908110610fc857610fc861398c565b602090810291909101015250600101610e77565b50335f90815260136020526040902080548601905560038301805486019055611004826125e2565b81341115611099575f336110188434613a89565b6040515f81818185875af1925050503d805f8114611051576040519150601f19603f3d011682016040523d82523d5f602084013e611056565b606091505b50509050806110975760405162461bcd60e51b815260206004820152600d60248201526c1499599d5b990819985a5b1959609a1b6044820152606401610b04565b505b336001600160a01b03167f2f1567a5cdd8f268028f0754bf885e128d2009dbed8c95bae5fe3155043467968288886040516110d693929190613a9c565b60405180910390a2925050506109216001600b55565b5f6110f683611ec3565b82106111275760405163295f44f760e21b81526001600160a01b038416600482015260248101839052604401610b04565b506001600160a01b03919091165f908152600660209081526040808320938352929052205490565b6111576126ca565b61115f61259f565b47806111985760405162461bcd60e51b81526020600482015260086024820152674e6f2066756e647360c01b6044820152606401610b04565b5f6111ab600a546001600160a01b031690565b6001600160a01b0316826040515f6040518083038185875af1925050503d805f81146111f2576040519150601f19603f3d011682016040523d82523d5f602084013e6111f7565b606091505b505090508061123a5760405162461bcd60e51b815260206004820152600f60248201526e151c985b9cd9995c8819985a5b1959608a1b6044820152606401610b04565b600a546001600160a01b03166001600160a01b03167f7084f5476618d8e60b11ef0d7d3f06914655adb8793e28ff7f018d4c76d505d58360405161128091815260200190565b60405180910390a250506112946001600b55565b565b6112b083838360405180602001604052805f815250612283565b505050565b6112bd6126ca565b5f6112c782611ce6565b90506112d2826126f7565b6001600160a01b0381165f908152601360205260409020541561130e576001600160a01b0381165f90815260136020526040902080545f190190555b5f8281526012602052604081208181559061132c6001830182613013565b505f6002820181905560038201805460ff19169055600490910181905560405183917fd6acdc6c4f4076335309cf5eeb3b91b03b26861765e0726fce70f4617de8c7c691a25050565b61137d6126ca565b8281146113be5760405162461bcd60e51b815260206004820152600f60248201526e098cadccee8d040dad2e6dac2e8c6d608b1b6044820152606401610b04565b5f5b8381101561142b578282828181106113da576113da61398c565b90506020028101906113ec9190613ac0565b60145f8888868181106114015761140161398c565b9050602002013581526020019081526020015f2091826114229291906138ac565b506001016113c0565b5050505050565b61145a6040518060800160405280606081526020015f81526020015f81526020015f81525090565b601054821061149a5760405162461bcd60e51b815260206004820152600c60248201526b24b73b30b634b2103a34b2b960a11b6044820152606401610b04565b601082815481106114ad576114ad61398c565b905f5260205f2090600402016040518060800160405290815f820180546114d390613836565b80601f01602080910402602001604051908101604052809291908181526020018280546114ff90613836565b801561154a5780601f106115215761010080835404028352916020019161154a565b820191905f5260205f20905b81548152906001019060200180831161152d57829003601f168201915b5050505050815260200160018201548152602001600282015481526020016003820154815250509050919050565b5f611582600c5490565b82106115aa5760405163295f44f760e21b81525f600482015260248101839052604401610b04565b600882815481106115bd576115bd61398c565b905f5260205f2001549050919050565b60126020525f9081526040902080546001820180549192916115ee90613836565b80601f016020809104026020016040519081016040528092919081815260200182805461161a90613836565b80156116655780601f1061163c57610100808354040283529160200191611665565b820191905f5260205f20905b81548152906001019060200180831161164857829003601f168201915b50505050600283015460038401546004909401549293909260ff909116915085565b5f5f60605f6060306001600160a01b0316636352211e876040518263ffffffff1660e01b81526004016116bc91815260200190565b602060405180830381865afa9250505080156116f5575060408051601f3d908101601f191682019092526116f291810190613b02565b60015b611748575f5f5f60405180602001604052805f8152509060405180604001604052806014815260200173151bdad95b88191bd95cc81b9bdd08195e1a5cdd60621b81525094509450945094509450611966565b8094505f60125f8981526020019081526020015f206040518060a00160405290815f820154815260200160018201805461178190613836565b80601f01602080910402602001604051908101604052809291908181526020018280546117ad90613836565b80156117f85780601f106117cf576101008083540402835291602001916117f8565b820191905f5260205f20905b8154815290600101906020018083116117db57829003601f168201915b505050918352505060028201546020820152600382015460ff16151560408201526004909101546060918201528101519091501561186f575f86826020015160016040518060400160405280600c81526020016b105b1c9958591e481d5cd95960a21b815250965096509650965096505050611966565b62015180600f546118809190613a89565b4210156118d6575f8682602001515f6040518060400160405280601981526020017f546f6f206561726c79202d206e6f74206576656e742064617900000000000000815250965096509650965096505050611966565b600f546118e6906202a300613979565b421115611932575f8682602001515f60405180604001604052806013815260200172115d995b9d08185b1c9958591e48195b991959606a1b815250965096509650965096505050611966565b60018682602001515f6040518060400160405280600581526020016415985b1a5960da1b8152509650965096509650965050505b91939590929450565b600e546001600160a01b031633146119c95760405162461bcd60e51b815260206004820152601a60248201527f4f6e6c7920666163746f72792063616e2063616c6c20746869730000000000006044820152606401610b04565b60115460ff1615611a1c5760405162461bcd60e51b815260206004820152601b60248201527f5469657273206861766520616c7265616479206265656e2073657400000000006044820152606401610b04565b5f5b8151811015611a97576010828281518110611a3b57611a3b61398c565b60209081029190910181015182546001810184555f938452919092208251600490920201908190611a6c90826139cf565b5060208201516001808301919091556040830151600283015560609092015160039091015501611a1e565b50506011805460ff19166001179055565b611ab06126ca565b6001600160a01b038116611b065760405162461bcd60e51b815260206004820152601860248201527f496e76616c696420666163746f727920616464726573732100000000000000006044820152606401610b04565b600e80546001600160a01b038381166001600160a01b0319831681179093556040519116919082907ff36cf3b7f3187ed5217f19ea5137ed68a98983b4d678c78eb886fc378d2c13cf905f90a35050565b611b5f6126ca565b5f818152601260205260409020600381015460ff1615611bb75760405162461bcd60e51b8152602060048201526013602482015272151a58dad95d08185b1c9958591e481d5cd959606a1b6044820152606401610b04565b5f600f5461a8c0611bc89190613979565b9050600f544210158015611bdc5750804211155b611c285760405162461bcd60e51b815260206004820152601d60248201527f436865636b2d696e2077696e646f77206973206e6f74206163746976650000006044820152606401610b04565b60038201805460ff19166001179055611c4083611ce6565b6001600160a01b0316837f4f9c6210874b14266ea0f64418a0f7403a875226eae9483f5d9cd7663234db9a42604051611c7b91815260200190565b60405180910390a3505050565b5f611c92826124cd565b505f8281526012602052604081206004015490819003611cb457505f92915050565b5f611cc26202a30083613979565b9050804210611cd457505f9392505050565b611cde4282613a89565b949350505050565b5f610921826124cd565b60606010805480602002602001604051908101604052809291908181526020015f905b82821015611df0578382905f5260205f2090600402016040518060800160405290815f82018054611d4390613836565b80601f0160208091040260200160405190810160405280929190818152602001828054611d6f90613836565b8015611dba5780601f10611d9157610100808354040283529160200191611dba565b820191905f5260205f20905b815481529060010190602001808311611d9d57829003601f168201915b50505050508152602001600182015481526020016002820154815260200160038201548152505081526020019060010190611d13565b50505050905090565b5f611e0c600a546001600160a01b031690565b6001600160a01b031614611e585760405162461bcd60e51b8152602060048201526013602482015272105b1c9958591e481a5b9a5d1a585b1a5e9959606a1b6044820152606401610b04565b611e618761272f565b600e80546001600160a01b0319166001600160a01b038816179055600d8590556015611e8d85826139cf565b506017611e9a83826139cf565b50600f8190556016611eac84826139cf565b50506018805460ff19166001179055505050505050565b5f6001600160a01b038216611eed576040516322718ad960e21b81525f6004820152602401610b04565b506001600160a01b03165f9081526003602052604090205490565b611f106126ca565b6112945f61272f565b611f216126ca565b611f2961259f565b6001600160a01b038116611f715760405162461bcd60e51b815260206004820152600f60248201526e496e76616c6964206164647265737360881b6044820152606401610b04565b4780611faa5760405162461bcd60e51b81526020600482015260086024820152674e6f2066756e647360c01b6044820152606401610b04565b5f826001600160a01b0316826040515f6040518083038185875af1925050503d805f8114611ff3576040519150601f19603f3d011682016040523d82523d5f602084013e611ff8565b606091505b505090508061203b5760405162461bcd60e51b815260206004820152600f60248201526e151c985b9cd9995c8819985a5b1959608a1b6044820152606401610b04565b826001600160a01b03167f7084f5476618d8e60b11ef0d7d3f06914655adb8793e28ff7f018d4c76d505d58360405161207691815260200190565b60405180910390a2505061208a6001600b55565b50565b60605f61209983611ec3565b90505f816001600160401b038111156120b4576120b461340d565b6040519080825280602002602001820160405280156120dd578160200160208202803683370190505b5090505f805b600c54811080156120f357508382105b156121ad576040516331a9108f60e11b8152600481018290523090636352211e90602401602060405180830381865afa925050508015612150575060408051601f3d908101601f1916820190925261214d91810190613b02565b60015b1561219b57866001600160a01b0316816001600160a01b0316036121995781848461217a816139b7565b95508151811061218c5761218c61398c565b6020026020010181815250505b505b806121a5816139b7565b9150506120e3565b5090949350505050565b601580546121c490613836565b80601f01602080910402602001604051908101604052809291908181526020018280546121f090613836565b801561223b5780601f106122125761010080835404028352916020019161223b565b820191905f5260205f20905b81548152906001019060200180831161221e57829003601f168201915b505050505081565b61224b6126ca565b6018805461ff001916610100179055565b6060600180546109f690613836565b610aa9338383612780565b601680546121c490613836565b61228e848484610b2b565b610b253385858585612816565b60606122a6826124cd565b505f82815260146020526040812080546122bf90613836565b80601f01602080910402602001604051908101604052809291908181526020018280546122eb90613836565b80156123365780601f1061230d57610100808354040283529160200191612336565b820191905f5260205f20905b81548152906001019060200180831161231957829003601f168201915b505050505090505f8151111561234c5792915050565b6123558361293d565b6040516020016123659190613b34565b604051602081830303815290604052915050919050565b5f80805b6010548110156123c2576010818154811061239d5761239d61398c565b905f5260205f20906004020160020154826123b89190613979565b9150600101612380565b50919050565b601780546121c490613836565b6001600160a01b039182165f90815260056020908152604080832093909416825291909152205460ff1690565b61240a6126ca565b6001600160a01b03811661243357604051631e4fbdf760e01b81525f6004820152602401610b04565b61208a8161272f565b5f612446826124cd565b505f828152601260205260408120600401549081900361246857505f92915050565b6124756202a30082613979565b42109392505050565b5f6001600160e01b031982166380ac58cd60e01b14806124ae57506001600160e01b03198216635b5e139f60e01b145b8061092157506301ffc9a760e01b6001600160e01b0319831614610921565b5f818152600260205260408120546001600160a01b03168061092157604051637e27328960e01b815260048101849052602401610b04565b6112b083838360016129cc565b5f828152600260205260408120546001600160a01b0316801580159061254057506001600160a01b03851615155b1561258b5761254e8461243c565b1561258b5760405162461bcd60e51b815260206004820152600d60248201526c546f6b656e206c6f636b65642160981b6044820152606401610b04565b612596858585612ad0565b95945050505050565b6002600b54036125c257604051633ee5aeb560e01b815260040160405180910390fd5b6002600b55565b610aa9828260405180602001604052805f815250612b9b565b600e54600d546040515f926001600160a01b03169161260e918590602401918252602082015260400190565b60408051601f198184030181529181526020820180516001600160e01b0316630dc19f8360e11b179052516126439190613b4f565b5f604051808303815f865af19150503d805f811461267c576040519150601f19603f3d011682016040523d82523d5f602084013e612681565b606091505b5050905080610aa95760405162461bcd60e51b815260206004820152601560248201527414995d995b9d59481c9958dbdc990819985a5b1959605a1b6044820152606401610b04565b600a546001600160a01b031633146112945760405163118cdaa760e01b8152336004820152602401610b04565b5f6127035f835f612512565b90506001600160a01b038116610aa957604051637e27328960e01b815260048101839052602401610b04565b600a80546001600160a01b038381166001600160a01b0319831681179093556040519116919082907f8be0079c531659141344cd1fd0a4f28419497f9722a3daafe3b4186f6b6457e0905f90a35050565b6001600160a01b0382166127b257604051630b61174360e31b81526001600160a01b0383166004820152602401610b04565b6001600160a01b038381165f81815260056020908152604080832094871680845294825291829020805460ff191686151590811790915591519182527f17307eab39ab6107e8899845ad3d59bd9653f200f220920489ca2b5937696c319101611c7b565b6001600160a01b0383163b1561142b57604051630a85bd0160e11b81526001600160a01b0384169063150b7a0290612858908890889087908790600401613b5a565b6020604051808303815f875af1925050508015612892575060408051601f3d908101601f1916820190925261288f91810190613b96565b60015b6128f9573d8080156128bf576040519150601f19603f3d011682016040523d82523d5f602084013e6128c4565b606091505b5080515f036128f157604051633250574960e11b81526001600160a01b0385166004820152602401610b04565b805160208201fd5b6001600160e01b03198116630a85bd0160e11b1461293557604051633250574960e11b81526001600160a01b0385166004820152602401610b04565b505050505050565b60605f61294983612bb2565b60010190505f816001600160401b038111156129675761296761340d565b6040519080825280601f01601f191660200182016040528015612991576020820181803683370190505b5090508181016020015b5f19016f181899199a1a9b1b9c1cb0b131b232b360811b600a86061a8153600a850494508461299b57509392505050565b80806129e057506001600160a01b03821615155b15612aa1575f6129ef846124cd565b90506001600160a01b03831615801590612a1b5750826001600160a01b0316816001600160a01b031614155b8015612a2e5750612a2c81846123d5565b155b15612a575760405163a9fbf51f60e01b81526001600160a01b0384166004820152602401610b04565b8115612a9f5783856001600160a01b0316826001600160a01b03167f8c5be1e5ebec7d5bd14f71427d1e84f3dd0314c0f7b2291e5b200ac8c7c3b92560405160405180910390a45b505b50505f90815260046020526040902080546001600160a01b0319166001600160a01b0392909216919091179055565b5f5f612add858585612c89565b90506001600160a01b038116612b3957612b3484600880545f838152600960205260408120829055600182018355919091527ff3f7a9fe364faab93b216da50a3214154f22a0a2b415b23a84c8169e8b636ee30155565b612b5c565b846001600160a01b0316816001600160a01b031614612b5c57612b5c8185612d7b565b6001600160a01b038516612b7857612b7384612df8565b611cde565b846001600160a01b0316816001600160a01b031614611cde57611cde8585612e9f565b612ba58383612eed565b6112b0335f858585612816565b5f8072184f03e93ff9f4daa797ed6e38ed64bf6a1f0160401b8310612bf05772184f03e93ff9f4daa797ed6e38ed64bf6a1f0160401b830492506040015b6d04ee2d6d415b85acef81000000008310612c1c576d04ee2d6d415b85acef8100000000830492506020015b662386f26fc100008310612c3a57662386f26fc10000830492506010015b6305f5e1008310612c52576305f5e100830492506008015b6127108310612c6657612710830492506004015b60648310612c78576064830492506002015b600a83106109215760010192915050565b5f828152600260205260408120546001600160a01b0390811690831615612cb557612cb5818486612f4e565b6001600160a01b03811615612cef57612cd05f855f5f6129cc565b6001600160a01b0381165f90815260036020526040902080545f190190555b6001600160a01b03851615612d1d576001600160a01b0385165f908152600360205260409020805460010190555b5f8481526002602052604080822080546001600160a01b0319166001600160a01b0389811691821790925591518793918516917fddf252ad1be2c89b69c2b068fc378daa952ba7f163c4a11628f55a4df523b3ef91a4949350505050565b5f612d8583611ec3565b5f838152600760209081526040808320546001600160a01b0388168452600690925290912091925090818314612dda575f83815260208281526040808320548584528184208190558352600790915290208290555b5f938452600760209081526040808620869055938552525081205550565b6008545f90612e0990600190613a89565b5f8381526009602052604081205460088054939450909284908110612e3057612e3061398c565b905f5260205f20015490508060088381548110612e4f57612e4f61398c565b5f918252602080832090910192909255828152600990915260408082208490558582528120556008805480612e8657612e86613bb1565b600190038181905f5260205f20015f9055905550505050565b5f6001612eab84611ec3565b612eb59190613a89565b6001600160a01b039093165f908152600660209081526040808320868452825280832085905593825260079052919091209190915550565b6001600160a01b038216612f1657604051633250574960e11b81525f6004820152602401610b04565b5f612f2283835f612512565b90506001600160a01b038116156112b0576040516339e3563760e11b81525f6004820152602401610b04565b612f59838383612fb2565b6112b0576001600160a01b038316612f8757604051637e27328960e01b815260048101829052602401610b04565b60405163177e802f60e01b81526001600160a01b038316600482015260248101829052604401610b04565b5f6001600160a01b03831615801590611cde5750826001600160a01b0316846001600160a01b03161480612feb5750612feb84846123d5565b80611cde5750505f908152600460205260409020546001600160a01b03908116911614919050565b50805461301f90613836565b5f825580601f1061302e575050565b601f0160209004905f5260205f209081019061208a91905b80821115613059575f8155600101613046565b5090565b6001600160e01b03198116811461208a575f5ffd5b5f60208284031215613082575f5ffd5b813561308d8161305d565b9392505050565b5f602082840312156130a4575f5ffd5b5035919050565b5f81518084528060208401602086015e5f602082860101526020601f19601f83011685010191505092915050565b608081525f6130eb60808301876130ab565b6020830195909552506040810192909252606090910152919050565b602081525f61308d60208301846130ab565b6001600160a01b038116811461208a575f5ffd5b803561313881613119565b919050565b5f5f6040838503121561314e575f5ffd5b823561315981613119565b946020939093013593505050565b5f5f5f60408486031215613179575f5ffd5b8335925060208401356001600160401b03811115613195575f5ffd5b8401601f810186136131a5575f5ffd5b80356001600160401b038111156131ba575f5ffd5b8660208284010111156131cb575f5ffd5b939660209190910195509293505050565b5f5f5f606084860312156131ee575f5ffd5b83356131f981613119565b9250602084013561320981613119565b929592945050506040919091013590565b5f5f6040838503121561322b575f5ffd5b50508035926020909101359150565b5f8151808452602084019350602083015f5b8281101561326a57815186526020958601959091019060010161324c565b5093949350505050565b602081525f61308d602083018461323a565b5f5f83601f840112613296575f5ffd5b5081356001600160401b038111156132ac575f5ffd5b6020830191508360208260051b85010111156132c6575f5ffd5b9250929050565b5f5f5f5f604085870312156132e0575f5ffd5b84356001600160401b038111156132f5575f5ffd5b61330187828801613286565b90955093505060208501356001600160401b0381111561331f575f5ffd5b61332b87828801613286565b95989497509550505050565b5f81516080845261334b60808501826130ab565b90506020830151602085015260408301516040850152606083015160608501528091505092915050565b602081525f61308d6020830184613337565b85815260a060208201525f61339f60a08301876130ab565b604083019590955250911515606083015260809091015292915050565b85151581526001600160a01b038516602082015260a0604082018190525f906133e7908301866130ab565b8415156060840152828103608084015261340181856130ab565b98975050505050505050565b634e487b7160e01b5f52604160045260245ffd5b604051608081016001600160401b03811182821017156134435761344361340d565b60405290565b604051601f8201601f191681016001600160401b03811182821017156134715761347161340d565b604052919050565b5f5f6001600160401b038411156134925761349261340d565b50601f8301601f19166020016134a781613449565b9150508281528383830111156134bb575f5ffd5b828260208301375f602084830101529392505050565b5f82601f8301126134e0575f5ffd5b61308d83833560208501613479565b5f602082840312156134ff575f5ffd5b81356001600160401b03811115613514575f5ffd5b8201601f81018413613524575f5ffd5b80356001600160401b0381111561353d5761353d61340d565b8060051b61354d60208201613449565b91825260208184018101929081019087841115613568575f5ffd5b6020850192505b838310156136095782356001600160401b0381111561358c575f5ffd5b85016080818a03601f190112156135a1575f5ffd5b6135a9613421565b60208201356001600160401b038111156135c1575f5ffd5b6135d08b6020838601016134d1565b8252506040828101356020808401919091526060808501359284019290925260809093013590820152835292830192919091019061356f565b979650505050505050565b5f60208284031215613624575f5ffd5b813561308d81613119565b5f602082016020835280845180835260408501915060408160051b8601019250602086015f5b8281101561368657603f19878603018452613671858351613337565b94506020938401939190910190600101613655565b50929695505050505050565b5f5f5f5f5f5f5f60e0888a0312156136a8575f5ffd5b87356136b381613119565b96506136c16020890161312d565b95506040880135945060608801356001600160401b038111156136e2575f5ffd5b6136ee8a828b016134d1565b94505060808801356001600160401b03811115613709575f5ffd5b6137158a828b016134d1565b93505060a08801356001600160401b03811115613730575f5ffd5b61373c8a828b016134d1565b979a969950949793969295929450505060c09091013590565b5f5f60408385031215613766575f5ffd5b823561377181613119565b915060208301358015158114613785575f5ffd5b809150509250929050565b5f5f5f5f608085870312156137a3575f5ffd5b84356137ae81613119565b935060208501356137be81613119565b92506040850135915060608501356001600160401b038111156137df575f5ffd5b8501601f810187136137ef575f5ffd5b6137fe87823560208401613479565b91505092959194509250565b5f5f6040838503121561381b575f5ffd5b823561382681613119565b9150602083013561378581613119565b600181811c9082168061384a57607f821691505b6020821081036123c257634e487b7160e01b5f52602260045260245ffd5b601f8211156112b057805f5260205f20601f840160051c8101602085101561388d5750805b601f840160051c820191505b8181101561142b575f8155600101613899565b6001600160401b038311156138c3576138c361340d565b6138d7836138d18354613836565b83613868565b5f601f841160018114613908575f85156138f15750838201355b5f19600387901b1c1916600186901b17835561142b565b5f83815260208120601f198716915b828110156139375786850135825560209485019460019092019101613917565b5086821015613953575f1960f88860031b161c19848701351681555b505060018560011b0183555050505050565b634e487b7160e01b5f52601160045260245ffd5b8082018082111561092157610921613965565b634e487b7160e01b5f52603260045260245ffd5b808202811582820484141761092157610921613965565b5f600182016139c8576139c8613965565b5060010190565b81516001600160401b038111156139e8576139e861340d565b6139fc816139f68454613836565b84613868565b6020601f821160018114613a2e575f8315613a175750848201515b5f19600385901b1c1916600184901b17845561142b565b5f84815260208120601f198516915b82811015613a5d5787850151825560209485019460019092019101613a3d565b5084821015613a7a57868401515f19600387901b60f8161c191681555b50505050600190811b01905550565b8181038181111561092157610921613965565b606081525f613aae606083018661323a565b60208301949094525060400152919050565b5f5f8335601e19843603018112613ad5575f5ffd5b8301803591506001600160401b03821115613aee575f5ffd5b6020019150368190038213156132c6575f5ffd5b5f60208284031215613b12575f5ffd5b815161308d81613119565b5f81518060208401855e5f93019283525090919050565b66697066733a2f2f60c81b81525f61308d6007830184613b1d565b5f61308d8284613b1d565b6001600160a01b03858116825284166020820152604081018390526080606082018190525f90613b8c908301846130ab565b9695505050505050565b5f60208284031215613ba6575f5ffd5b815161308d8161305d565b634e487b7160e01b5f52603160045260245ffdfea2646970667358221220b640d36f872ad81bdd692a17b649b180f353f9b7eab6515069fcc91156d3e15f64736f6c634300081c0033",
  "linkReferences": {},
  "deployedLinkReferences": {},
  "immutableReferences": {},
  "inputSourceName": "project/contracts/TicketNFT.sol",
  "buildInfoId": "solc-0_8_28-ef5f336e41402c804424605cd1977512f3082e8c"
}