{
  "_format": "hh3-artifact-1",
  "contractName": "TicketNFT",
  "sourceName": "contracts/TicketNFT.sol",
  "abi": [
    {
      "inputs": [],
      "stateMutability": "nonpayable",
      "type": "constructor"
    },
    {
      "inputs": [
        {
          "internalType": "address",
          "name": "sender",
          "type": "address"
        },
        {
          "internalType": "uint256",
          "name": "tokenId",
          "type": "uint256"
        },
        {
          "internalType": "address",
          "name": "owner",
          "type": "address"
        }
      ],
      "name": "ERC721IncorrectOwner",
      "type": "error"
    },
    {
      "inputs": [
        {
          "internalType": "address",
          "name": "operator",
          "type": "address"
        },
        {
          "internalType": "uint256",
          "name": "tokenId",
          "type": "uint256"
        }
      ],
      "name": "ERC721InsufficientApproval",
      "type": "error"
    },
    {
      "inputs": [
        {
          "internalType": "address",
          "name": "approver",
          "type": "address"
        }
      ],
      "name": "ERC721InvalidApprover",
      "type": "error"
    },
    {
      "inputs": [
        {
          "internalType": "address",
          "name": "operator",
          "type": "address"
        }
      ],
      "name": "ERC721InvalidOperator",
      "type": "error"
    },
    {
      "inputs": [
        {
          "internalType": "address",
          "name": "owner",
          "type": "address"
        }
      ],
      "name": "ERC721InvalidOwner",
      "type": "error"
    },
    {
      "inputs": [
        {
          "internalType": "address",
          "name": "receiver",
          "type": "address"
        }
      ],
      "name": "ERC721InvalidReceiver",
      "type": "error"
    },
    {
      "inputs": [
        {
          "internalType": "address",
          "name": "sender",
          "type": "address"
        }
      ],
      "name": "ERC721InvalidSender",
      "type": "error"
    },
    {
      "inputs": [
        {
          "internalType": "uint256",
          "name": "tokenId",
          "type": "uint256"
        }
      ],
      "name": "ERC721NonexistentToken",
      "type": "error"
    },
    {
      "inputs": [
        {
          "internalType": "address",
          "name": "owner",
          "type": "address"
        }
      ],
      "name": "OwnableInvalidOwner",
      "type": "error"
    },
    {
      "inputs": [
        {
          "internalType": "address",
          "name": "account",
          "type": "address"
        }
      ],
      "name": "OwnableUnauthorizedAccount",
      "type": "error"
    },
    {
      "inputs": [],
      "name": "ReentrancyGuardReentrantCall",
      "type": "error"
    },
    {
      "anonymous": false,
      "inputs": [
        {
          "indexed": true,
          "internalType": "address",
          "name": "owner",
          "type": "address"
        },
        {
          "indexed": true,
          "internalType": "address",
          "name": "approved",
          "type": "address"
        },
        {
          "indexed": true,
          "internalType": "uint256",
          "name": "tokenId",
          "type": "uint256"
        }
      ],
      "name": "Approval",
      "type": "event"
    },
    {
      "anonymous": false,
      "inputs": [
        {
          "indexed": true,
          "internalType": "address",
          "name": "owner",
          "type": "address"
        },
        {
          "indexed": true,
          "internalType": "address",
          "name": "operator",
          "type": "address"
        },
        {
          "indexed": false,
          "internalType": "bool",
          "name": "approved",
          "type": "bool"
        }
      ],
      "name": "ApprovalForAll",
      "type": "event"
    },
    {
      "anonymous": false,
      "inputs": [
        {
          "indexed": true,
          "internalType": "address",
          "name": "oldFactory",
          "type": "address"
        },
        {
          "indexed": true,
          "internalType": "address",
          "name": "newFactory",
          "type": "address"
        }
      ],
      "name": "FactoryChanged",
      "type": "event"
    },
    {
      "anonymous": false,
      "inputs": [
        {
          "indexed": false,
          "internalType": "uint256",
          "name": "oldPeriod",
          "type": "uint256"
        },
        {
          "indexed": false,
          "internalType": "uint256",
          "name": "newPeriod",
          "type": "uint256"
        }
      ],
      "name": "LockPeriodChanged",
      "type": "event"
    },
    {
      "anonymous": false,
      "inputs": [
        {
          "indexed": true,
          "internalType": "address",
          "name": "previousOwner",
          "type": "address"
        },
        {
          "indexed": true,
          "internalType": "address",
          "name": "newOwner",
          "type": "address"
        }
      ],
      "name": "OwnershipTransferred",
      "type": "event"
    },
    {
      "anonymous": false,
      "inputs": [
        {
          "indexed": false,
          "internalType": "bool",
          "name": "active",
          "type": "bool"
        }
      ],
      "name": "SaleStatusChanged",
      "type": "event"
    },
    {
      "anonymous": false,
      "inputs": [
        {
          "indexed": true,
          "internalType": "uint256",
          "name": "tokenId",
          "type": "uint256"
        }
      ],
      "name": "TicketBurned",
      "type": "event"
    },
    {
      "anonymous": false,
      "inputs": [
        {
          "indexed": true,
          "internalType": "uint256",
          "name": "tokenId",
          "type": "uint256"
        },
        {
          "indexed": true,
          "internalType": "address",
          "name": "user",
          "type": "address"
        },
        {
          "indexed": false,
          "internalType": "uint256",
          "name": "timestamp",
          "type": "uint256"
        }
      ],
      "name": "TicketUsed",
      "type": "event"
    },
    {
      "anonymous": false,
      "inputs": [
        {
          "indexed": true,
          "internalType": "address",
          "name": "buyer",
          "type": "address"
        },
        {
          "indexed": false,
          "internalType": "uint256[]",
          "name": "tokenIds",
          "type": "uint256[]"
        },
        {
          "indexed": false,
          "internalType": "uint256",
          "name": "tierIndex",
          "type": "uint256"
        },
        {
          "indexed": false,
          "internalType": "uint256",
          "name": "quantity",
          "type": "uint256"
        }
      ],
      "name": "TicketsPurchased",
      "type": "event"
    },
    {
      "anonymous": false,
      "inputs": [
        {
          "indexed": true,
          "internalType": "address",
          "name": "from",
          "type": "address"
        },
        {
          "indexed": true,
          "internalType": "address",
          "name": "to",
          "type": "address"
        },
        {
          "indexed": true,
          "internalType": "uint256",
          "name": "tokenId",
          "type": "uint256"
        }
      ],
      "name": "Transfer",
      "type": "event"
    },
    {
      "anonymous": false,
      "inputs": [
        {
          "indexed": true,
          "internalType": "address",
          "name": "to",
          "type": "address"
        },
        {
          "indexed": false,
          "internalType": "uint256",
          "name": "amount",
          "type": "uint256"
        }
      ],
      "name": "Withdrawn",
      "type": "event"
    },
    {
      "inputs": [],
      "name": "LOCK_PERIOD_SECONDS",
      "outputs": [
        {
          "internalType": "uint256",
          "name": "",
          "type": "uint256"
        }
      ],
      "stateMutability": "view",
      "type": "function"
    },
    {
      "inputs": [],
      "name": "MAX_PER_WALLET",
      "outputs": [
        {
          "internalType": "uint256",
          "name": "",
          "type": "uint256"
        }
      ],
      "stateMutability": "view",
      "type": "function"
    },
    {
      "inputs": [
        {
          "components": [
            {
              "internalType": "string",
              "name": "name",
              "type": "string"
            },
            {
              "internalType": "uint256",
              "name": "price",
              "type": "uint256"
            },
            {
              "internalType": "uint256",
              "name": "maxSupply",
              "type": "uint256"
            },
            {
              "internalType": "uint256",
              "name": "sold",
              "type": "uint256"
            }
          ],
          "internalType": "struct TicketNFT.TicketTier[]",
          "name": "_tiers",
          "type": "tuple[]"
        }
      ],
      "name": "addTiers",
      "outputs": [],
      "stateMutability": "nonpayable",
      "type": "function"
    },
    {
      "inputs": [
        {
          "internalType": "address",
          "name": "to",
          "type": "address"
        },
        {
          "internalType": "uint256",
          "name": "tokenId",
          "type": "uint256"
        }
      ],
      "name": "approve",
      "outputs": [],
      "stateMutability": "nonpayable",
      "type": "function"
    },
    {
      "inputs": [
        {
          "internalType": "address",
          "name": "owner",
          "type": "address"
        }
      ],
      "name": "balanceOf",
      "outputs": [
        {
          "internalType": "uint256",
          "name": "",
          "type": "uint256"
        }
      ],
      "stateMutability": "view",
      "type": "function"
    },
    {
      "inputs": [
        {
          "internalType": "uint256",
          "name": "tokenId",
          "type": "uint256"
        }
      ],
      "name": "burn",
      "outputs": [],
      "stateMutability": "nonpayable",
      "type": "function"
    },
    {
      "inputs": [
        {
          "internalType": "uint256",
          "name": "tierIndex",
          "type": "uint256"
        },
        {
          "internalType": "uint256",
          "name": "quantity",
          "type": "uint256"
        }
      ],
      "name": "buyTicket",
      "outputs": [
        {
          "internalType": "uint256[]",
          "name": "",
          "type": "uint256[]"
        }
      ],
      "stateMutability": "payable",
      "type": "function"
    },
    {
      "inputs": [],
      "name": "endEvent",
      "outputs": [],
      "stateMutability": "nonpayable",
      "type": "function"
    },
    {
      "inputs": [],
      "name": "eventDate",
      "outputs": [
        {
          "internalType": "uint256",
          "name": "",
          "type": "uint256"
        }
      ],
      "stateMutability": "view",
      "type": "function"
    },
    {
      "inputs": [],
      "name": "eventEnded",
      "outputs": [
        {
          "internalType": "bool",
          "name": "",
          "type": "bool"
        }
      ],
      "stateMutability": "view",
      "type": "function"
    },
    {
      "inputs": [],
      "name": "eventId",
      "outputs": [
        {
          "internalType": "uint256",
          "name": "",
          "type": "uint256"
        }
      ],
      "stateMutability": "view",
      "type": "function"
    },
    {
      "inputs": [],
      "name": "eventInfo",
      "outputs": [
        {
          "internalType": "string",
          "name": "",
          "type": "string"
        }
      ],
      "stateMutability": "view",
      "type": "function"
    },
    {
      "inputs": [],
      "name": "eventTitle",
      "outputs": [
        {
          "internalType": "string",
          "name": "",
          "type": "string"
        }
      ],
      "stateMutability": "view",
      "type": "function"
    },
    {
      "inputs": [],
      "name": "eventVenue",
      "outputs": [
        {
          "internalType": "string",
          "name": "",
          "type": "string"
        }
      ],
      "stateMutability": "view",
      "type": "function"
    },
    {
      "inputs": [],
      "name": "factory",
      "outputs": [
        {
          "internalType": "address",
          "name": "",
          "type": "address"
        }
      ],
      "stateMutability": "view",
      "type": "function"
    },
    {
      "inputs": [],
      "name": "getAllTiers",
      "outputs": [
        {
          "components": [
            {
              "internalType": "string",
              "name": "name",
              "type": "string"
            },
            {
              "internalType": "uint256",
              "name": "price",
              "type": "uint256"
            },
            {
              "internalType": "uint256",
              "name": "maxSupply",
              "type": "uint256"
            },
            {
              "internalType": "uint256",
              "name": "sold",
              "type": "uint256"
            }
          ],
          "internalType": "struct TicketNFT.TicketTier[]",
          "name": "",
          "type": "tuple[]"
        }
      ],
      "stateMutability": "view",
      "type": "function"
    },
    {
      "inputs": [
        {
          "internalType": "uint256",
          "name": "tokenId",
          "type": "uint256"
        }
      ],
      "name": "getApproved",
      "outputs": [
        {
          "internalType": "address",
          "name": "",
          "type": "address"
        }
      ],
      "stateMutability": "view",
      "type": "function"
    },
    {
      "inputs": [
        {
          "internalType": "uint256",
          "name": "tierIndex",
          "type": "uint256"
        }
      ],
      "name": "getTier",
      "outputs": [
        {
          "components": [
            {
              "internalType": "string",
              "name": "name",
              "type": "string"
            },
            {
              "internalType": "uint256",
              "name": "price",
              "type": "uint256"
            },
            {
              "internalType": "uint256",
              "name": "maxSupply",
              "type": "uint256"
            },
            {
              "internalType": "uint256",
              "name": "sold",
              "type": "uint256"
            }
          ],
          "internalType": "struct TicketNFT.TicketTier",
          "name": "",
          "type": "tuple"
        }
      ],
      "stateMutability": "view",
      "type": "function"
    },
    {
      "inputs": [
        {
          "internalType": "address",
          "name": "_organizer",
          "type": "address"
        },
        {
          "internalType": "address",
          "name": "_factory",
          "type": "address"
        },
        {
          "internalType": "uint256",
          "name": "_eventId",
          "type": "uint256"
        },
        {
          "internalType": "string",
          "name": "_eventTitle",
          "type": "string"
        },
        {
          "internalType": "string",
          "name": "_eventInfo",
          "type": "string"
        },
        {
          "internalType": "string",
          "name": "_eventVenue",
          "type": "string"
        },
        {
          "internalType": "uint256",
          "name": "_eventDate",
          "type": "uint256"
        }
      ],
      "name": "initialize",
      "outputs": [],
      "stateMutability": "nonpayable",
      "type": "function"
    },
    {
      "inputs": [
        {
          "internalType": "address",
          "name": "owner",
          "type": "address"
        },
        {
          "internalType": "address",
          "name": "operator",
          "type": "address"
        }
      ],
      "name": "isApprovedForAll",
      "outputs": [
        {
          "internalType": "bool",
          "name": "",
          "type": "bool"
        }
      ],
      "stateMutability": "view",
      "type": "function"
    },
    {
      "inputs": [
        {
          "internalType": "uint256",
          "name": "tokenId",
          "type": "uint256"
        }
      ],
      "name": "isLocked",
      "outputs": [
        {
          "internalType": "bool",
          "name": "",
          "type": "bool"
        }
      ],
      "stateMutability": "view",
      "type": "function"
    },
    {
      "inputs": [
        {
          "internalType": "uint256",
          "name": "tokenId",
          "type": "uint256"
        }
      ],
      "name": "markAsUsed",
      "outputs": [],
      "stateMutability": "nonpayable",
      "type": "function"
    },
    {
      "inputs": [],
      "name": "maxSupply",
      "outputs": [
        {
          "internalType": "uint256",
          "name": "",
          "type": "uint256"
        }
      ],
      "stateMutability": "view",
      "type": "function"
    },
    {
      "inputs": [],
      "name": "name",
      "outputs": [
        {
          "internalType": "string",
          "name": "",
          "type": "string"
        }
      ],
      "stateMutability": "view",
      "type": "function"
    },
    {
      "inputs": [],
      "name": "owner",
      "outputs": [
        {
          "internalType": "address",
          "name": "",
          "type": "address"
        }
      ],
      "stateMutability": "view",
      "type": "function"
    },
    {
      "inputs": [
        {
          "internalType": "uint256",
          "name": "tokenId",
          "type": "uint256"
        }
      ],
      "name": "ownerOf",
      "outputs": [
        {
          "internalType": "address",
          "name": "",
          "type": "address"
        }
      ],
      "stateMutability": "view",
      "type": "function"
    },
    {
      "inputs": [
        {
          "internalType": "address",
          "name": "",
          "type": "address"
        }
      ],
      "name": "purchasedCount",
      "outputs": [
        {
          "internalType": "uint256",
          "name": "",
          "type": "uint256"
        }
      ],
      "stateMutability": "view",
      "type": "function"
    },
    {
      "inputs": [
        {
          "internalType": "uint256",
          "name": "tokenId",
          "type": "uint256"
        }
      ],
      "name": "remainingLockSeconds",
      "outputs": [
        {
          "internalType": "uint256",
          "name": "",
          "type": "uint256"
        }
      ],
      "stateMutability": "view",
      "type": "function"
    },
    {
      "inputs": [],
      "name": "renounceOwnership",
      "outputs": [],
      "stateMutability": "nonpayable",
      "type": "function"
    },
    {
      "inputs": [
        {
          "internalType": "address",
          "name": "from",
          "type": "address"
        },
        {
          "internalType": "address",
          "name": "to",
          "type": "address"
        },
        {
          "internalType": "uint256",
          "name": "tokenId",
          "type": "uint256"
        }
      ],
      "name": "safeTransferFrom",
      "outputs": [],
      "stateMutability": "nonpayable",
      "type": "function"
    },
    {
      "inputs": [
        {
          "internalType": "address",
          "name": "from",
          "type": "address"
        },
        {
          "internalType": "address",
          "name": "to",
          "type": "address"
        },
        {
          "internalType": "uint256",
          "name": "tokenId",
          "type": "uint256"
        },
        {
          "internalType": "bytes",
          "name": "data",
          "type": "bytes"
        }
      ],
      "name": "safeTransferFrom",
      "outputs": [],
      "stateMutability": "nonpayable",
      "type": "function"
    },
    {
      "inputs": [],
      "name": "saleActive",
      "outputs": [
        {
          "internalType": "bool",
          "name": "",
          "type": "bool"
        }
      ],
      "stateMutability": "view",
      "type": "function"
    },
    {
      "inputs": [
        {
          "internalType": "address",
          "name": "operator",
          "type": "address"
        },
        {
          "internalType": "bool",
          "name": "approved",
          "type": "bool"
        }
      ],
      "name": "setApprovalForAll",
      "outputs": [],
      "stateMutability": "nonpayable",
      "type": "function"
    },
    {
      "inputs": [
        {
          "internalType": "address",
          "name": "newFactory",
          "type": "address"
        }
      ],
      "name": "setFactory",
      "outputs": [],
      "stateMutability": "nonpayable",
      "type": "function"
    },
    {
      "inputs": [
        {
          "internalType": "uint256",
          "name": "tokenId",
          "type": "uint256"
        },
        {
          "internalType": "string",
          "name": "uri",
          "type": "string"
        }
      ],
      "name": "setTokenURI",
      "outputs": [],
      "stateMutability": "nonpayable",
      "type": "function"
    },
    {
      "inputs": [
        {
          "internalType": "uint256[]",
          "name": "tokenIds",
          "type": "uint256[]"
        },
        {
          "internalType": "string[]",
          "name": "uris",
          "type": "string[]"
        }
      ],
      "name": "setTokenURIBatch",
      "outputs": [],
      "stateMutability": "nonpayable",
      "type": "function"
    },
    {
      "inputs": [
        {
          "internalType": "bytes4",
          "name": "interfaceId",
          "type": "bytes4"
        }
      ],
      "name": "supportsInterface",
      "outputs": [
        {
          "internalType": "bool",
          "name": "",
          "type": "bool"
        }
      ],
      "stateMutability": "view",
      "type": "function"
    },
    {
      "inputs": [],
      "name": "symbol",
      "outputs": [
        {
          "internalType": "string",
          "name": "",
          "type": "string"
        }
      ],
      "stateMutability": "view",
      "type": "function"
    },
    {
      "inputs": [
        {
          "internalType": "uint256",
          "name": "",
          "type": "uint256"
        }
      ],
      "name": "tickets",
      "outputs": [
        {
          "internalType": "uint256",
          "name": "id",
          "type": "uint256"
        },
        {
          "internalType": "string",
          "name": "tier",
          "type": "string"
        },
        {
          "internalType": "uint256",
          "name": "originalPrice",
          "type": "uint256"
        },
        {
          "internalType": "bool",
          "name": "used",
          "type": "bool"
        },
        {
          "internalType": "uint256",
          "name": "purchaseTimestamp",
          "type": "uint256"
        }
      ],
      "stateMutability": "view",
      "type": "function"
    },
    {
      "inputs": [
        {
          "internalType": "uint256",
          "name": "",
          "type": "uint256"
        }
      ],
      "name": "tiers",
      "outputs": [
        {
          "internalType": "string",
          "name": "name",
          "type": "string"
        },
        {
          "internalType": "uint256",
          "name": "price",
          "type": "uint256"
        },
        {
          "internalType": "uint256",
          "name": "maxSupply",
          "type": "uint256"
        },
        {
          "internalType": "uint256",
          "name": "sold",
          "type": "uint256"
        }
      ],
      "stateMutability": "view",
      "type": "function"
    },
    {
      "inputs": [],
      "name": "tiersSet",
      "outputs": [
        {
          "internalType": "bool",
          "name": "",
          "type": "bool"
        }
      ],
      "stateMutability": "view",
      "type": "function"
    },
    {
      "inputs": [
        {
          "internalType": "uint256",
          "name": "tokenId",
          "type": "uint256"
        }
      ],
      "name": "tokenURI",
      "outputs": [
        {
          "internalType": "string",
          "name": "",
          "type": "string"
        }
      ],
      "stateMutability": "view",
      "type": "function"
    },
    {
      "inputs": [
        {
          "internalType": "address",
          "name": "owner",
          "type": "address"
        }
      ],
      "name": "tokensOfOwner",
      "outputs": [
        {
          "internalType": "uint256[]",
          "name": "",
          "type": "uint256[]"
        }
      ],
      "stateMutability": "view",
      "type": "function"
    },
    {
      "inputs": [],
      "name": "totalSupply",
      "outputs": [
        {
          "internalType": "uint256",
          "name": "",
          "type": "uint256"
        }
      ],
      "stateMutability": "view",
      "type": "function"
    },
    {
      "inputs": [
        {
          "internalType": "address",
          "name": "from",
          "type": "address"
        },
        {
          "internalType": "address",
          "name": "to",
          "type": "address"
        },
        {
          "internalType": "uint256",
          "name": "tokenId",
          "type": "uint256"
        }
      ],
      "name": "transferFrom",
      "outputs": [],
      "stateMutability": "nonpayable",
      "type": "function"
    },
    {
      "inputs": [
        {
          "internalType": "address",
          "name": "newOwner",
          "type": "address"
        }
      ],
      "name": "transferOwnership",
      "outputs": [],
      "stateMutability": "nonpayable",
      "type": "function"
    },
    {
      "inputs": [
        {
          "internalType": "uint256",
          "name": "tokenId",
          "type": "uint256"
        }
      ],
      "name": "verifyTicket",
      "outputs": [
        {
          "internalType": "bool",
          "name": "isValid",
          "type": "bool"
        },
        {
          "internalType": "address",
          "name": "currentOwner",
          "type": "address"
        },
        {
          "internalType": "string",
          "name": "tier",
          "type": "string"
        },
        {
          "internalType": "bool",
          "name": "used",
          "type": "bool"
        },
        {
          "internalType": "string",
          "name": "reason",
          "type": "string"
        }
      ],
      "stateMutability": "view",
      "type": "function"
    },
    {
      "inputs": [],
      "name": "withdraw",
      "outputs": [],
      "stateMutability": "nonpayable",
      "type": "function"
    },
    {
      "inputs": [
        {
          "internalType": "address payable",
          "name": "recipient",
          "type": "address"
        }
      ],
      "name": "withdrawTo",
      "outputs": [],
      "stateMutability": "nonpayable",
      "type": "function"
    }
  ],
  "bytecode": "0x6080604052600d805460ff191690556014805461ffff19166001179055348015610027575f5ffd5b50336040518060400160405280600c81526020016b1391951a5e08151a58dad95d60a21b8152506040518060400160405280600581526020016409c8ca892b60db1b815250815f908161007a91906101b4565b50600161008782826101b4565b5050506001600160a01b0381166100b757604051631e4fbdf760e01b81525f600482015260240160405180910390fd5b6100c0816100cb565b50600160075561026e565b600680546001600160a01b038381166001600160a01b0319831681179093556040519116919082907f8be0079c531659141344cd1fd0a4f28419497f9722a3daafe3b4186f6b6457e0905f90a35050565b634e487b7160e01b5f52604160045260245ffd5b600181811c9082168061014457607f821691505b60208210810361016257634e487b7160e01b5f52602260045260245ffd5b50919050565b601f8211156101af57805f5260205f20601f840160051c8101602085101561018d5750805b601f840160051c820191505b818110156101ac575f8155600101610199565b50505b505050565b81516001600160401b038111156101cd576101cd61011c565b6101e1816101db8454610130565b84610168565b6020601f821160018114610213575f83156101fc5750848201515b5f19600385901b1c1916600184901b1784556101ac565b5f84815260208120601f198516915b828110156102425787850151825560209485019460019092019101610222565b508482101561025f57868401515f19600387901b60f8161c191681555b50505050600190811b01905550565b6138588061027b5f395ff3fe6080604052600436106102a5575f3560e01c80636471af831161016f578063a22cb465116100d8578063c9bb9a4a11610092578063e985e9c51161006d578063e985e9c514610810578063f2fde38b1461082f578063f57e63e21461084e578063f6aacfb11461086c575f5ffd5b8063c9bb9a4a146107cf578063d5abeb01146107e8578063e22bda35146107fc575f5ffd5b8063a22cb46514610714578063b1b410f514610733578063b88d4fde14610747578063ba2a065514610766578063c45a015514610791578063c87b56dd146107b0575f5ffd5b80638462151c116101295780638462151c14610686578063860954a2146106a557806386ec6177146106b95780638bf322c5146106cd5780638da5cb5b146106e357806395d89b4114610700575f5ffd5b80636471af83146105db57806366702710146105fc57806368428a1b1461061b57806370a0823114610634578063715018a61461065357806372b0d90c14610667575f5ffd5b806342842e0e11610211578063543cb81f116101cb578063543cb81f146105105780635575027a146105405780635bb478081461055f5780635da6a0411461057e5780635f527fd41461059d5780636352211e146105bc575f5ffd5b806342842e0e1461044257806342966c68146104615780634bb99351146104805780634bfbe5df1461049f5780634f062c5a146104b457806350b44712146104e0575f5ffd5b80630f2cdd6c116102625780630f2cdd6c146103a8578063162094c4146103bc57806318160ddd146103db57806323b872dd146103ef578063298ec2081461040e5780633ccfd60b1461042e575f5ffd5b806301ffc9a7146102a9578063039af9eb146102dd57806306fdde031461030c578063081812fc1461032d578063089cdd0c14610364578063095ea7b314610387575b5f5ffd5b3480156102b4575f5ffd5b506102c86102c3366004612ce3565b61088b565b60405190151581526020015b60405180910390f35b3480156102e8575f5ffd5b506102fc6102f7366004612d05565b6108dc565b6040516102d49493929190612d4a565b348015610317575f5ffd5b5061032061099d565b6040516102d49190612d78565b348015610338575f5ffd5b5061034c610347366004612d05565b610a2c565b6040516001600160a01b0390911681526020016102d4565b34801561036f575f5ffd5b5061037960095481565b6040519081526020016102d4565b348015610392575f5ffd5b506103a66103a1366004612dae565b610a53565b005b3480156103b3575f5ffd5b50610379600381565b3480156103c7575f5ffd5b506103a66103d6366004612dd8565b610a62565b3480156103e6575f5ffd5b50600854610379565b3480156103fa575f5ffd5b506103a6610409366004612e4d565b610ae0565b61042161041c366004612e8b565b610b63565b6040516102d49190612ee5565b348015610439575f5ffd5b506103a66110a1565b34801561044d575f5ffd5b506103a661045c366004612e4d565b6111e8565b34801561046c575f5ffd5b506103a661047b366004612d05565b611207565b34801561048b575f5ffd5b506103a661049a366004612f3e565b6112c7565b3480156104aa575f5ffd5b50610379600b5481565b3480156104bf575f5ffd5b506104d36104ce366004612d05565b611384565b6040516102d49190612fe6565b3480156104eb575f5ffd5b506104ff6104fa366004612d05565b6114ca565b6040516102d4959493929190612ff8565b34801561051b575f5ffd5b5061052f61052a366004612d05565b611584565b6040516102d495949392919061302d565b34801561054b575f5ffd5b506103a661055a366004613160565b61186c565b34801561056a575f5ffd5b506103a6610579366004613285565b6119a5565b348015610589575f5ffd5b506103a6610598366004612d05565b611a54565b3480156105a8575f5ffd5b506103796105b7366004612d05565b611b85565b3480156105c7575f5ffd5b5061034c6105d6366004612d05565b611be3565b3480156105e6575f5ffd5b506105ef611bed565b6040516102d491906132a0565b348015610607575f5ffd5b506103a6610616366004613303565b611cf6565b348015610626575f5ffd5b506014546102c89060ff1681565b34801561063f575f5ffd5b5061037961064e366004613285565b611dc0565b34801561065e575f5ffd5b506103a6611e05565b348015610672575f5ffd5b506103a6610681366004613285565b611e16565b348015610691575f5ffd5b506104216106a0366004613285565b611f8a565b3480156106b0575f5ffd5b506103206120b4565b3480156106c4575f5ffd5b506103a6612140565b3480156106d8575f5ffd5b506103796202a30081565b3480156106ee575f5ffd5b506006546001600160a01b031661034c565b34801561070b575f5ffd5b50610320612159565b34801561071f575f5ffd5b506103a661072e3660046133c6565b612168565b34801561073e575f5ffd5b50610320612173565b348015610752575f5ffd5b506103a6610761366004613401565b612180565b348015610771575f5ffd5b50610379610780366004613285565b600f6020525f908152604090205481565b34801561079c575f5ffd5b50600a5461034c906001600160a01b031681565b3480156107bb575f5ffd5b506103206107ca366004612d05565b612198565b3480156107da575f5ffd5b50600d546102c89060ff1681565b3480156107f3575f5ffd5b50610379612279565b348015610807575f5ffd5b506103206122c5565b34801561081b575f5ffd5b506102c861082a36600461347b565b6122d2565b34801561083a575f5ffd5b506103a6610849366004613285565b6122ff565b348015610859575f5ffd5b506014546102c890610100900460ff1681565b348015610877575f5ffd5b506102c8610886366004612d05565b612339565b5f6001600160e01b031982166380ac58cd60e01b14806108bb57506001600160e01b03198216635b5e139f60e01b145b806108d657506301ffc9a760e01b6001600160e01b03198316145b92915050565b600c81815481106108eb575f80fd5b905f5260205f2090600402015f91509050805f01805461090a906134a7565b80601f0160208091040260200160405190810160405280929190818152602001828054610936906134a7565b80156109815780601f1061095857610100808354040283529160200191610981565b820191905f5260205f20905b81548152906001019060200180831161096457829003601f168201915b5050505050908060010154908060020154908060030154905084565b60605f80546109ab906134a7565b80601f01602080910402602001604051908101604052809291908181526020018280546109d7906134a7565b8015610a225780601f106109f957610100808354040283529160200191610a22565b820191905f5260205f20905b815481529060010190602001808311610a0557829003601f168201915b5050505050905090565b5f610a368261237b565b505f828152600460205260409020546001600160a01b03166108d6565b610a5e8282336123b3565b5050565b610a6b83611be3565b6001600160a01b0316336001600160a01b031614610ac25760405162461bcd60e51b815260206004820152600f60248201526e4e6f7420417574686f72697a65642160881b60448201526064015b60405180910390fd5b5f838152601060205260409020610ada82848361351d565b50505050565b6001600160a01b038216610b0957604051633250574960e11b81525f6004820152602401610ab9565b5f610b158383336123c0565b9050836001600160a01b0316816001600160a01b031614610ada576040516364283d7b60e01b81526001600160a01b0380861660048301526024820184905282166044820152606401610ab9565b6060610b6d61244d565b60145460ff16610bb25760405162461bcd60e51b815260206004820152601060248201526f73616c65206e6f74206163746976652160801b6044820152606401610ab9565b600d5460ff16610c0f5760405162461bcd60e51b815260206004820152602260248201527f5469636b65747320617265206e6f7420726561647920666f722073616c652079604482015261195d60f21b6064820152608401610ab9565b335f908152600f6020526040902054600390610c2c9084906135ea565b1115610c8d5760405162461bcd60e51b815260206004820152602a60248201527f457863656564207469636b657420627579206c696d6974207065722077616c6c604482015269657420286d617820332960b01b6064820152608401610ab9565b600c548310610ccd5760405162461bcd60e51b815260206004820152600c60248201526b24b73b30b634b2103a34b2b960a11b6044820152606401610ab9565b600b544210610d0d5760405162461bcd60e51b815260206004820152600c60248201526b115d995b9d0818db1bdcd95960a21b6044820152606401610ab9565b5f600c8481548110610d2157610d216135fd565b905f5260205f20906004020190508060020154838260030154610d4491906135ea565b1115610d825760405162461bcd60e51b815260206004820152600d60248201526c151a595c881cdbdb19081bdd5d609a1b6044820152606401610ab9565b5f838260010154610d939190613611565b905080341015610de55760405162461bcd60e51b815260206004820152601b60248201527f496e73756666696369656e74207061796d656e7420616d6f756e7400000000006044820152606401610ab9565b5f846001600160401b03811115610dfe57610dfe61307e565b604051908082528060200260200182016040528015610e27578160200160208202803683370190505b5090505f5b85811015610f9157600880545f9182610e4483613628565b919050559050610e543382612477565b6040518060a00160405280828152602001865f018054610e73906134a7565b80601f0160208091040260200160405190810160405280929190818152602001828054610e9f906134a7565b8015610eea5780601f10610ec157610100808354040283529160200191610eea565b820191905f5260205f20905b815481529060010190602001808311610ecd57829003601f168201915b50505050508152602001866001015481526020015f1515815260200142815250600e5f8381526020019081526020015f205f820151815f01556020820151816001019081610f389190613640565b5060408201516002820155606082015160038201805460ff191691151591909117905560809091015160049091015582518190849084908110610f7d57610f7d6135fd565b602090810291909101015250600101610e2c565b50335f908152600f6020526040902080548601905560038301805486019055610fb982612490565b8134111561104e575f33610fcd84346136fa565b6040515f81818185875af1925050503d805f8114611006576040519150601f19603f3d011682016040523d82523d5f602084013e61100b565b606091505b505090508061104c5760405162461bcd60e51b815260206004820152600d60248201526c1499599d5b990819985a5b1959609a1b6044820152606401610ab9565b505b336001600160a01b03167f2f1567a5cdd8f268028f0754bf885e128d2009dbed8c95bae5fe31550434679682888860405161108b9392919061370d565b60405180910390a2925050506108d66001600755565b6110a9612578565b6110b161244d565b47806110ea5760405162461bcd60e51b81526020600482015260086024820152674e6f2066756e647360c01b6044820152606401610ab9565b5f6110fd6006546001600160a01b031690565b6001600160a01b0316826040515f6040518083038185875af1925050503d805f8114611144576040519150601f19603f3d011682016040523d82523d5f602084013e611149565b606091505b505090508061118c5760405162461bcd60e51b815260206004820152600f60248201526e151c985b9cd9995c8819985a5b1959608a1b6044820152606401610ab9565b6006546001600160a01b03166001600160a01b03167f7084f5476618d8e60b11ef0d7d3f06914655adb8793e28ff7f018d4c76d505d5836040516111d291815260200190565b60405180910390a250506111e66001600755565b565b61120283838360405180602001604052805f815250612180565b505050565b61120f612578565b5f61121982611be3565b9050611224826125a5565b6001600160a01b0381165f908152600f602052604090205415611260576001600160a01b0381165f908152600f6020526040902080545f190190555b5f828152600e602052604081208181559061127e6001830182612c84565b505f6002820181905560038201805460ff19169055600490910181905560405183917fd6acdc6c4f4076335309cf5eeb3b91b03b26861765e0726fce70f4617de8c7c691a25050565b6112cf612578565b8281146113105760405162461bcd60e51b815260206004820152600f60248201526e098cadccee8d040dad2e6dac2e8c6d608b1b6044820152606401610ab9565b5f5b8381101561137d5782828281811061132c5761132c6135fd565b905060200281019061133e9190613731565b60105f888886818110611353576113536135fd565b9050602002013581526020019081526020015f20918261137492919061351d565b50600101611312565b5050505050565b6113ac6040518060800160405280606081526020015f81526020015f81526020015f81525090565b600c5482106113ec5760405162461bcd60e51b815260206004820152600c60248201526b24b73b30b634b2103a34b2b960a11b6044820152606401610ab9565b600c82815481106113ff576113ff6135fd565b905f5260205f2090600402016040518060800160405290815f82018054611425906134a7565b80601f0160208091040260200160405190810160405280929190818152602001828054611451906134a7565b801561149c5780601f106114735761010080835404028352916020019161149c565b820191905f5260205f20905b81548152906001019060200180831161147f57829003601f168201915b5050505050815260200160018201548152602001600282015481526020016003820154815250509050919050565b600e6020525f9081526040902080546001820180549192916114eb906134a7565b80601f0160208091040260200160405190810160405280929190818152602001828054611517906134a7565b80156115625780601f1061153957610100808354040283529160200191611562565b820191905f5260205f20905b81548152906001019060200180831161154557829003601f168201915b50505050600283015460038401546004909401549293909260ff909116915085565b5f5f60605f6060306001600160a01b0316636352211e876040518263ffffffff1660e01b81526004016115b991815260200190565b602060405180830381865afa9250505080156115f2575060408051601f3d908101601f191682019092526115ef91810190613773565b60015b611645575f5f5f60405180602001604052805f8152509060405180604001604052806014815260200173151bdad95b88191bd95cc81b9bdd08195e1a5cdd60621b81525094509450945094509450611863565b8094505f600e5f8981526020019081526020015f206040518060a00160405290815f820154815260200160018201805461167e906134a7565b80601f01602080910402602001604051908101604052809291908181526020018280546116aa906134a7565b80156116f55780601f106116cc576101008083540402835291602001916116f5565b820191905f5260205f20905b8154815290600101906020018083116116d857829003601f168201915b505050918352505060028201546020820152600382015460ff16151560408201526004909101546060918201528101519091501561176c575f86826020015160016040518060400160405280600c81526020016b105b1c9958591e481d5cd95960a21b815250965096509650965096505050611863565b62015180600b5461177d91906136fa565b4210156117d3575f8682602001515f6040518060400160405280601981526020017f546f6f206561726c79202d206e6f74206576656e742064617900000000000000815250965096509650965096505050611863565b600b546117e3906202a3006135ea565b42111561182f575f8682602001515f60405180604001604052806013815260200172115d995b9d08185b1c9958591e48195b991959606a1b815250965096509650965096505050611863565b60018682602001515f6040518060400160405280600581526020016415985b1a5960da1b8152509650965096509650965050505b91939590929450565b600a546001600160a01b031633146118c65760405162461bcd60e51b815260206004820152601a60248201527f4f6e6c7920666163746f72792063616e2063616c6c20746869730000000000006044820152606401610ab9565b600d5460ff16156119195760405162461bcd60e51b815260206004820152601b60248201527f5469657273206861766520616c7265616479206265656e2073657400000000006044820152606401610ab9565b5f5b815181101561199457600c828281518110611938576119386135fd565b60209081029190910181015182546001810184555f9384529190922082516004909202019081906119699082613640565b506020820151600180830191909155604083015160028301556060909201516003909101550161191b565b5050600d805460ff19166001179055565b6119ad612578565b6001600160a01b038116611a035760405162461bcd60e51b815260206004820152601860248201527f496e76616c696420666163746f727920616464726573732100000000000000006044820152606401610ab9565b600a80546001600160a01b038381166001600160a01b0319831681179093556040519116919082907ff36cf3b7f3187ed5217f19ea5137ed68a98983b4d678c78eb886fc378d2c13cf905f90a35050565b611a5c612578565b5f818152600e60205260409020600381015460ff1615611ab45760405162461bcd60e51b8152602060048201526013602482015272151a58dad95d08185b1c9958591e481d5cd959606a1b6044820152606401610ab9565b5f600b5461a8c0611ac591906135ea565b9050600b544210158015611ad95750804211155b611b255760405162461bcd60e51b815260206004820152601d60248201527f436865636b2d696e2077696e646f77206973206e6f74206163746976650000006044820152606401610ab9565b60038201805460ff19166001179055611b3d83611be3565b6001600160a01b0316837f4f9c6210874b14266ea0f64418a0f7403a875226eae9483f5d9cd7663234db9a42604051611b7891815260200190565b60405180910390a3505050565b5f611b8f8261237b565b505f828152600e602052604081206004015490819003611bb157505f92915050565b5f611bbf6202a300836135ea565b9050804210611bd157505f9392505050565b611bdb42826136fa565b949350505050565b5f6108d68261237b565b6060600c805480602002602001604051908101604052809291908181526020015f905b82821015611ced578382905f5260205f2090600402016040518060800160405290815f82018054611c40906134a7565b80601f0160208091040260200160405190810160405280929190818152602001828054611c6c906134a7565b8015611cb75780601f10611c8e57610100808354040283529160200191611cb7565b820191905f5260205f20905b815481529060010190602001808311611c9a57829003601f168201915b50505050508152602001600182015481526020016002820154815260200160038201548152505081526020019060010190611c10565b50505050905090565b5f611d096006546001600160a01b031690565b6001600160a01b031614611d555760405162461bcd60e51b8152602060048201526013602482015272105b1c9958591e481a5b9a5d1a585b1a5e9959606a1b6044820152606401610ab9565b611d5e876125dd565b600a80546001600160a01b0319166001600160a01b03881617905560098590556011611d8a8582613640565b506013611d978382613640565b50600b8190556012611da98482613640565b50506014805460ff19166001179055505050505050565b5f6001600160a01b038216611dea576040516322718ad960e21b81525f6004820152602401610ab9565b506001600160a01b03165f9081526003602052604090205490565b611e0d612578565b6111e65f6125dd565b611e1e612578565b611e2661244d565b6001600160a01b038116611e6e5760405162461bcd60e51b815260206004820152600f60248201526e496e76616c6964206164647265737360881b6044820152606401610ab9565b4780611ea75760405162461bcd60e51b81526020600482015260086024820152674e6f2066756e647360c01b6044820152606401610ab9565b5f826001600160a01b0316826040515f6040518083038185875af1925050503d805f8114611ef0576040519150601f19603f3d011682016040523d82523d5f602084013e611ef5565b606091505b5050905080611f385760405162461bcd60e51b815260206004820152600f60248201526e151c985b9cd9995c8819985a5b1959608a1b6044820152606401610ab9565b826001600160a01b03167f7084f5476618d8e60b11ef0d7d3f06914655adb8793e28ff7f018d4c76d505d583604051611f7391815260200190565b60405180910390a25050611f876001600755565b50565b60605f611f9683611dc0565b90505f816001600160401b03811115611fb157611fb161307e565b604051908082528060200260200182016040528015611fda578160200160208202803683370190505b5090505f805b60085481108015611ff057508382105b156120aa576040516331a9108f60e11b8152600481018290523090636352211e90602401602060405180830381865afa92505050801561204d575060408051601f3d908101601f1916820190925261204a91810190613773565b60015b1561209857866001600160a01b0316816001600160a01b0316036120965781848461207781613628565b955081518110612089576120896135fd565b6020026020010181815250505b505b806120a281613628565b915050611fe0565b5090949350505050565b601180546120c1906134a7565b80601f01602080910402602001604051908101604052809291908181526020018280546120ed906134a7565b80156121385780601f1061210f57610100808354040283529160200191612138565b820191905f5260205f20905b81548152906001019060200180831161211b57829003601f168201915b505050505081565b612148612578565b6014805461ff001916610100179055565b6060600180546109ab906134a7565b610a5e33838361262e565b601280546120c1906134a7565b61218b848484610ae0565b610ada33858585856126c4565b60606121a38261237b565b505f82815260106020526040812080546121bc906134a7565b80601f01602080910402602001604051908101604052809291908181526020018280546121e8906134a7565b80156122335780601f1061220a57610100808354040283529160200191612233565b820191905f5260205f20905b81548152906001019060200180831161221657829003601f168201915b505050505090505f815111156122495792915050565b612252836127eb565b60405160200161226291906137a5565b604051602081830303815290604052915050919050565b5f80805b600c548110156122bf57600c818154811061229a5761229a6135fd565b905f5260205f20906004020160020154826122b591906135ea565b915060010161227d565b50919050565b601380546120c1906134a7565b6001600160a01b039182165f90815260056020908152604080832093909416825291909152205460ff1690565b612307612578565b6001600160a01b03811661233057604051631e4fbdf760e01b81525f6004820152602401610ab9565b611f87816125dd565b5f6123438261237b565b505f828152600e60205260408120600401549081900361236557505f92915050565b6123726202a300826135ea565b42109392505050565b5f818152600260205260408120546001600160a01b0316806108d657604051637e27328960e01b815260048101849052602401610ab9565b611202838383600161287a565b5f828152600260205260408120546001600160a01b031680158015906123ee57506001600160a01b03851615155b15612439576123fc84612339565b156124395760405162461bcd60e51b815260206004820152600d60248201526c546f6b656e206c6f636b65642160981b6044820152606401610ab9565b61244485858561297e565b95945050505050565b60026007540361247057604051633ee5aeb560e01b815260040160405180910390fd5b6002600755565b610a5e828260405180602001604052805f815250612a70565b600a546009546040515f926001600160a01b0316916124bc918590602401918252602082015260400190565b60408051601f198184030181529181526020820180516001600160e01b0316630dc19f8360e11b179052516124f191906137c0565b5f604051808303815f865af19150503d805f811461252a576040519150601f19603f3d011682016040523d82523d5f602084013e61252f565b606091505b5050905080610a5e5760405162461bcd60e51b815260206004820152601560248201527414995d995b9d59481c9958dbdc990819985a5b1959605a1b6044820152606401610ab9565b6006546001600160a01b031633146111e65760405163118cdaa760e01b8152336004820152602401610ab9565b5f6125b15f835f6123c0565b90506001600160a01b038116610a5e57604051637e27328960e01b815260048101839052602401610ab9565b600680546001600160a01b038381166001600160a01b0319831681179093556040519116919082907f8be0079c531659141344cd1fd0a4f28419497f9722a3daafe3b4186f6b6457e0905f90a35050565b6001600160a01b03821661266057604051630b61174360e31b81526001600160a01b0383166004820152602401610ab9565b6001600160a01b038381165f81815260056020908152604080832094871680845294825291829020805460ff191686151590811790915591519182527f17307eab39ab6107e8899845ad3d59bd9653f200f220920489ca2b5937696c319101611b78565b6001600160a01b0383163b1561137d57604051630a85bd0160e11b81526001600160a01b0384169063150b7a02906127069088908890879087906004016137cb565b6020604051808303815f875af1925050508015612740575060408051601f3d908101601f1916820190925261273d91810190613807565b60015b6127a7573d80801561276d576040519150601f19603f3d011682016040523d82523d5f602084013e612772565b606091505b5080515f0361279f57604051633250574960e11b81526001600160a01b0385166004820152602401610ab9565b805160208201fd5b6001600160e01b03198116630a85bd0160e11b146127e357604051633250574960e11b81526001600160a01b0385166004820152602401610ab9565b505050505050565b60605f6127f783612a87565b60010190505f816001600160401b038111156128155761281561307e565b6040519080825280601f01601f19166020018201604052801561283f576020820181803683370190505b5090508181016020015b5f19016f181899199a1a9b1b9c1cb0b131b232b360811b600a86061a8153600a850494508461284957509392505050565b808061288e57506001600160a01b03821615155b1561294f575f61289d8461237b565b90506001600160a01b038316158015906128c95750826001600160a01b0316816001600160a01b031614155b80156128dc57506128da81846122d2565b155b156129055760405163a9fbf51f60e01b81526001600160a01b0384166004820152602401610ab9565b811561294d5783856001600160a01b0316826001600160a01b03167f8c5be1e5ebec7d5bd14f71427d1e84f3dd0314c0f7b2291e5b200ac8c7c3b92560405160405180910390a45b505b50505f90815260046020526040902080546001600160a01b0319166001600160a01b0392909216919091179055565b5f828152600260205260408120546001600160a01b03908116908316156129aa576129aa818486612b5e565b6001600160a01b038116156129e4576129c55f855f5f61287a565b6001600160a01b0381165f90815260036020526040902080545f190190555b6001600160a01b03851615612a12576001600160a01b0385165f908152600360205260409020805460010190555b5f8481526002602052604080822080546001600160a01b0319166001600160a01b0389811691821790925591518793918516917fddf252ad1be2c89b69c2b068fc378daa952ba7f163c4a11628f55a4df523b3ef91a4949350505050565b612a7a8383612bc2565b611202335f8585856126c4565b5f8072184f03e93ff9f4daa797ed6e38ed64bf6a1f0160401b8310612ac55772184f03e93ff9f4daa797ed6e38ed64bf6a1f0160401b830492506040015b6d04ee2d6d415b85acef81000000008310612af1576d04ee2d6d415b85acef8100000000830492506020015b662386f26fc100008310612b0f57662386f26fc10000830492506010015b6305f5e1008310612b27576305f5e100830492506008015b6127108310612b3b57612710830492506004015b60648310612b4d576064830492506002015b600a83106108d65760010192915050565b612b69838383612c23565b611202576001600160a01b038316612b9757604051637e27328960e01b815260048101829052602401610ab9565b60405163177e802f60e01b81526001600160a01b038316600482015260248101829052604401610ab9565b6001600160a01b038216612beb57604051633250574960e11b81525f6004820152602401610ab9565b5f612bf783835f6123c0565b90506001600160a01b03811615611202576040516339e3563760e11b81525f6004820152602401610ab9565b5f6001600160a01b03831615801590611bdb5750826001600160a01b0316846001600160a01b03161480612c5c5750612c5c84846122d2565b80611bdb5750505f908152600460205260409020546001600160a01b03908116911614919050565b508054612c90906134a7565b5f825580601f10612c9f575050565b601f0160209004905f5260205f2090810190611f8791905b80821115612cca575f8155600101612cb7565b5090565b6001600160e01b031981168114611f87575f5ffd5b5f60208284031215612cf3575f5ffd5b8135612cfe81612cce565b9392505050565b5f60208284031215612d15575f5ffd5b5035919050565b5f81518084528060208401602086015e5f602082860101526020601f19601f83011685010191505092915050565b608081525f612d5c6080830187612d1c565b6020830195909552506040810192909252606090910152919050565b602081525f612cfe6020830184612d1c565b6001600160a01b0381168114611f87575f5ffd5b8035612da981612d8a565b919050565b5f5f60408385031215612dbf575f5ffd5b8235612dca81612d8a565b946020939093013593505050565b5f5f5f60408486031215612dea575f5ffd5b8335925060208401356001600160401b03811115612e06575f5ffd5b8401601f81018613612e16575f5ffd5b80356001600160401b03811115612e2b575f5ffd5b866020828401011115612e3c575f5ffd5b939660209190910195509293505050565b5f5f5f60608486031215612e5f575f5ffd5b8335612e6a81612d8a565b92506020840135612e7a81612d8a565b929592945050506040919091013590565b5f5f60408385031215612e9c575f5ffd5b50508035926020909101359150565b5f8151808452602084019350602083015f5b82811015612edb578151865260209586019590910190600101612ebd565b5093949350505050565b602081525f612cfe6020830184612eab565b5f5f83601f840112612f07575f5ffd5b5081356001600160401b03811115612f1d575f5ffd5b6020830191508360208260051b8501011115612f37575f5ffd5b9250929050565b5f5f5f5f60408587031215612f51575f5ffd5b84356001600160401b03811115612f66575f5ffd5b612f7287828801612ef7565b90955093505060208501356001600160401b03811115612f90575f5ffd5b612f9c87828801612ef7565b95989497509550505050565b5f815160808452612fbc6080850182612d1c565b90506020830151602085015260408301516040850152606083015160608501528091505092915050565b602081525f612cfe6020830184612fa8565b85815260a060208201525f61301060a0830187612d1c565b604083019590955250911515606083015260809091015292915050565b85151581526001600160a01b038516602082015260a0604082018190525f9061305890830186612d1c565b841515606084015282810360808401526130728185612d1c565b98975050505050505050565b634e487b7160e01b5f52604160045260245ffd5b604051608081016001600160401b03811182821017156130b4576130b461307e565b60405290565b604051601f8201601f191681016001600160401b03811182821017156130e2576130e261307e565b604052919050565b5f5f6001600160401b038411156131035761310361307e565b50601f8301601f1916602001613118816130ba565b91505082815283838301111561312c575f5ffd5b828260208301375f602084830101529392505050565b5f82601f830112613151575f5ffd5b612cfe838335602085016130ea565b5f60208284031215613170575f5ffd5b81356001600160401b03811115613185575f5ffd5b8201601f81018413613195575f5ffd5b80356001600160401b038111156131ae576131ae61307e565b8060051b6131be602082016130ba565b918252602081840181019290810190878411156131d9575f5ffd5b6020850192505b8383101561327a5782356001600160401b038111156131fd575f5ffd5b85016080818a03601f19011215613212575f5ffd5b61321a613092565b60208201356001600160401b03811115613232575f5ffd5b6132418b602083860101613142565b825250604082810135602080840191909152606080850135928401929092526080909301359082015283529283019291909101906131e0565b979650505050505050565b5f60208284031215613295575f5ffd5b8135612cfe81612d8a565b5f602082016020835280845180835260408501915060408160051b8601019250602086015f5b828110156132f757603f198786030184526132e2858351612fa8565b945060209384019391909101906001016132c6565b50929695505050505050565b5f5f5f5f5f5f5f60e0888a031215613319575f5ffd5b873561332481612d8a565b965061333260208901612d9e565b95506040880135945060608801356001600160401b03811115613353575f5ffd5b61335f8a828b01613142565b94505060808801356001600160401b0381111561337a575f5ffd5b6133868a828b01613142565b93505060a08801356001600160401b038111156133a1575f5ffd5b6133ad8a828b01613142565b979a969950949793969295929450505060c09091013590565b5f5f604083850312156133d7575f5ffd5b82356133e281612d8a565b9150602083013580151581146133f6575f5ffd5b809150509250929050565b5f5f5f5f60808587031215613414575f5ffd5b843561341f81612d8a565b9350602085013561342f81612d8a565b92506040850135915060608501356001600160401b03811115613450575f5ffd5b8501601f81018713613460575f5ffd5b61346f878235602084016130ea565b91505092959194509250565b5f5f6040838503121561348c575f5ffd5b823561349781612d8a565b915060208301356133f681612d8a565b600181811c908216806134bb57607f821691505b6020821081036122bf57634e487b7160e01b5f52602260045260245ffd5b601f82111561120257805f5260205f20601f840160051c810160208510156134fe5750805b601f840160051c820191505b8181101561137d575f815560010161350a565b6001600160401b038311156135345761353461307e565b6135488361354283546134a7565b836134d9565b5f601f841160018114613579575f85156135625750838201355b5f19600387901b1c1916600186901b17835561137d565b5f83815260208120601f198716915b828110156135a85786850135825560209485019460019092019101613588565b50868210156135c4575f1960f88860031b161c19848701351681555b505060018560011b0183555050505050565b634e487b7160e01b5f52601160045260245ffd5b808201808211156108d6576108d66135d6565b634e487b7160e01b5f52603260045260245ffd5b80820281158282048414176108d6576108d66135d6565b5f60018201613639576136396135d6565b5060010190565b81516001600160401b038111156136595761365961307e565b61366d8161366784546134a7565b846134d9565b6020601f82116001811461369f575f83156136885750848201515b5f19600385901b1c1916600184901b17845561137d565b5f84815260208120601f198516915b828110156136ce57878501518255602094850194600190920191016136ae565b50848210156136eb57868401515f19600387901b60f8161c191681555b50505050600190811b01905550565b818103818111156108d6576108d66135d6565b606081525f61371f6060830186612eab565b60208301949094525060400152919050565b5f5f8335601e19843603018112613746575f5ffd5b8301803591506001600160401b0382111561375f575f5ffd5b602001915036819003821315612f37575f5ffd5b5f60208284031215613783575f5ffd5b8151612cfe81612d8a565b5f81518060208401855e5f93019283525090919050565b66697066733a2f2f60c81b81525f612cfe600783018461378e565b5f612cfe828461378e565b6001600160a01b03858116825284166020820152604081018390526080606082018190525f906137fd90830184612d1c565b9695505050505050565b5f60208284031215613817575f5ffd5b8151612cfe81612cce56fea264697066735822122018c7cb7408db37c72ee2cd2e2086aadefebadab473b1ef4da4ec91d5b8b0750664736f6c634300081c0033",
  "linkReferences": {},
  "deployedLinkReferences": {},
  "immutableReferences": {},
  "inputSourceName": "project/contracts/TicketNFT.sol",
  "buildInfoId": "solc-0_8_28-0dd8f9cd17df046efc8f1e5cb728bb7f30af678b"
}