{
  "_format": "hh3-artifact-1",
  "contractName": "EventFactory",
  "sourceName": "contracts/EventFactory.sol",
  "abi": [
    {
      "inputs": [
        {
          "internalType": "address",
          "name": "_ticketImplementation",
          "type": "address"
        }
      ],
      "stateMutability": "nonpayable",
      "type": "constructor"
    },
    {
      "inputs": [],
      "name": "FailedDeployment",
      "type": "error"
    },
    {
      "inputs": [
        {
          "internalType": "uint256",
          "name": "balance",
          "type": "uint256"
        },
        {
          "internalType": "uint256",
          "name": "needed",
          "type": "uint256"
        }
      ],
      "name": "InsufficientBalance",
      "type": "error"
    },
    {
      "anonymous": false,
      "inputs": [
        {
          "indexed": true,
          "internalType": "uint256",
          "name": "eventId",
          "type": "uint256"
        },
        {
          "indexed": true,
          "internalType": "string",
          "name": "eventName",
          "type": "string"
        },
        {
          "indexed": true,
          "internalType": "address",
          "name": "eventOrganizer",
          "type": "address"
        },
        {
          "indexed": false,
          "internalType": "uint256",
          "name": "date",
          "type": "uint256"
        },
        {
          "indexed": false,
          "internalType": "address",
          "name": "ticketContract",
          "type": "address"
        }
      ],
      "name": "EventCreated",
      "type": "event"
    },
    {
      "anonymous": false,
      "inputs": [
        {
          "indexed": true,
          "internalType": "uint256",
          "name": "eventId",
          "type": "uint256"
        },
        {
          "indexed": true,
          "internalType": "string",
          "name": "eventName",
          "type": "string"
        }
      ],
      "name": "EventUpdated",
      "type": "event"
    },
    {
      "inputs": [
        {
          "components": [
            {
              "internalType": "string",
              "name": "name",
              "type": "string"
            },
            {
              "internalType": "string",
              "name": "desc",
              "type": "string"
            },
            {
              "internalType": "string",
              "name": "imageURI",
              "type": "string"
            },
            {
              "internalType": "uint256",
              "name": "date",
              "type": "uint256"
            },
            {
              "internalType": "string",
              "name": "venue",
              "type": "string"
            },
            {
              "internalType": "uint256",
              "name": "maxParticipant",
              "type": "uint256"
            },
            {
              "internalType": "uint256",
              "name": "deadline",
              "type": "uint256"
            },
            {
              "components": [
                {
                  "internalType": "string",
                  "name": "name",
                  "type": "string"
                },
                {
                  "internalType": "uint256",
                  "name": "price",
                  "type": "uint256"
                },
                {
                  "internalType": "uint256",
                  "name": "maxSupply",
                  "type": "uint256"
                },
                {
                  "internalType": "uint256",
                  "name": "sold",
                  "type": "uint256"
                }
              ],
              "internalType": "struct TicketNFT.TicketTier[]",
              "name": "tiers",
              "type": "tuple[]"
            }
          ],
          "internalType": "struct EventFactory.CreateEventParams",
          "name": "params",
          "type": "tuple"
        }
      ],
      "name": "createEvent",
      "outputs": [
        {
          "internalType": "uint256",
          "name": "eventId",
          "type": "uint256"
        }
      ],
      "stateMutability": "nonpayable",
      "type": "function"
    },
    {
      "inputs": [
        {
          "internalType": "uint256",
          "name": "",
          "type": "uint256"
        }
      ],
      "name": "events",
      "outputs": [
        {
          "internalType": "uint256",
          "name": "id",
          "type": "uint256"
        },
        {
          "internalType": "string",
          "name": "name",
          "type": "string"
        },
        {
          "internalType": "string",
          "name": "desc",
          "type": "string"
        },
        {
          "internalType": "string",
          "name": "imageURI",
          "type": "string"
        },
        {
          "internalType": "uint256",
          "name": "date",
          "type": "uint256"
        },
        {
          "internalType": "string",
          "name": "venue",
          "type": "string"
        },
        {
          "internalType": "address",
          "name": "organizer",
          "type": "address"
        },
        {
          "internalType": "uint256",
          "name": "maxParticipant",
          "type": "uint256"
        },
        {
          "internalType": "uint256",
          "name": "deadline",
          "type": "uint256"
        },
        {
          "internalType": "uint256",
          "name": "totalRevenue",
          "type": "uint256"
        },
        {
          "internalType": "bool",
          "name": "active",
          "type": "bool"
        },
        {
          "internalType": "address",
          "name": "ticketContract",
          "type": "address"
        }
      ],
      "stateMutability": "view",
      "type": "function"
    },
    {
      "inputs": [],
      "name": "getActiveEvents",
      "outputs": [
        {
          "components": [
            {
              "internalType": "uint256",
              "name": "id",
              "type": "uint256"
            },
            {
              "internalType": "string",
              "name": "name",
              "type": "string"
            },
            {
              "internalType": "string",
              "name": "desc",
              "type": "string"
            },
            {
              "internalType": "string",
              "name": "imageURI",
              "type": "string"
            },
            {
              "internalType": "uint256",
              "name": "date",
              "type": "uint256"
            },
            {
              "internalType": "string",
              "name": "venue",
              "type": "string"
            },
            {
              "internalType": "address",
              "name": "organizer",
              "type": "address"
            },
            {
              "internalType": "uint256",
              "name": "maxParticipant",
              "type": "uint256"
            },
            {
              "internalType": "uint256",
              "name": "deadline",
              "type": "uint256"
            },
            {
              "internalType": "uint256",
              "name": "totalRevenue",
              "type": "uint256"
            },
            {
              "internalType": "bool",
              "name": "active",
              "type": "bool"
            },
            {
              "internalType": "address",
              "name": "ticketContract",
              "type": "address"
            }
          ],
          "internalType": "struct EventFactory.Event[]",
          "name": "",
          "type": "tuple[]"
        }
      ],
      "stateMutability": "view",
      "type": "function"
    },
    {
      "inputs": [],
      "name": "getAllEvents",
      "outputs": [
        {
          "components": [
            {
              "internalType": "uint256",
              "name": "id",
              "type": "uint256"
            },
            {
              "internalType": "string",
              "name": "name",
              "type": "string"
            },
            {
              "internalType": "string",
              "name": "desc",
              "type": "string"
            },
            {
              "internalType": "string",
              "name": "imageURI",
              "type": "string"
            },
            {
              "internalType": "uint256",
              "name": "date",
              "type": "uint256"
            },
            {
              "internalType": "string",
              "name": "venue",
              "type": "string"
            },
            {
              "internalType": "address",
              "name": "organizer",
              "type": "address"
            },
            {
              "internalType": "uint256",
              "name": "maxParticipant",
              "type": "uint256"
            },
            {
              "internalType": "uint256",
              "name": "deadline",
              "type": "uint256"
            },
            {
              "internalType": "uint256",
              "name": "totalRevenue",
              "type": "uint256"
            },
            {
              "internalType": "bool",
              "name": "active",
              "type": "bool"
            },
            {
              "internalType": "address",
              "name": "ticketContract",
              "type": "address"
            }
          ],
          "internalType": "struct EventFactory.Event[]",
          "name": "",
          "type": "tuple[]"
        }
      ],
      "stateMutability": "view",
      "type": "function"
    },
    {
      "inputs": [
        {
          "internalType": "address",
          "name": "_organizer",
          "type": "address"
        }
      ],
      "name": "getEventsByOrganizer",
      "outputs": [
        {
          "components": [
            {
              "internalType": "uint256",
              "name": "id",
              "type": "uint256"
            },
            {
              "internalType": "string",
              "name": "name",
              "type": "string"
            },
            {
              "internalType": "string",
              "name": "desc",
              "type": "string"
            },
            {
              "internalType": "string",
              "name": "imageURI",
              "type": "string"
            },
            {
              "internalType": "uint256",
              "name": "date",
              "type": "uint256"
            },
            {
              "internalType": "string",
              "name": "venue",
              "type": "string"
            },
            {
              "internalType": "address",
              "name": "organizer",
              "type": "address"
            },
            {
              "internalType": "uint256",
              "name": "maxParticipant",
              "type": "uint256"
            },
            {
              "internalType": "uint256",
              "name": "deadline",
              "type": "uint256"
            },
            {
              "internalType": "uint256",
              "name": "totalRevenue",
              "type": "uint256"
            },
            {
              "internalType": "bool",
              "name": "active",
              "type": "bool"
            },
            {
              "internalType": "address",
              "name": "ticketContract",
              "type": "address"
            }
          ],
          "internalType": "struct EventFactory.Event[]",
          "name": "",
          "type": "tuple[]"
        }
      ],
      "stateMutability": "view",
      "type": "function"
    },
    {
      "inputs": [
        {
          "internalType": "uint256",
          "name": "_eventId",
          "type": "uint256"
        }
      ],
      "name": "isEventActive",
      "outputs": [
        {
          "internalType": "bool",
          "name": "",
          "type": "bool"
        }
      ],
      "stateMutability": "view",
      "type": "function"
    },
    {
      "inputs": [
        {
          "internalType": "address",
          "name": "",
          "type": "address"
        },
        {
          "internalType": "uint256",
          "name": "",
          "type": "uint256"
        }
      ],
      "name": "organizerEvents",
      "outputs": [
        {
          "internalType": "uint256",
          "name": "",
          "type": "uint256"
        }
      ],
      "stateMutability": "view",
      "type": "function"
    },
    {
      "inputs": [
        {
          "internalType": "uint256",
          "name": "_eventId",
          "type": "uint256"
        },
        {
          "internalType": "uint256",
          "name": "_amount",
          "type": "uint256"
        }
      ],
      "name": "recordRevenue",
      "outputs": [],
      "stateMutability": "nonpayable",
      "type": "function"
    },
    {
      "inputs": [
        {
          "internalType": "uint256",
          "name": "_eventId",
          "type": "uint256"
        },
        {
          "internalType": "address",
          "name": "_ticketContract",
          "type": "address"
        }
      ],
      "name": "setTicketContract",
      "outputs": [],
      "stateMutability": "nonpayable",
      "type": "function"
    },
    {
      "inputs": [],
      "name": "ticketImplementation",
      "outputs": [
        {
          "internalType": "address",
          "name": "",
          "type": "address"
        }
      ],
      "stateMutability": "view",
      "type": "function"
    },
    {
      "inputs": [
        {
          "internalType": "uint256",
          "name": "_eventId",
          "type": "uint256"
        },
        {
          "internalType": "string",
          "name": "_name",
          "type": "string"
        },
        {
          "internalType": "string",
          "name": "_desc",
          "type": "string"
        },
        {
          "internalType": "string",
          "name": "_imageURI",
          "type": "string"
        }
      ],
      "name": "updateEvent",
      "outputs": [],
      "stateMutability": "nonpayable",
      "type": "function"
    }
  ],
  "bytecode": "0x60a0604052348015600e575f5ffd5b50604051612818380380612818833981016040819052602b91603b565b6001600160a01b03166080526066565b5f60208284031215604a575f5ffd5b81516001600160a01b0381168114605f575f5ffd5b9392505050565b6080516127936100855f395f81816101410152610d7701526127935ff3fe608060405234801561000f575f5ffd5b50600436106100a6575f3560e01c80633a72eeab1161006e5780633a72eeab1461013c5780639f6271c31461017b578063c27a500d1461018e578063c32c2e0b14610196578063dc4a440d146101b9578063e4aa47e3146101cc575f5ffd5b806303f81607146100aa5780630b791430146100bf5780631b833f06146100f35780633612280f146101065780633a120d8d1461011b575b5f5ffd5b6100bd6100b8366004611f79565b6101df565b005b6100d26100cd366004612011565b6103a8565b6040516100ea9c9b9a99989796959493929190612056565b60405180910390f35b6100bd610101366004612109565b61063b565b61010e610728565b6040516100ea9190612129565b61012e61012936600461226e565b610b6e565b6040519081526020016100ea565b6101637f000000000000000000000000000000000000000000000000000000000000000081565b6040516001600160a01b0390911681526020016100ea565b61010e6101893660046122c8565b6111f2565b61010e6115d2565b6101a96101a4366004612011565b6118d5565b60405190151581526020016100ea565b6100bd6101c73660046122e1565b611bf9565b61012e6101da36600461230b565b611d9d565b83336001600160a01b03165f82815481106101fc576101fc612333565b5f91825260209091206006600b9092020101546001600160a01b03161461023e5760405162461bcd60e51b815260040161023590612347565b60405180910390fd5b5f8451116102845760405162461bcd60e51b8152602060048201526013602482015272496e76616c6964206e616d652075706461746560681b6044820152606401610235565b600a8351116102d55760405162461bcd60e51b815260206004820152601a60248201527f496e76616c6964206465736372697074696f6e207570646174650000000000006044820152606401610235565b835f86815481106102e8576102e8612333565b905f5260205f2090600b02016001019081610303919061240d565b50825f868154811061031757610317612333565b905f5260205f2090600b02016002019081610332919061240d565b50815f868154811061034657610346612333565b905f5260205f2090600b02016003019081610361919061240d565b508360405161037091906124c8565b6040519081900381209086907f0c21d47f606573d65eedb6ee084e32d784cfcd5ce32240b22f19de37d6b40969905f90a35050505050565b5f81815481106103b6575f80fd5b5f9182526020909120600b909102018054600182018054919350906103da9061238f565b80601f01602080910402602001604051908101604052809291908181526020018280546104069061238f565b80156104515780601f1061042857610100808354040283529160200191610451565b820191905f5260205f20905b81548152906001019060200180831161043457829003601f168201915b5050505050908060020180546104669061238f565b80601f01602080910402602001604051908101604052809291908181526020018280546104929061238f565b80156104dd5780601f106104b4576101008083540402835291602001916104dd565b820191905f5260205f20905b8154815290600101906020018083116104c057829003601f168201915b5050505050908060030180546104f29061238f565b80601f016020809104026020016040519081016040528092919081815260200182805461051e9061238f565b80156105695780601f1061054057610100808354040283529160200191610569565b820191905f5260205f20905b81548152906001019060200180831161054c57829003601f168201915b5050505050908060040154908060050180546105849061238f565b80601f01602080910402602001604051908101604052809291908181526020018280546105b09061238f565b80156105fb5780601f106105d2576101008083540402835291602001916105fb565b820191905f5260205f20905b8154815290600101906020018083116105de57829003601f168201915b5050506006840154600785015460088601546009870154600a9097015495966001600160a01b03938416969295509093509160ff8216916101009004168c565b5f548290811061065d5760405162461bcd60e51b8152600401610235906124de565b5f838154811061066f5761066f612333565b5f9182526020909120600b90910201600a015461010090046001600160a01b031633146106ee5760405162461bcd60e51b815260206004820152602760248201527f4f6e6c79207469636b657420636f6e74726163742063616e207265636f726420604482015266726576656e756560c81b6064820152608401610235565b815f848154811061070157610701612333565b905f5260205f2090600b02016009015f82825461071e919061251c565b9091555050505050565b60605f805b5f548110156107a5575f818154811061074857610748612333565b5f9182526020909120600a600b90920201015460ff16801561078a57505f818154811061077757610777612333565b905f5260205f2090600b02016008015442105b1561079d57816107998161252f565b9250505b60010161072d565b505f8167ffffffffffffffff8111156107c0576107c0611eda565b6040519080825280602002602001820160405280156107f957816020015b6107e6611e6d565b8152602001906001900390816107de5790505b5090505f805b5f54811015610b65575f818154811061081a5761081a612333565b5f9182526020909120600a600b90920201015460ff16801561085c57505f818154811061084957610849612333565b905f5260205f2090600b02016008015442105b15610b5d575f818154811061087357610873612333565b905f5260205f2090600b0201604051806101800160405290815f82015481526020016001820180546108a49061238f565b80601f01602080910402602001604051908101604052809291908181526020018280546108d09061238f565b801561091b5780601f106108f25761010080835404028352916020019161091b565b820191905f5260205f20905b8154815290600101906020018083116108fe57829003601f168201915b505050505081526020016002820180546109349061238f565b80601f01602080910402602001604051908101604052809291908181526020018280546109609061238f565b80156109ab5780601f10610982576101008083540402835291602001916109ab565b820191905f5260205f20905b81548152906001019060200180831161098e57829003601f168201915b505050505081526020016003820180546109c49061238f565b80601f01602080910402602001604051908101604052809291908181526020018280546109f09061238f565b8015610a3b5780601f10610a1257610100808354040283529160200191610a3b565b820191905f5260205f20905b815481529060010190602001808311610a1e57829003601f168201915b5050505050815260200160048201548152602001600582018054610a5e9061238f565b80601f0160208091040260200160405190810160405280929190818152602001828054610a8a9061238f565b8015610ad55780601f10610aac57610100808354040283529160200191610ad5565b820191905f5260205f20905b815481529060010190602001808311610ab857829003601f168201915b505050918352505060068201546001600160a01b039081166020830152600783015460408301526008830154606083015260098301546080830152600a9092015460ff8116151560a0830152610100900490911660c0909101528351849084908110610b4357610b43612333565b60200260200101819052508180610b599061252f565b9250505b6001016107ff565b50909392505050565b5f80610b7a8380612547565b905011610bbf5760405162461bcd60e51b8152602060048201526013602482015272496e76616c6964204576656e74204e616d652160681b6044820152606401610235565b600a610bce6020840184612547565b905011610c305760405162461bcd60e51b815260206004820152602a60248201527f4576656e74204465736372697074696f6e206d757374206d6f7265207468616e6044820152692031302063686172732160b01b6064820152608401610235565b6003610c3f6080840184612547565b905011610c855760405162461bcd60e51b8152602060048201526014602482015273496e76616c6964204576656e742056656e75652160601b6044820152606401610235565b42826060013511610cce5760405162461bcd60e51b8152602060048201526013602482015272496e76616c6964204576656e7420646174652160681b6044820152606401610235565b5f8260a0013511610d215760405162461bcd60e51b815260206004820152601860248201527f496e76616c6964206d6178207061727469636970616e742100000000000000006044820152606401610235565b81606001358260c0013510610d715760405162461bcd60e51b8152602060048201526016602482015275496e76616c6964204576656e7420646561646c696e6560501b6044820152606401610235565b5f610d9b7f0000000000000000000000000000000000000000000000000000000000000000611dc8565b60025490915081906001600160a01b0382169063667027109033903090610dc28980612547565b610dcf60208c018c612547565b610ddc60808e018e612547565b8e606001356040518b63ffffffff1660e01b8152600401610e069a999897969594939291906125b9565b5f604051808303815f87803b158015610e1d575f5ffd5b505af1158015610e2f573d5f5f3e3d5ffd5b5050506001600160a01b0382169050635575027a610e5060e087018761262c565b6040518363ffffffff1660e01b8152600401610e6d929190612672565b5f604051808303815f87803b158015610e84575f5ffd5b505af1158015610e96573d5f5f3e3d5ffd5b505060408051610180810190915260025481525f9250905060208101610ebc8780612547565b8080601f0160208091040260200160405190810160405280939291908181526020018383808284375f92019190915250505090825250602090810190610f0490880188612547565b8080601f0160208091040260200160405190810160405280939291908181526020018383808284375f92019190915250505090825250602001610f4a6040880188612547565b8080601f0160208091040260200160405190810160405280939291908181526020018383808284375f9201919091525050509082525060608701356020820152604001610f9a6080880188612547565b8080601f0160208091040260200160405190810160405280939291908181526020018383808284375f92018290525093855250503360208085019190915260a0808b0135604086015260c0808c013560608701526080860185905260019186018290526001600160a01b038a1695019490945282549384018355918052508251600b9092027f290decd9548b62a8d60345a988386fc84ba6bc95484008f6362f93160ef3e56381019283559083015192935083927f290decd9548b62a8d60345a988386fc84ba6bc95484008f6362f93160ef3e5649091019061107d908261240d565b5060408201516002820190611092908261240d565b50606082015160038201906110a7908261240d565b506080820151600482015560a082015160058201906110c6908261240d565b5060c08201516006820180546001600160a01b0319166001600160a01b0392831617905560e083015160078301556101008084015160088401556101208401516009840155610140840151600a9093018054610160909501516001600160a81b0319909516931515610100600160a81b031916939093179390911602919091179055335f818152600160208181526040832060025481549384018255908452922001556111738680612547565b60405161118192919061274e565b6040805191829003822060025460608a013584526001600160a01b0388166020850152909290917f90664dbc30d785e00b626f5a1c4416a8bec03bc3fc911a0b792282e0c5af3a21910160405180910390a460028054945084905f6111e58361252f565b9190505550505050919050565b6001600160a01b0381165f90815260016020908152604080832080548251818502810185019093528083526060949383018282801561124e57602002820191905f5260205f20905b81548152602001906001019080831161123a575b505050505090505f815167ffffffffffffffff81111561127057611270611eda565b6040519080825280602002602001820160405280156112a957816020015b611296611e6d565b81526020019060019003908161128e5790505b5090505f5b82518110156115ca575f8382815181106112ca576112ca612333565b602002602001015190505f81815481106112e6576112e6612333565b905f5260205f2090600b0201604051806101800160405290815f82015481526020016001820180546113179061238f565b80601f01602080910402602001604051908101604052809291908181526020018280546113439061238f565b801561138e5780601f106113655761010080835404028352916020019161138e565b820191905f5260205f20905b81548152906001019060200180831161137157829003601f168201915b505050505081526020016002820180546113a79061238f565b80601f01602080910402602001604051908101604052809291908181526020018280546113d39061238f565b801561141e5780601f106113f55761010080835404028352916020019161141e565b820191905f5260205f20905b81548152906001019060200180831161140157829003601f168201915b505050505081526020016003820180546114379061238f565b80601f01602080910402602001604051908101604052809291908181526020018280546114639061238f565b80156114ae5780601f10611485576101008083540402835291602001916114ae565b820191905f5260205f20905b81548152906001019060200180831161149157829003601f168201915b50505050508152602001600482015481526020016005820180546114d19061238f565b80601f01602080910402602001604051908101604052809291908181526020018280546114fd9061238f565b80156115485780601f1061151f57610100808354040283529160200191611548565b820191905f5260205f20905b81548152906001019060200180831161152b57829003601f168201915b505050918352505060068201546001600160a01b039081166020830152600783015460408301526008830154606083015260098301546080830152600a9092015460ff8116151560a0830152610100900490911660c09091015283518490849081106115b6576115b6612333565b6020908102919091010152506001016112ae565b509392505050565b60605f805480602002602001604051908101604052809291908181526020015f905b828210156118cc578382905f5260205f2090600b0201604051806101800160405290815f820154815260200160018201805461162f9061238f565b80601f016020809104026020016040519081016040528092919081815260200182805461165b9061238f565b80156116a65780601f1061167d576101008083540402835291602001916116a6565b820191905f5260205f20905b81548152906001019060200180831161168957829003601f168201915b505050505081526020016002820180546116bf9061238f565b80601f01602080910402602001604051908101604052809291908181526020018280546116eb9061238f565b80156117365780601f1061170d57610100808354040283529160200191611736565b820191905f5260205f20905b81548152906001019060200180831161171957829003601f168201915b5050505050815260200160038201805461174f9061238f565b80601f016020809104026020016040519081016040528092919081815260200182805461177b9061238f565b80156117c65780601f1061179d576101008083540402835291602001916117c6565b820191905f5260205f20905b8154815290600101906020018083116117a957829003601f168201915b50505050508152602001600482015481526020016005820180546117e99061238f565b80601f01602080910402602001604051908101604052809291908181526020018280546118159061238f565b80156118605780601f1061183757610100808354040283529160200191611860565b820191905f5260205f20905b81548152906001019060200180831161184357829003601f168201915b505050918352505060068201546001600160a01b03908116602080840191909152600784015460408401526008840154606084015260098401546080840152600a9093015460ff8116151560a084015261010090041660c09091015290825260019290920191016115f4565b50505050905090565b5f8054829081106118f85760405162461bcd60e51b8152600401610235906124de565b5f5f848154811061190b5761190b612333565b905f5260205f2090600b0201604051806101800160405290815f820154815260200160018201805461193c9061238f565b80601f01602080910402602001604051908101604052809291908181526020018280546119689061238f565b80156119b35780601f1061198a576101008083540402835291602001916119b3565b820191905f5260205f20905b81548152906001019060200180831161199657829003601f168201915b505050505081526020016002820180546119cc9061238f565b80601f01602080910402602001604051908101604052809291908181526020018280546119f89061238f565b8015611a435780601f10611a1a57610100808354040283529160200191611a43565b820191905f5260205f20905b815481529060010190602001808311611a2657829003601f168201915b50505050508152602001600382018054611a5c9061238f565b80601f0160208091040260200160405190810160405280929190818152602001828054611a889061238f565b8015611ad35780601f10611aaa57610100808354040283529160200191611ad3565b820191905f5260205f20905b815481529060010190602001808311611ab657829003601f168201915b5050505050815260200160048201548152602001600582018054611af69061238f565b80601f0160208091040260200160405190810160405280929190818152602001828054611b229061238f565b8015611b6d5780601f10611b4457610100808354040283529160200191611b6d565b820191905f5260205f20905b815481529060010190602001808311611b5057829003601f168201915b505050918352505060068201546001600160a01b039081166020830152600783015460408301526008830154606083015260098301546080830152600a9092015460ff8116151560a0830152610100900490911660c0909101526101408101519091508015611be0575080610100015142105b8015611bef5750806080015142105b9250505b50919050565b5f5482908110611c1b5760405162461bcd60e51b8152600401610235906124de565b82336001600160a01b03165f8281548110611c3857611c38612333565b5f91825260209091206006600b9092020101546001600160a01b031614611c715760405162461bcd60e51b815260040161023590612347565b6001600160a01b038316611cc75760405162461bcd60e51b815260206004820152601860248201527f496e76616c696420636f6e7472616374206164647265737300000000000000006044820152606401610235565b5f6001600160a01b03165f8581548110611ce357611ce3612333565b5f9182526020909120600b90910201600a015461010090046001600160a01b031614611d515760405162461bcd60e51b815260206004820152601b60248201527f5469636b657420636f6e747261637420616c72656164792073657400000000006044820152606401610235565b825f8581548110611d6457611d64612333565b905f5260205f2090600b0201600a0160016101000a8154816001600160a01b0302191690836001600160a01b0316021790555050505050565b6001602052815f5260405f208181548110611db6575f80fd5b905f5260205f20015f91509150505481565b5f611dd3825f611dd9565b92915050565b5f81471015611e045760405163cf47918160e01b815247600482015260248101839052604401610235565b763d602d80600a3d3981f3363d3d373d3d3d363d730000008360601b60e81c175f526e5af43d82803e903d91602b57fd5bf38360781b176020526037600983f090506001600160a01b038116611dd35760405163b06ebf3d60e01b815260040160405180910390fd5b6040518061018001604052805f81526020016060815260200160608152602001606081526020015f8152602001606081526020015f6001600160a01b031681526020015f81526020015f81526020015f81526020015f151581526020015f6001600160a01b031681525090565b634e487b7160e01b5f52604160045260245ffd5b5f82601f830112611efd575f5ffd5b813567ffffffffffffffff811115611f1757611f17611eda565b604051601f8201601f19908116603f0116810167ffffffffffffffff81118282101715611f4657611f46611eda565b604052818152838201602001851015611f5d575f5ffd5b816020850160208301375f918101602001919091529392505050565b5f5f5f5f60808587031215611f8c575f5ffd5b84359350602085013567ffffffffffffffff811115611fa9575f5ffd5b611fb587828801611eee565b935050604085013567ffffffffffffffff811115611fd1575f5ffd5b611fdd87828801611eee565b925050606085013567ffffffffffffffff811115611ff9575f5ffd5b61200587828801611eee565b91505092959194509250565b5f60208284031215612021575f5ffd5b5035919050565b5f81518084528060208401602086015e5f602082860101526020601f19601f83011685010191505092915050565b8c815261018060208201525f61207061018083018e612028565b8281036040840152612082818e612028565b90508281036060840152612096818d612028565b90508a608084015282810360a08401526120b0818b612028565b6001600160a01b038a1660c085015260e084018990526101008401889052610120840187905285151561014085015291506120e89050565b6001600160a01b0383166101608301529d9c50505050505050505050505050565b5f5f6040838503121561211a575f5ffd5b50508035926020909101359150565b5f602082016020835280845180835260408501915060408160051b8601019250602086015f5b8281101561226257603f1987860301845281518051865260208101516101806020880152612181610180880182612028565b90506040820151878203604089015261219a8282612028565b915050606082015187820360608901526121b48282612028565b9150506080820151608088015260a082015187820360a08901526121d88282612028565b91505060c08201516121f560c08901826001600160a01b03169052565b5060e082015160e088015261010082015161010088015261012082015161012088015261014082015161222d61014089018215159052565b50610160820151915061224c6101608801836001600160a01b03169052565b955050602093840193919091019060010161214f565b50929695505050505050565b5f6020828403121561227e575f5ffd5b813567ffffffffffffffff811115612294575f5ffd5b820161010081850312156122a6575f5ffd5b9392505050565b80356001600160a01b03811681146122c3575f5ffd5b919050565b5f602082840312156122d8575f5ffd5b6122a6826122ad565b5f5f604083850312156122f2575f5ffd5b82359150612302602084016122ad565b90509250929050565b5f5f6040838503121561231c575f5ffd5b612325836122ad565b946020939093013593505050565b634e487b7160e01b5f52603260045260245ffd5b60208082526028908201527f596f7520617265206e6f7420746865206f7267616e697a6572206f662074686960408201526773204576656e742160c01b606082015260800190565b600181811c908216806123a357607f821691505b602082108103611bf357634e487b7160e01b5f52602260045260245ffd5b601f82111561240857805f5260205f20601f840160051c810160208510156123e65750805b601f840160051c820191505b81811015612405575f81556001016123f2565b50505b505050565b815167ffffffffffffffff81111561242757612427611eda565b61243b81612435845461238f565b846123c1565b6020601f82116001811461246d575f83156124565750848201515b5f19600385901b1c1916600184901b178455612405565b5f84815260208120601f198516915b8281101561249c578785015182556020948501946001909201910161247c565b50848210156124b957868401515f19600387901b60f8161c191681555b50505050600190811b01905550565b5f82518060208501845e5f920191825250919050565b60208082526010908201526f496e76616c6964206576656e7449442160801b604082015260600190565b634e487b7160e01b5f52601160045260245ffd5b80820180821115611dd357611dd3612508565b5f6001820161254057612540612508565b5060010190565b5f5f8335601e1984360301811261255c575f5ffd5b83018035915067ffffffffffffffff821115612576575f5ffd5b60200191503681900382131561258a575f5ffd5b9250929050565b81835281816020850137505f828201602090810191909152601f909101601f19169091010190565b6001600160a01b038b811682528a1660208201526040810189905260e0606082018190525f906125ec908301898b612591565b82810360808401526125ff81888a612591565b905082810360a0840152612614818688612591565b9150508260c08301529b9a5050505050505050505050565b5f5f8335601e19843603018112612641575f5ffd5b83018035915067ffffffffffffffff82111561265b575f5ffd5b6020019150600581901b360382131561258a575f5ffd5b602080825281018290525f6040600584901b830181019083018583607e1936839003015b8782101561274157868503603f1901845282358181126126b4575f5ffd5b8901803536829003601e190181126126ca575f5ffd5b810160208101903567ffffffffffffffff8111156126e6575f5ffd5b8036038213156126f4575f5ffd5b60808852612706608089018284612591565b6020848101358a820152604080860135908b015260609485013594909901939093525090959485019493909301925060019190910190612696565b5092979650505050505050565b818382375f910190815291905056fea2646970667358221220f88e3fbe5a1ff45ce9ac62ba5dea53d1753ada2e1b563ef6e115ecc740e6e09c64736f6c634300081c0033",
  "linkReferences": {},
  "deployedLinkReferences": {},
  "immutableReferences": {
    "7588": [
      {
        "length": 32,
        "start": 321
      },
      {
        "length": 32,
        "start": 3447
      }
    ]
  },
  "inputSourceName": "project/contracts/EventFactory.sol",
  "buildInfoId": "solc-0_8_28-ea56d78a80af476db65146aae89ddfef3f0aa8f7"
}