{
  "_format": "hh3-artifact-1",
  "contractName": "TicketNFT",
  "sourceName": "contracts/TicketNFT.sol",
  "abi": [
    {
      "inputs": [],
      "stateMutability": "nonpayable",
      "type": "constructor"
    },
    {
      "inputs": [],
      "name": "ERC721EnumerableForbiddenBatchMint",
      "type": "error"
    },
    {
      "inputs": [
        {
          "internalType": "address",
          "name": "sender",
          "type": "address"
        },
        {
          "internalType": "uint256",
          "name": "tokenId",
          "type": "uint256"
        },
        {
          "internalType": "address",
          "name": "owner",
          "type": "address"
        }
      ],
      "name": "ERC721IncorrectOwner",
      "type": "error"
    },
    {
      "inputs": [
        {
          "internalType": "address",
          "name": "operator",
          "type": "address"
        },
        {
          "internalType": "uint256",
          "name": "tokenId",
          "type": "uint256"
        }
      ],
      "name": "ERC721InsufficientApproval",
      "type": "error"
    },
    {
      "inputs": [
        {
          "internalType": "address",
          "name": "approver",
          "type": "address"
        }
      ],
      "name": "ERC721InvalidApprover",
      "type": "error"
    },
    {
      "inputs": [
        {
          "internalType": "address",
          "name": "operator",
          "type": "address"
        }
      ],
      "name": "ERC721InvalidOperator",
      "type": "error"
    },
    {
      "inputs": [
        {
          "internalType": "address",
          "name": "owner",
          "type": "address"
        }
      ],
      "name": "ERC721InvalidOwner",
      "type": "error"
    },
    {
      "inputs": [
        {
          "internalType": "address",
          "name": "receiver",
          "type": "address"
        }
      ],
      "name": "ERC721InvalidReceiver",
      "type": "error"
    },
    {
      "inputs": [
        {
          "internalType": "address",
          "name": "sender",
          "type": "address"
        }
      ],
      "name": "ERC721InvalidSender",
      "type": "error"
    },
    {
      "inputs": [
        {
          "internalType": "uint256",
          "name": "tokenId",
          "type": "uint256"
        }
      ],
      "name": "ERC721NonexistentToken",
      "type": "error"
    },
    {
      "inputs": [
        {
          "internalType": "address",
          "name": "owner",
          "type": "address"
        },
        {
          "internalType": "uint256",
          "name": "index",
          "type": "uint256"
        }
      ],
      "name": "ERC721OutOfBoundsIndex",
      "type": "error"
    },
    {
      "inputs": [
        {
          "internalType": "address",
          "name": "owner",
          "type": "address"
        }
      ],
      "name": "OwnableInvalidOwner",
      "type": "error"
    },
    {
      "inputs": [
        {
          "internalType": "address",
          "name": "account",
          "type": "address"
        }
      ],
      "name": "OwnableUnauthorizedAccount",
      "type": "error"
    },
    {
      "inputs": [],
      "name": "ReentrancyGuardReentrantCall",
      "type": "error"
    },
    {
      "anonymous": false,
      "inputs": [
        {
          "indexed": true,
          "internalType": "address",
          "name": "owner",
          "type": "address"
        },
        {
          "indexed": true,
          "internalType": "address",
          "name": "approved",
          "type": "address"
        },
        {
          "indexed": true,
          "internalType": "uint256",
          "name": "tokenId",
          "type": "uint256"
        }
      ],
      "name": "Approval",
      "type": "event"
    },
    {
      "anonymous": false,
      "inputs": [
        {
          "indexed": true,
          "internalType": "address",
          "name": "owner",
          "type": "address"
        },
        {
          "indexed": true,
          "internalType": "address",
          "name": "operator",
          "type": "address"
        },
        {
          "indexed": false,
          "internalType": "bool",
          "name": "approved",
          "type": "bool"
        }
      ],
      "name": "ApprovalForAll",
      "type": "event"
    },
    {
      "anonymous": false,
      "inputs": [
        {
          "indexed": true,
          "internalType": "address",
          "name": "oldFactory",
          "type": "address"
        },
        {
          "indexed": true,
          "internalType": "address",
          "name": "newFactory",
          "type": "address"
        }
      ],
      "name": "FactoryChanged",
      "type": "event"
    },
    {
      "anonymous": false,
      "inputs": [
        {
          "indexed": false,
          "internalType": "uint256",
          "name": "oldPeriod",
          "type": "uint256"
        },
        {
          "indexed": false,
          "internalType": "uint256",
          "name": "newPeriod",
          "type": "uint256"
        }
      ],
      "name": "LockPeriodChanged",
      "type": "event"
    },
    {
      "anonymous": false,
      "inputs": [
        {
          "indexed": true,
          "internalType": "address",
          "name": "previousOwner",
          "type": "address"
        },
        {
          "indexed": true,
          "internalType": "address",
          "name": "newOwner",
          "type": "address"
        }
      ],
      "name": "OwnershipTransferred",
      "type": "event"
    },
    {
      "anonymous": false,
      "inputs": [
        {
          "indexed": false,
          "internalType": "bool",
          "name": "active",
          "type": "bool"
        }
      ],
      "name": "SaleStatusChanged",
      "type": "event"
    },
    {
      "anonymous": false,
      "inputs": [
        {
          "indexed": true,
          "internalType": "uint256",
          "name": "tokenId",
          "type": "uint256"
        }
      ],
      "name": "TicketBurned",
      "type": "event"
    },
    {
      "anonymous": false,
      "inputs": [
        {
          "indexed": true,
          "internalType": "uint256",
          "name": "tokenId",
          "type": "uint256"
        },
        {
          "indexed": true,
          "internalType": "address",
          "name": "user",
          "type": "address"
        },
        {
          "indexed": false,
          "internalType": "uint256",
          "name": "timestamp",
          "type": "uint256"
        }
      ],
      "name": "TicketUsed",
      "type": "event"
    },
    {
      "anonymous": false,
      "inputs": [
        {
          "indexed": true,
          "internalType": "address",
          "name": "buyer",
          "type": "address"
        },
        {
          "indexed": false,
          "internalType": "uint256[]",
          "name": "tokenIds",
          "type": "uint256[]"
        },
        {
          "indexed": false,
          "internalType": "uint256",
          "name": "tierIndex",
          "type": "uint256"
        },
        {
          "indexed": false,
          "internalType": "uint256",
          "name": "quantity",
          "type": "uint256"
        }
      ],
      "name": "TicketsPurchased",
      "type": "event"
    },
    {
      "anonymous": false,
      "inputs": [
        {
          "indexed": true,
          "internalType": "address",
          "name": "from",
          "type": "address"
        },
        {
          "indexed": true,
          "internalType": "address",
          "name": "to",
          "type": "address"
        },
        {
          "indexed": true,
          "internalType": "uint256",
          "name": "tokenId",
          "type": "uint256"
        }
      ],
      "name": "Transfer",
      "type": "event"
    },
    {
      "anonymous": false,
      "inputs": [
        {
          "indexed": true,
          "internalType": "address",
          "name": "to",
          "type": "address"
        },
        {
          "indexed": false,
          "internalType": "uint256",
          "name": "amount",
          "type": "uint256"
        }
      ],
      "name": "Withdrawn",
      "type": "event"
    },
    {
      "inputs": [],
      "name": "LOCK_PERIOD_SECONDS",
      "outputs": [
        {
          "internalType": "uint256",
          "name": "",
          "type": "uint256"
        }
      ],
      "stateMutability": "view",
      "type": "function"
    },
    {
      "inputs": [],
      "name": "MAX_PER_WALLET",
      "outputs": [
        {
          "internalType": "uint256",
          "name": "",
          "type": "uint256"
        }
      ],
      "stateMutability": "view",
      "type": "function"
    },
    {
      "inputs": [
        {
          "components": [
            {
              "internalType": "string",
              "name": "name",
              "type": "string"
            },
            {
              "internalType": "uint256",
              "name": "price",
              "type": "uint256"
            },
            {
              "internalType": "uint256",
              "name": "maxSupply",
              "type": "uint256"
            },
            {
              "internalType": "uint256",
              "name": "sold",
              "type": "uint256"
            }
          ],
          "internalType": "struct TicketNFT.TicketTier[]",
          "name": "_tiers",
          "type": "tuple[]"
        }
      ],
      "name": "addTiers",
      "outputs": [],
      "stateMutability": "nonpayable",
      "type": "function"
    },
    {
      "inputs": [
        {
          "internalType": "address",
          "name": "to",
          "type": "address"
        },
        {
          "internalType": "uint256",
          "name": "tokenId",
          "type": "uint256"
        }
      ],
      "name": "approve",
      "outputs": [],
      "stateMutability": "nonpayable",
      "type": "function"
    },
    {
      "inputs": [
        {
          "internalType": "address",
          "name": "owner",
          "type": "address"
        }
      ],
      "name": "balanceOf",
      "outputs": [
        {
          "internalType": "uint256",
          "name": "",
          "type": "uint256"
        }
      ],
      "stateMutability": "view",
      "type": "function"
    },
    {
      "inputs": [
        {
          "internalType": "uint256",
          "name": "tokenId",
          "type": "uint256"
        }
      ],
      "name": "burn",
      "outputs": [],
      "stateMutability": "nonpayable",
      "type": "function"
    },
    {
      "inputs": [
        {
          "internalType": "uint256",
          "name": "tierIndex",
          "type": "uint256"
        },
        {
          "internalType": "uint256",
          "name": "quantity",
          "type": "uint256"
        }
      ],
      "name": "buyTicket",
      "outputs": [
        {
          "internalType": "uint256[]",
          "name": "",
          "type": "uint256[]"
        }
      ],
      "stateMutability": "payable",
      "type": "function"
    },
    {
      "inputs": [],
      "name": "endEvent",
      "outputs": [],
      "stateMutability": "nonpayable",
      "type": "function"
    },
    {
      "inputs": [],
      "name": "eventDate",
      "outputs": [
        {
          "internalType": "uint256",
          "name": "",
          "type": "uint256"
        }
      ],
      "stateMutability": "view",
      "type": "function"
    },
    {
      "inputs": [],
      "name": "eventEnded",
      "outputs": [
        {
          "internalType": "bool",
          "name": "",
          "type": "bool"
        }
      ],
      "stateMutability": "view",
      "type": "function"
    },
    {
      "inputs": [],
      "name": "eventId",
      "outputs": [
        {
          "internalType": "uint256",
          "name": "",
          "type": "uint256"
        }
      ],
      "stateMutability": "view",
      "type": "function"
    },
    {
      "inputs": [],
      "name": "eventInfo",
      "outputs": [
        {
          "internalType": "string",
          "name": "",
          "type": "string"
        }
      ],
      "stateMutability": "view",
      "type": "function"
    },
    {
      "inputs": [],
      "name": "eventTitle",
      "outputs": [
        {
          "internalType": "string",
          "name": "",
          "type": "string"
        }
      ],
      "stateMutability": "view",
      "type": "function"
    },
    {
      "inputs": [],
      "name": "eventVenue",
      "outputs": [
        {
          "internalType": "string",
          "name": "",
          "type": "string"
        }
      ],
      "stateMutability": "view",
      "type": "function"
    },
    {
      "inputs": [],
      "name": "factory",
      "outputs": [
        {
          "internalType": "address",
          "name": "",
          "type": "address"
        }
      ],
      "stateMutability": "view",
      "type": "function"
    },
    {
      "inputs": [],
      "name": "getAllTiers",
      "outputs": [
        {
          "components": [
            {
              "internalType": "string",
              "name": "name",
              "type": "string"
            },
            {
              "internalType": "uint256",
              "name": "price",
              "type": "uint256"
            },
            {
              "internalType": "uint256",
              "name": "maxSupply",
              "type": "uint256"
            },
            {
              "internalType": "uint256",
              "name": "sold",
              "type": "uint256"
            }
          ],
          "internalType": "struct TicketNFT.TicketTier[]",
          "name": "",
          "type": "tuple[]"
        }
      ],
      "stateMutability": "view",
      "type": "function"
    },
    {
      "inputs": [
        {
          "internalType": "uint256",
          "name": "tokenId",
          "type": "uint256"
        }
      ],
      "name": "getApproved",
      "outputs": [
        {
          "internalType": "address",
          "name": "",
          "type": "address"
        }
      ],
      "stateMutability": "view",
      "type": "function"
    },
    {
      "inputs": [
        {
          "internalType": "uint256",
          "name": "tierIndex",
          "type": "uint256"
        }
      ],
      "name": "getTier",
      "outputs": [
        {
          "components": [
            {
              "internalType": "string",
              "name": "name",
              "type": "string"
            },
            {
              "internalType": "uint256",
              "name": "price",
              "type": "uint256"
            },
            {
              "internalType": "uint256",
              "name": "maxSupply",
              "type": "uint256"
            },
            {
              "internalType": "uint256",
              "name": "sold",
              "type": "uint256"
            }
          ],
          "internalType": "struct TicketNFT.TicketTier",
          "name": "",
          "type": "tuple"
        }
      ],
      "stateMutability": "view",
      "type": "function"
    },
    {
      "inputs": [
        {
          "internalType": "address",
          "name": "_organizer",
          "type": "address"
        },
        {
          "internalType": "address",
          "name": "_factory",
          "type": "address"
        },
        {
          "internalType": "uint256",
          "name": "_eventId",
          "type": "uint256"
        },
        {
          "internalType": "string",
          "name": "_eventTitle",
          "type": "string"
        },
        {
          "internalType": "string",
          "name": "_eventInfo",
          "type": "string"
        },
        {
          "internalType": "string",
          "name": "_eventVenue",
          "type": "string"
        },
        {
          "internalType": "uint256",
          "name": "_eventDate",
          "type": "uint256"
        }
      ],
      "name": "initialize",
      "outputs": [],
      "stateMutability": "nonpayable",
      "type": "function"
    },
    {
      "inputs": [
        {
          "internalType": "address",
          "name": "owner",
          "type": "address"
        },
        {
          "internalType": "address",
          "name": "operator",
          "type": "address"
        }
      ],
      "name": "isApprovedForAll",
      "outputs": [
        {
          "internalType": "bool",
          "name": "",
          "type": "bool"
        }
      ],
      "stateMutability": "view",
      "type": "function"
    },
    {
      "inputs": [
        {
          "internalType": "uint256",
          "name": "tokenId",
          "type": "uint256"
        }
      ],
      "name": "isLocked",
      "outputs": [
        {
          "internalType": "bool",
          "name": "",
          "type": "bool"
        }
      ],
      "stateMutability": "view",
      "type": "function"
    },
    {
      "inputs": [
        {
          "internalType": "uint256",
          "name": "tokenId",
          "type": "uint256"
        }
      ],
      "name": "markAsUsed",
      "outputs": [],
      "stateMutability": "nonpayable",
      "type": "function"
    },
    {
      "inputs": [],
      "name": "maxSupply",
      "outputs": [
        {
          "internalType": "uint256",
          "name": "",
          "type": "uint256"
        }
      ],
      "stateMutability": "view",
      "type": "function"
    },
    {
      "inputs": [],
      "name": "name",
      "outputs": [
        {
          "internalType": "string",
          "name": "",
          "type": "string"
        }
      ],
      "stateMutability": "view",
      "type": "function"
    },
    {
      "inputs": [],
      "name": "owner",
      "outputs": [
        {
          "internalType": "address",
          "name": "",
          "type": "address"
        }
      ],
      "stateMutability": "view",
      "type": "function"
    },
    {
      "inputs": [
        {
          "internalType": "uint256",
          "name": "tokenId",
          "type": "uint256"
        }
      ],
      "name": "ownerOf",
      "outputs": [
        {
          "internalType": "address",
          "name": "",
          "type": "address"
        }
      ],
      "stateMutability": "view",
      "type": "function"
    },
    {
      "inputs": [
        {
          "internalType": "address",
          "name": "",
          "type": "address"
        }
      ],
      "name": "purchasedCount",
      "outputs": [
        {
          "internalType": "uint256",
          "name": "",
          "type": "uint256"
        }
      ],
      "stateMutability": "view",
      "type": "function"
    },
    {
      "inputs": [
        {
          "internalType": "uint256",
          "name": "tokenId",
          "type": "uint256"
        }
      ],
      "name": "remainingLockSeconds",
      "outputs": [
        {
          "internalType": "uint256",
          "name": "",
          "type": "uint256"
        }
      ],
      "stateMutability": "view",
      "type": "function"
    },
    {
      "inputs": [],
      "name": "renounceOwnership",
      "outputs": [],
      "stateMutability": "nonpayable",
      "type": "function"
    },
    {
      "inputs": [
        {
          "internalType": "address",
          "name": "from",
          "type": "address"
        },
        {
          "internalType": "address",
          "name": "to",
          "type": "address"
        },
        {
          "internalType": "uint256",
          "name": "tokenId",
          "type": "uint256"
        }
      ],
      "name": "safeTransferFrom",
      "outputs": [],
      "stateMutability": "nonpayable",
      "type": "function"
    },
    {
      "inputs": [
        {
          "internalType": "address",
          "name": "from",
          "type": "address"
        },
        {
          "internalType": "address",
          "name": "to",
          "type": "address"
        },
        {
          "internalType": "uint256",
          "name": "tokenId",
          "type": "uint256"
        },
        {
          "internalType": "bytes",
          "name": "data",
          "type": "bytes"
        }
      ],
      "name": "safeTransferFrom",
      "outputs": [],
      "stateMutability": "nonpayable",
      "type": "function"
    },
    {
      "inputs": [],
      "name": "saleActive",
      "outputs": [
        {
          "internalType": "bool",
          "name": "",
          "type": "bool"
        }
      ],
      "stateMutability": "view",
      "type": "function"
    },
    {
      "inputs": [
        {
          "internalType": "address",
          "name": "operator",
          "type": "address"
        },
        {
          "internalType": "bool",
          "name": "approved",
          "type": "bool"
        }
      ],
      "name": "setApprovalForAll",
      "outputs": [],
      "stateMutability": "nonpayable",
      "type": "function"
    },
    {
      "inputs": [
        {
          "internalType": "address",
          "name": "newFactory",
          "type": "address"
        }
      ],
      "name": "setFactory",
      "outputs": [],
      "stateMutability": "nonpayable",
      "type": "function"
    },
    {
      "inputs": [
        {
          "internalType": "uint256",
          "name": "tokenId",
          "type": "uint256"
        },
        {
          "internalType": "string",
          "name": "uri",
          "type": "string"
        }
      ],
      "name": "setTokenURI",
      "outputs": [],
      "stateMutability": "nonpayable",
      "type": "function"
    },
    {
      "inputs": [
        {
          "internalType": "uint256[]",
          "name": "tokenIds",
          "type": "uint256[]"
        },
        {
          "internalType": "string[]",
          "name": "uris",
          "type": "string[]"
        }
      ],
      "name": "setTokenURIBatch",
      "outputs": [],
      "stateMutability": "nonpayable",
      "type": "function"
    },
    {
      "inputs": [
        {
          "internalType": "bytes4",
          "name": "interfaceId",
          "type": "bytes4"
        }
      ],
      "name": "supportsInterface",
      "outputs": [
        {
          "internalType": "bool",
          "name": "",
          "type": "bool"
        }
      ],
      "stateMutability": "view",
      "type": "function"
    },
    {
      "inputs": [],
      "name": "symbol",
      "outputs": [
        {
          "internalType": "string",
          "name": "",
          "type": "string"
        }
      ],
      "stateMutability": "view",
      "type": "function"
    },
    {
      "inputs": [
        {
          "internalType": "uint256",
          "name": "",
          "type": "uint256"
        }
      ],
      "name": "tickets",
      "outputs": [
        {
          "internalType": "uint256",
          "name": "id",
          "type": "uint256"
        },
        {
          "internalType": "string",
          "name": "tier",
          "type": "string"
        },
        {
          "internalType": "uint256",
          "name": "originalPrice",
          "type": "uint256"
        },
        {
          "internalType": "bool",
          "name": "used",
          "type": "bool"
        },
        {
          "internalType": "uint256",
          "name": "purchaseTimestamp",
          "type": "uint256"
        }
      ],
      "stateMutability": "view",
      "type": "function"
    },
    {
      "inputs": [
        {
          "internalType": "uint256",
          "name": "",
          "type": "uint256"
        }
      ],
      "name": "tiers",
      "outputs": [
        {
          "internalType": "string",
          "name": "name",
          "type": "string"
        },
        {
          "internalType": "uint256",
          "name": "price",
          "type": "uint256"
        },
        {
          "internalType": "uint256",
          "name": "maxSupply",
          "type": "uint256"
        },
        {
          "internalType": "uint256",
          "name": "sold",
          "type": "uint256"
        }
      ],
      "stateMutability": "view",
      "type": "function"
    },
    {
      "inputs": [],
      "name": "tiersSet",
      "outputs": [
        {
          "internalType": "bool",
          "name": "",
          "type": "bool"
        }
      ],
      "stateMutability": "view",
      "type": "function"
    },
    {
      "inputs": [
        {
          "internalType": "uint256",
          "name": "index",
          "type": "uint256"
        }
      ],
      "name": "tokenByIndex",
      "outputs": [
        {
          "internalType": "uint256",
          "name": "",
          "type": "uint256"
        }
      ],
      "stateMutability": "view",
      "type": "function"
    },
    {
      "inputs": [
        {
          "internalType": "address",
          "name": "owner",
          "type": "address"
        },
        {
          "internalType": "uint256",
          "name": "index",
          "type": "uint256"
        }
      ],
      "name": "tokenOfOwnerByIndex",
      "outputs": [
        {
          "internalType": "uint256",
          "name": "",
          "type": "uint256"
        }
      ],
      "stateMutability": "view",
      "type": "function"
    },
    {
      "inputs": [
        {
          "internalType": "uint256",
          "name": "tokenId",
          "type": "uint256"
        }
      ],
      "name": "tokenURI",
      "outputs": [
        {
          "internalType": "string",
          "name": "",
          "type": "string"
        }
      ],
      "stateMutability": "view",
      "type": "function"
    },
    {
      "inputs": [
        {
          "internalType": "address",
          "name": "owner",
          "type": "address"
        }
      ],
      "name": "tokensOfOwner",
      "outputs": [
        {
          "internalType": "uint256[]",
          "name": "",
          "type": "uint256[]"
        }
      ],
      "stateMutability": "view",
      "type": "function"
    },
    {
      "inputs": [],
      "name": "totalSupply",
      "outputs": [
        {
          "internalType": "uint256",
          "name": "",
          "type": "uint256"
        }
      ],
      "stateMutability": "view",
      "type": "function"
    },
    {
      "inputs": [
        {
          "internalType": "address",
          "name": "from",
          "type": "address"
        },
        {
          "internalType": "address",
          "name": "to",
          "type": "address"
        },
        {
          "internalType": "uint256",
          "name": "tokenId",
          "type": "uint256"
        }
      ],
      "name": "transferFrom",
      "outputs": [],
      "stateMutability": "nonpayable",
      "type": "function"
    },
    {
      "inputs": [
        {
          "internalType": "address",
          "name": "newOwner",
          "type": "address"
        }
      ],
      "name": "transferOwnership",
      "outputs": [],
      "stateMutability": "nonpayable",
      "type": "function"
    },
    {
      "inputs": [
        {
          "internalType": "uint256",
          "name": "tokenId",
          "type": "uint256"
        }
      ],
      "name": "verifyTicket",
      "outputs": [
        {
          "internalType": "bool",
          "name": "isValid",
          "type": "bool"
        },
        {
          "internalType": "address",
          "name": "currentOwner",
          "type": "address"
        },
        {
          "internalType": "string",
          "name": "tier",
          "type": "string"
        },
        {
          "internalType": "bool",
          "name": "used",
          "type": "bool"
        },
        {
          "internalType": "string",
          "name": "reason",
          "type": "string"
        }
      ],
      "stateMutability": "view",
      "type": "function"
    },
    {
      "inputs": [],
      "name": "withdraw",
      "outputs": [],
      "stateMutability": "nonpayable",
      "type": "function"
    },
    {
      "inputs": [
        {
          "internalType": "address payable",
          "name": "recipient",
          "type": "address"
        }
      ],
      "name": "withdrawTo",
      "outputs": [],
      "stateMutability": "nonpayable",
      "type": "function"
    }
  ],
  "bytecode": "0x60806040526011805460ff191690556018805461ffff19166001179055348015610027575f5ffd5b50336040518060400160405280600c81526020016b1391951a5e08151a58dad95d60a21b8152506040518060400160405280600581526020016409c8ca892b60db1b815250815f908161007a91906101b4565b50600161008782826101b4565b5050506001600160a01b0381166100b757604051631e4fbdf760e01b81525f600482015260240160405180910390fd5b6100c0816100cb565b506001600b5561026e565b600a80546001600160a01b038381166001600160a01b0319831681179093556040519116919082907f8be0079c531659141344cd1fd0a4f28419497f9722a3daafe3b4186f6b6457e0905f90a35050565b634e487b7160e01b5f52604160045260245ffd5b600181811c9082168061014457607f821691505b60208210810361016257634e487b7160e01b5f52602260045260245ffd5b50919050565b601f8211156101af57805f5260205f20601f840160051c8101602085101561018d5750805b601f840160051c820191505b818110156101ac575f8155600101610199565b50505b505050565b81516001600160401b038111156101cd576101cd61011c565b6101e1816101db8454610130565b84610168565b6020601f821160018114610213575f83156101fc5750848201515b5f19600385901b1c1916600184901b1784556101ac565b5f84815260208120601f198516915b828110156102425787850151825560209485019460019092019101610222565b508482101561025f57868401515f19600387901b60f8161c191681555b50505050600190811b01905550565b613cc88061027b5f395ff3fe6080604052600436106102d9575f3560e01c80636352211e11610189578063a22cb465116100d8578063c9bb9a4a11610092578063e985e9c51161006d578063e985e9c514610882578063f2fde38b146108a1578063f57e63e2146108c0578063f6aacfb1146108de575f5ffd5b8063c9bb9a4a14610841578063d5abeb011461085a578063e22bda351461086e575f5ffd5b8063a22cb46514610786578063b1b410f5146107a5578063b88d4fde146107b9578063ba2a0655146107d8578063c45a015514610803578063c87b56dd14610822575f5ffd5b806372b0d90c1161014357806386ec61771161011e57806386ec61771461072b5780638bf322c51461073f5780638da5cb5b1461075557806395d89b4114610772575f5ffd5b806372b0d90c146106d95780638462151c146106f8578063860954a214610717575f5ffd5b80636352211e1461062e5780636471af831461064d578063667027101461066e57806368428a1b1461068d57806370a08231146106a6578063715018a6146106c5575f5ffd5b80633ccfd60b116102455780634f6ccce7116101ff5780635575027a116101da5780635575027a146105b25780635bb47808146105d15780635da6a041146105f05780635f527fd41461060f575f5ffd5b80634f6ccce71461053357806350b4471214610552578063543cb81f14610582575f5ffd5b80633ccfd60b1461048157806342842e0e1461049557806342966c68146104b45780634bb99351146104d35780634bfbe5df146104f25780634f062c5a14610507575f5ffd5b80630f2cdd6c116102965780630f2cdd6c146103dc578063162094c4146103f057806318160ddd1461040f57806323b872dd14610423578063298ec208146104425780632f745c5914610462575f5ffd5b806301ffc9a7146102dd578063039af9eb1461031157806306fdde0314610340578063081812fc14610361578063089cdd0c14610398578063095ea7b3146103bb575b5f5ffd5b3480156102e8575f5ffd5b506102fc6102f736600461313f565b6108fd565b60405190151581526020015b60405180910390f35b34801561031c575f5ffd5b5061033061032b366004613161565b610927565b60405161030894939291906131a6565b34801561034b575f5ffd5b506103546109e8565b60405161030891906131d4565b34801561036c575f5ffd5b5061038061037b366004613161565b610a77565b6040516001600160a01b039091168152602001610308565b3480156103a3575f5ffd5b506103ad600d5481565b604051908152602001610308565b3480156103c6575f5ffd5b506103da6103d536600461320a565b610a9e565b005b3480156103e7575f5ffd5b506103ad600381565b3480156103fb575f5ffd5b506103da61040a366004613234565b610aad565b34801561041a575f5ffd5b50600c546103ad565b34801561042e575f5ffd5b506103da61043d3660046132a9565b610b2b565b6104556104503660046132e7565b610bae565b6040516103089190613341565b34801561046d575f5ffd5b506103ad61047c36600461320a565b6110ec565b34801561048c575f5ffd5b506103da61114f565b3480156104a0575f5ffd5b506103da6104af3660046132a9565b611296565b3480156104bf575f5ffd5b506103da6104ce366004613161565b6112b5565b3480156104de575f5ffd5b506103da6104ed36600461339a565b611375565b3480156104fd575f5ffd5b506103ad600f5481565b348015610512575f5ffd5b50610526610521366004613161565b611432565b6040516103089190613442565b34801561053e575f5ffd5b506103ad61054d366004613161565b611578565b34801561055d575f5ffd5b5061057161056c366004613161565b6115cd565b604051610308959493929190613454565b34801561058d575f5ffd5b506105a161059c366004613161565b611687565b604051610308959493929190613489565b3480156105bd575f5ffd5b506103da6105cc3660046135bc565b61196f565b3480156105dc575f5ffd5b506103da6105eb3660046136e1565b611aa8565b3480156105fb575f5ffd5b506103da61060a366004613161565b611b57565b34801561061a575f5ffd5b506103ad610629366004613161565b611d4d565b348015610639575f5ffd5b50610380610648366004613161565b611dab565b348015610658575f5ffd5b50610661611db5565b60405161030891906136fc565b348015610679575f5ffd5b506103da61068836600461375f565b611ebe565b348015610698575f5ffd5b506018546102fc9060ff1681565b3480156106b1575f5ffd5b506103ad6106c03660046136e1565b611f88565b3480156106d0575f5ffd5b506103da611fcd565b3480156106e4575f5ffd5b506103da6106f33660046136e1565b611fde565b348015610703575f5ffd5b506104556107123660046136e1565b612152565b348015610722575f5ffd5b5061035461227c565b348015610736575f5ffd5b506103da612308565b34801561074a575f5ffd5b506103ad6202a30081565b348015610760575f5ffd5b50600a546001600160a01b0316610380565b34801561077d575f5ffd5b50610354612321565b348015610791575f5ffd5b506103da6107a0366004613822565b612330565b3480156107b0575f5ffd5b5061035461233b565b3480156107c4575f5ffd5b506103da6107d336600461385d565b612348565b3480156107e3575f5ffd5b506103ad6107f23660046136e1565b60136020525f908152604090205481565b34801561080e575f5ffd5b50600e54610380906001600160a01b031681565b34801561082d575f5ffd5b5061035461083c366004613161565b612360565b34801561084c575f5ffd5b506011546102fc9060ff1681565b348015610865575f5ffd5b506103ad612441565b348015610879575f5ffd5b5061035461248d565b34801561088d575f5ffd5b506102fc61089c3660046138d7565b61249a565b3480156108ac575f5ffd5b506103da6108bb3660046136e1565b6124c7565b3480156108cb575f5ffd5b506018546102fc90610100900460ff1681565b3480156108e9575f5ffd5b506102fc6108f8366004613161565b612501565b5f6001600160e01b0319821663780e9d6360e01b1480610921575061092182612543565b92915050565b60108181548110610936575f80fd5b905f5260205f2090600402015f91509050805f01805461095590613903565b80601f016020809104026020016040519081016040528092919081815260200182805461098190613903565b80156109cc5780601f106109a3576101008083540402835291602001916109cc565b820191905f5260205f20905b8154815290600101906020018083116109af57829003601f168201915b5050505050908060010154908060020154908060030154905084565b60605f80546109f690613903565b80601f0160208091040260200160405190810160405280929190818152602001828054610a2290613903565b8015610a6d5780601f10610a4457610100808354040283529160200191610a6d565b820191905f5260205f20905b815481529060010190602001808311610a5057829003601f168201915b5050505050905090565b5f610a8182612592565b505f828152600460205260409020546001600160a01b0316610921565b610aa98282336125ca565b5050565b610ab683611dab565b6001600160a01b0316336001600160a01b031614610b0d5760405162461bcd60e51b815260206004820152600f60248201526e4e6f7420417574686f72697a65642160881b60448201526064015b60405180910390fd5b5f838152601460205260409020610b25828483613979565b50505050565b6001600160a01b038216610b5457604051633250574960e11b81525f6004820152602401610b04565b5f610b608383336125d7565b9050836001600160a01b0316816001600160a01b031614610b25576040516364283d7b60e01b81526001600160a01b0380861660048301526024820184905282166044820152606401610b04565b6060610bb8612664565b60185460ff16610bfd5760405162461bcd60e51b815260206004820152601060248201526f73616c65206e6f74206163746976652160801b6044820152606401610b04565b60115460ff16610c5a5760405162461bcd60e51b815260206004820152602260248201527f5469636b65747320617265206e6f7420726561647920666f722073616c652079604482015261195d60f21b6064820152608401610b04565b335f90815260136020526040902054600390610c77908490613a46565b1115610cd85760405162461bcd60e51b815260206004820152602a60248201527f457863656564207469636b657420627579206c696d6974207065722077616c6c604482015269657420286d617820332960b01b6064820152608401610b04565b6010548310610d185760405162461bcd60e51b815260206004820152600c60248201526b24b73b30b634b2103a34b2b960a11b6044820152606401610b04565b600f544210610d585760405162461bcd60e51b815260206004820152600c60248201526b115d995b9d0818db1bdcd95960a21b6044820152606401610b04565b5f60108481548110610d6c57610d6c613a59565b905f5260205f20906004020190508060020154838260030154610d8f9190613a46565b1115610dcd5760405162461bcd60e51b815260206004820152600d60248201526c151a595c881cdbdb19081bdd5d609a1b6044820152606401610b04565b5f838260010154610dde9190613a6d565b905080341015610e305760405162461bcd60e51b815260206004820152601b60248201527f496e73756666696369656e74207061796d656e7420616d6f756e7400000000006044820152606401610b04565b5f846001600160401b03811115610e4957610e496134da565b604051908082528060200260200182016040528015610e72578160200160208202803683370190505b5090505f5b85811015610fdc57600c80545f9182610e8f83613a84565b919050559050610e9f338261268e565b6040518060a00160405280828152602001865f018054610ebe90613903565b80601f0160208091040260200160405190810160405280929190818152602001828054610eea90613903565b8015610f355780601f10610f0c57610100808354040283529160200191610f35565b820191905f5260205f20905b815481529060010190602001808311610f1857829003601f168201915b50505050508152602001866001015481526020015f151581526020014281525060125f8381526020019081526020015f205f820151815f01556020820151816001019081610f839190613a9c565b5060408201516002820155606082015160038201805460ff191691151591909117905560809091015160049091015582518190849084908110610fc857610fc8613a59565b602090810291909101015250600101610e77565b50335f90815260136020526040902080548601905560038301805486019055611004826126a7565b81341115611099575f336110188434613b56565b6040515f81818185875af1925050503d805f8114611051576040519150601f19603f3d011682016040523d82523d5f602084013e611056565b606091505b50509050806110975760405162461bcd60e51b815260206004820152600d60248201526c1499599d5b990819985a5b1959609a1b6044820152606401610b04565b505b336001600160a01b03167f2f1567a5cdd8f268028f0754bf885e128d2009dbed8c95bae5fe3155043467968288886040516110d693929190613b69565b60405180910390a2925050506109216001600b55565b5f6110f683611f88565b82106111275760405163295f44f760e21b81526001600160a01b038416600482015260248101839052604401610b04565b506001600160a01b03919091165f908152600660209081526040808320938352929052205490565b61115761278f565b61115f612664565b47806111985760405162461bcd60e51b81526020600482015260086024820152674e6f2066756e647360c01b6044820152606401610b04565b5f6111ab600a546001600160a01b031690565b6001600160a01b0316826040515f6040518083038185875af1925050503d805f81146111f2576040519150601f19603f3d011682016040523d82523d5f602084013e6111f7565b606091505b505090508061123a5760405162461bcd60e51b815260206004820152600f60248201526e151c985b9cd9995c8819985a5b1959608a1b6044820152606401610b04565b600a546001600160a01b03166001600160a01b03167f7084f5476618d8e60b11ef0d7d3f06914655adb8793e28ff7f018d4c76d505d58360405161128091815260200190565b60405180910390a250506112946001600b55565b565b6112b083838360405180602001604052805f815250612348565b505050565b6112bd61278f565b5f6112c782611dab565b90506112d2826127bc565b6001600160a01b0381165f908152601360205260409020541561130e576001600160a01b0381165f90815260136020526040902080545f190190555b5f8281526012602052604081208181559061132c60018301826130e0565b505f6002820181905560038201805460ff19169055600490910181905560405183917fd6acdc6c4f4076335309cf5eeb3b91b03b26861765e0726fce70f4617de8c7c691a25050565b61137d61278f565b8281146113be5760405162461bcd60e51b815260206004820152600f60248201526e098cadccee8d040dad2e6dac2e8c6d608b1b6044820152606401610b04565b5f5b8381101561142b578282828181106113da576113da613a59565b90506020028101906113ec9190613b8d565b60145f88888681811061140157611401613a59565b9050602002013581526020019081526020015f209182611422929190613979565b506001016113c0565b5050505050565b61145a6040518060800160405280606081526020015f81526020015f81526020015f81525090565b601054821061149a5760405162461bcd60e51b815260206004820152600c60248201526b24b73b30b634b2103a34b2b960a11b6044820152606401610b04565b601082815481106114ad576114ad613a59565b905f5260205f2090600402016040518060800160405290815f820180546114d390613903565b80601f01602080910402602001604051908101604052809291908181526020018280546114ff90613903565b801561154a5780601f106115215761010080835404028352916020019161154a565b820191905f5260205f20905b81548152906001019060200180831161152d57829003601f168201915b5050505050815260200160018201548152602001600282015481526020016003820154815250509050919050565b5f611582600c5490565b82106115aa5760405163295f44f760e21b81525f600482015260248101839052604401610b04565b600882815481106115bd576115bd613a59565b905f5260205f2001549050919050565b60126020525f9081526040902080546001820180549192916115ee90613903565b80601f016020809104026020016040519081016040528092919081815260200182805461161a90613903565b80156116655780601f1061163c57610100808354040283529160200191611665565b820191905f5260205f20905b81548152906001019060200180831161164857829003601f168201915b50505050600283015460038401546004909401549293909260ff909116915085565b5f5f60605f6060306001600160a01b0316636352211e876040518263ffffffff1660e01b81526004016116bc91815260200190565b602060405180830381865afa9250505080156116f5575060408051601f3d908101601f191682019092526116f291810190613bcf565b60015b611748575f5f5f60405180602001604052805f8152509060405180604001604052806014815260200173151bdad95b88191bd95cc81b9bdd08195e1a5cdd60621b81525094509450945094509450611966565b8094505f60125f8981526020019081526020015f206040518060a00160405290815f820154815260200160018201805461178190613903565b80601f01602080910402602001604051908101604052809291908181526020018280546117ad90613903565b80156117f85780601f106117cf576101008083540402835291602001916117f8565b820191905f5260205f20905b8154815290600101906020018083116117db57829003601f168201915b505050918352505060028201546020820152600382015460ff16151560408201526004909101546060918201528101519091501561186f575f86826020015160016040518060400160405280600c81526020016b105b1c9958591e481d5cd95960a21b815250965096509650965096505050611966565b62015180600f546118809190613b56565b4210156118d6575f8682602001515f6040518060400160405280601981526020017f546f6f206561726c79202d206e6f74206576656e742064617900000000000000815250965096509650965096505050611966565b600f546118e6906202a300613a46565b421115611932575f8682602001515f60405180604001604052806013815260200172115d995b9d08185b1c9958591e48195b991959606a1b815250965096509650965096505050611966565b60018682602001515f6040518060400160405280600581526020016415985b1a5960da1b8152509650965096509650965050505b91939590929450565b600e546001600160a01b031633146119c95760405162461bcd60e51b815260206004820152601a60248201527f4f6e6c7920666163746f72792063616e2063616c6c20746869730000000000006044820152606401610b04565b60115460ff1615611a1c5760405162461bcd60e51b815260206004820152601b60248201527f5469657273206861766520616c7265616479206265656e2073657400000000006044820152606401610b04565b5f5b8151811015611a97576010828281518110611a3b57611a3b613a59565b60209081029190910181015182546001810184555f938452919092208251600490920201908190611a6c9082613a9c565b5060208201516001808301919091556040830151600283015560609092015160039091015501611a1e565b50506011805460ff19166001179055565b611ab061278f565b6001600160a01b038116611b065760405162461bcd60e51b815260206004820152601860248201527f496e76616c696420666163746f727920616464726573732100000000000000006044820152606401610b04565b600e80546001600160a01b038381166001600160a01b0319831681179093556040519116919082907ff36cf3b7f3187ed5217f19ea5137ed68a98983b4d678c78eb886fc378d2c13cf905f90a35050565b611b5f61278f565b5f818152600260205260409020546001600160a01b0316611bb95760405162461bcd60e51b8152602060048201526014602482015273151bdad95b88191bd95cc81b9bdd08195e1a5cdd60621b6044820152606401610b04565b5f818152601260205260409020600381015460ff1615611c115760405162461bcd60e51b8152602060048201526013602482015272151a58dad95d08185b1c9958591e481d5cd959606a1b6044820152606401610b04565b5f613840600f54611c229190613b56565b90505f600f54613840611c359190613a46565b905081421015611c915760405162461bcd60e51b815260206004820152602160248201527f546f6f206561726c79202d20436865636b2d696e206e6f7420796574206f70656044820152603760f91b6064820152608401610b04565b80421115611cec5760405162461bcd60e51b815260206004820152602260248201527f546f6f206c617465202d20436865636b2d696e20616c726561647920636c6f73604482015261195960f21b6064820152608401610b04565b60038301805460ff19166001179055611d0484611dab565b6001600160a01b0316847f4f9c6210874b14266ea0f64418a0f7403a875226eae9483f5d9cd7663234db9a42604051611d3f91815260200190565b60405180910390a350505050565b5f611d5782612592565b505f8281526012602052604081206004015490819003611d7957505f92915050565b5f611d876202a30083613a46565b9050804210611d9957505f9392505050565b611da34282613b56565b949350505050565b5f61092182612592565b60606010805480602002602001604051908101604052809291908181526020015f905b82821015611eb5578382905f5260205f2090600402016040518060800160405290815f82018054611e0890613903565b80601f0160208091040260200160405190810160405280929190818152602001828054611e3490613903565b8015611e7f5780601f10611e5657610100808354040283529160200191611e7f565b820191905f5260205f20905b815481529060010190602001808311611e6257829003601f168201915b50505050508152602001600182015481526020016002820154815260200160038201548152505081526020019060010190611dd8565b50505050905090565b5f611ed1600a546001600160a01b031690565b6001600160a01b031614611f1d5760405162461bcd60e51b8152602060048201526013602482015272105b1c9958591e481a5b9a5d1a585b1a5e9959606a1b6044820152606401610b04565b611f26876127f4565b600e80546001600160a01b0319166001600160a01b038816179055600d8590556015611f528582613a9c565b506017611f5f8382613a9c565b50600f8190556016611f718482613a9c565b50506018805460ff19166001179055505050505050565b5f6001600160a01b038216611fb2576040516322718ad960e21b81525f6004820152602401610b04565b506001600160a01b03165f9081526003602052604090205490565b611fd561278f565b6112945f6127f4565b611fe661278f565b611fee612664565b6001600160a01b0381166120365760405162461bcd60e51b815260206004820152600f60248201526e496e76616c6964206164647265737360881b6044820152606401610b04565b478061206f5760405162461bcd60e51b81526020600482015260086024820152674e6f2066756e647360c01b6044820152606401610b04565b5f826001600160a01b0316826040515f6040518083038185875af1925050503d805f81146120b8576040519150601f19603f3d011682016040523d82523d5f602084013e6120bd565b606091505b50509050806121005760405162461bcd60e51b815260206004820152600f60248201526e151c985b9cd9995c8819985a5b1959608a1b6044820152606401610b04565b826001600160a01b03167f7084f5476618d8e60b11ef0d7d3f06914655adb8793e28ff7f018d4c76d505d58360405161213b91815260200190565b60405180910390a2505061214f6001600b55565b50565b60605f61215e83611f88565b90505f816001600160401b03811115612179576121796134da565b6040519080825280602002602001820160405280156121a2578160200160208202803683370190505b5090505f805b600c54811080156121b857508382105b15612272576040516331a9108f60e11b8152600481018290523090636352211e90602401602060405180830381865afa925050508015612215575060408051601f3d908101601f1916820190925261221291810190613bcf565b60015b1561226057866001600160a01b0316816001600160a01b03160361225e5781848461223f81613a84565b95508151811061225157612251613a59565b6020026020010181815250505b505b8061226a81613a84565b9150506121a8565b5090949350505050565b6015805461228990613903565b80601f01602080910402602001604051908101604052809291908181526020018280546122b590613903565b80156123005780601f106122d757610100808354040283529160200191612300565b820191905f5260205f20905b8154815290600101906020018083116122e357829003601f168201915b505050505081565b61231061278f565b6018805461ff001916610100179055565b6060600180546109f690613903565b610aa9338383612845565b6016805461228990613903565b612353848484610b2b565b610b2533858585856128e3565b606061236b82612592565b505f828152601460205260408120805461238490613903565b80601f01602080910402602001604051908101604052809291908181526020018280546123b090613903565b80156123fb5780601f106123d2576101008083540402835291602001916123fb565b820191905f5260205f20905b8154815290600101906020018083116123de57829003601f168201915b505050505090505f815111156124115792915050565b61241a83612a0a565b60405160200161242a9190613c01565b604051602081830303815290604052915050919050565b5f80805b601054811015612487576010818154811061246257612462613a59565b905f5260205f209060040201600201548261247d9190613a46565b9150600101612445565b50919050565b6017805461228990613903565b6001600160a01b039182165f90815260056020908152604080832093909416825291909152205460ff1690565b6124cf61278f565b6001600160a01b0381166124f857604051631e4fbdf760e01b81525f6004820152602401610b04565b61214f816127f4565b5f61250b82612592565b505f828152601260205260408120600401549081900361252d57505f92915050565b61253a6202a30082613a46565b42109392505050565b5f6001600160e01b031982166380ac58cd60e01b148061257357506001600160e01b03198216635b5e139f60e01b145b8061092157506301ffc9a760e01b6001600160e01b0319831614610921565b5f818152600260205260408120546001600160a01b03168061092157604051637e27328960e01b815260048101849052602401610b04565b6112b08383836001612a99565b5f828152600260205260408120546001600160a01b0316801580159061260557506001600160a01b03851615155b156126505761261384612501565b156126505760405162461bcd60e51b815260206004820152600d60248201526c546f6b656e206c6f636b65642160981b6044820152606401610b04565b61265b858585612b9d565b95945050505050565b6002600b540361268757604051633ee5aeb560e01b815260040160405180910390fd5b6002600b55565b610aa9828260405180602001604052805f815250612c68565b600e54600d546040515f926001600160a01b0316916126d3918590602401918252602082015260400190565b60408051601f198184030181529181526020820180516001600160e01b0316630dc19f8360e11b179052516127089190613c1c565b5f604051808303815f865af19150503d805f8114612741576040519150601f19603f3d011682016040523d82523d5f602084013e612746565b606091505b5050905080610aa95760405162461bcd60e51b815260206004820152601560248201527414995d995b9d59481c9958dbdc990819985a5b1959605a1b6044820152606401610b04565b600a546001600160a01b031633146112945760405163118cdaa760e01b8152336004820152602401610b04565b5f6127c85f835f6125d7565b90506001600160a01b038116610aa957604051637e27328960e01b815260048101839052602401610b04565b600a80546001600160a01b038381166001600160a01b0319831681179093556040519116919082907f8be0079c531659141344cd1fd0a4f28419497f9722a3daafe3b4186f6b6457e0905f90a35050565b6001600160a01b03821661287757604051630b61174360e31b81526001600160a01b0383166004820152602401610b04565b6001600160a01b038381165f81815260056020908152604080832094871680845294825291829020805460ff191686151590811790915591519182527f17307eab39ab6107e8899845ad3d59bd9653f200f220920489ca2b5937696c31910160405180910390a3505050565b6001600160a01b0383163b1561142b57604051630a85bd0160e11b81526001600160a01b0384169063150b7a0290612925908890889087908790600401613c27565b6020604051808303815f875af192505050801561295f575060408051601f3d908101601f1916820190925261295c91810190613c63565b60015b6129c6573d80801561298c576040519150601f19603f3d011682016040523d82523d5f602084013e612991565b606091505b5080515f036129be57604051633250574960e11b81526001600160a01b0385166004820152602401610b04565b805160208201fd5b6001600160e01b03198116630a85bd0160e11b14612a0257604051633250574960e11b81526001600160a01b0385166004820152602401610b04565b505050505050565b60605f612a1683612c7f565b60010190505f816001600160401b03811115612a3457612a346134da565b6040519080825280601f01601f191660200182016040528015612a5e576020820181803683370190505b5090508181016020015b5f19016f181899199a1a9b1b9c1cb0b131b232b360811b600a86061a8153600a8504945084612a6857509392505050565b8080612aad57506001600160a01b03821615155b15612b6e575f612abc84612592565b90506001600160a01b03831615801590612ae85750826001600160a01b0316816001600160a01b031614155b8015612afb5750612af9818461249a565b155b15612b245760405163a9fbf51f60e01b81526001600160a01b0384166004820152602401610b04565b8115612b6c5783856001600160a01b0316826001600160a01b03167f8c5be1e5ebec7d5bd14f71427d1e84f3dd0314c0f7b2291e5b200ac8c7c3b92560405160405180910390a45b505b50505f90815260046020526040902080546001600160a01b0319166001600160a01b0392909216919091179055565b5f5f612baa858585612d56565b90506001600160a01b038116612c0657612c0184600880545f838152600960205260408120829055600182018355919091527ff3f7a9fe364faab93b216da50a3214154f22a0a2b415b23a84c8169e8b636ee30155565b612c29565b846001600160a01b0316816001600160a01b031614612c2957612c298185612e48565b6001600160a01b038516612c4557612c4084612ec5565b611da3565b846001600160a01b0316816001600160a01b031614611da357611da38585612f6c565b612c728383612fba565b6112b0335f8585856128e3565b5f8072184f03e93ff9f4daa797ed6e38ed64bf6a1f0160401b8310612cbd5772184f03e93ff9f4daa797ed6e38ed64bf6a1f0160401b830492506040015b6d04ee2d6d415b85acef81000000008310612ce9576d04ee2d6d415b85acef8100000000830492506020015b662386f26fc100008310612d0757662386f26fc10000830492506010015b6305f5e1008310612d1f576305f5e100830492506008015b6127108310612d3357612710830492506004015b60648310612d45576064830492506002015b600a83106109215760010192915050565b5f828152600260205260408120546001600160a01b0390811690831615612d8257612d8281848661301b565b6001600160a01b03811615612dbc57612d9d5f855f5f612a99565b6001600160a01b0381165f90815260036020526040902080545f190190555b6001600160a01b03851615612dea576001600160a01b0385165f908152600360205260409020805460010190555b5f8481526002602052604080822080546001600160a01b0319166001600160a01b0389811691821790925591518793918516917fddf252ad1be2c89b69c2b068fc378daa952ba7f163c4a11628f55a4df523b3ef91a4949350505050565b5f612e5283611f88565b5f838152600760209081526040808320546001600160a01b0388168452600690925290912091925090818314612ea7575f83815260208281526040808320548584528184208190558352600790915290208290555b5f938452600760209081526040808620869055938552525081205550565b6008545f90612ed690600190613b56565b5f8381526009602052604081205460088054939450909284908110612efd57612efd613a59565b905f5260205f20015490508060088381548110612f1c57612f1c613a59565b5f918252602080832090910192909255828152600990915260408082208490558582528120556008805480612f5357612f53613c7e565b600190038181905f5260205f20015f9055905550505050565b5f6001612f7884611f88565b612f829190613b56565b6001600160a01b039093165f908152600660209081526040808320868452825280832085905593825260079052919091209190915550565b6001600160a01b038216612fe357604051633250574960e11b81525f6004820152602401610b04565b5f612fef83835f6125d7565b90506001600160a01b038116156112b0576040516339e3563760e11b81525f6004820152602401610b04565b61302683838361307f565b6112b0576001600160a01b03831661305457604051637e27328960e01b815260048101829052602401610b04565b60405163177e802f60e01b81526001600160a01b038316600482015260248101829052604401610b04565b5f6001600160a01b03831615801590611da35750826001600160a01b0316846001600160a01b031614806130b857506130b8848461249a565b80611da35750505f908152600460205260409020546001600160a01b03908116911614919050565b5080546130ec90613903565b5f825580601f106130fb575050565b601f0160209004905f5260205f209081019061214f91905b80821115613126575f8155600101613113565b5090565b6001600160e01b03198116811461214f575f5ffd5b5f6020828403121561314f575f5ffd5b813561315a8161312a565b9392505050565b5f60208284031215613171575f5ffd5b5035919050565b5f81518084528060208401602086015e5f602082860101526020601f19601f83011685010191505092915050565b608081525f6131b86080830187613178565b6020830195909552506040810192909252606090910152919050565b602081525f61315a6020830184613178565b6001600160a01b038116811461214f575f5ffd5b8035613205816131e6565b919050565b5f5f6040838503121561321b575f5ffd5b8235613226816131e6565b946020939093013593505050565b5f5f5f60408486031215613246575f5ffd5b8335925060208401356001600160401b03811115613262575f5ffd5b8401601f81018613613272575f5ffd5b80356001600160401b03811115613287575f5ffd5b866020828401011115613298575f5ffd5b939660209190910195509293505050565b5f5f5f606084860312156132bb575f5ffd5b83356132c6816131e6565b925060208401356132d6816131e6565b929592945050506040919091013590565b5f5f604083850312156132f8575f5ffd5b50508035926020909101359150565b5f8151808452602084019350602083015f5b82811015613337578151865260209586019590910190600101613319565b5093949350505050565b602081525f61315a6020830184613307565b5f5f83601f840112613363575f5ffd5b5081356001600160401b03811115613379575f5ffd5b6020830191508360208260051b8501011115613393575f5ffd5b9250929050565b5f5f5f5f604085870312156133ad575f5ffd5b84356001600160401b038111156133c2575f5ffd5b6133ce87828801613353565b90955093505060208501356001600160401b038111156133ec575f5ffd5b6133f887828801613353565b95989497509550505050565b5f8151608084526134186080850182613178565b90506020830151602085015260408301516040850152606083015160608501528091505092915050565b602081525f61315a6020830184613404565b85815260a060208201525f61346c60a0830187613178565b604083019590955250911515606083015260809091015292915050565b85151581526001600160a01b038516602082015260a0604082018190525f906134b490830186613178565b841515606084015282810360808401526134ce8185613178565b98975050505050505050565b634e487b7160e01b5f52604160045260245ffd5b604051608081016001600160401b0381118282101715613510576135106134da565b60405290565b604051601f8201601f191681016001600160401b038111828210171561353e5761353e6134da565b604052919050565b5f5f6001600160401b0384111561355f5761355f6134da565b50601f8301601f191660200161357481613516565b915050828152838383011115613588575f5ffd5b828260208301375f602084830101529392505050565b5f82601f8301126135ad575f5ffd5b61315a83833560208501613546565b5f602082840312156135cc575f5ffd5b81356001600160401b038111156135e1575f5ffd5b8201601f810184136135f1575f5ffd5b80356001600160401b0381111561360a5761360a6134da565b8060051b61361a60208201613516565b91825260208184018101929081019087841115613635575f5ffd5b6020850192505b838310156136d65782356001600160401b03811115613659575f5ffd5b85016080818a03601f1901121561366e575f5ffd5b6136766134ee565b60208201356001600160401b0381111561368e575f5ffd5b61369d8b60208386010161359e565b8252506040828101356020808401919091526060808501359284019290925260809093013590820152835292830192919091019061363c565b979650505050505050565b5f602082840312156136f1575f5ffd5b813561315a816131e6565b5f602082016020835280845180835260408501915060408160051b8601019250602086015f5b8281101561375357603f1987860301845261373e858351613404565b94506020938401939190910190600101613722565b50929695505050505050565b5f5f5f5f5f5f5f60e0888a031215613775575f5ffd5b8735613780816131e6565b965061378e602089016131fa565b95506040880135945060608801356001600160401b038111156137af575f5ffd5b6137bb8a828b0161359e565b94505060808801356001600160401b038111156137d6575f5ffd5b6137e28a828b0161359e565b93505060a08801356001600160401b038111156137fd575f5ffd5b6138098a828b0161359e565b979a969950949793969295929450505060c09091013590565b5f5f60408385031215613833575f5ffd5b823561383e816131e6565b915060208301358015158114613852575f5ffd5b809150509250929050565b5f5f5f5f60808587031215613870575f5ffd5b843561387b816131e6565b9350602085013561388b816131e6565b92506040850135915060608501356001600160401b038111156138ac575f5ffd5b8501601f810187136138bc575f5ffd5b6138cb87823560208401613546565b91505092959194509250565b5f5f604083850312156138e8575f5ffd5b82356138f3816131e6565b91506020830135613852816131e6565b600181811c9082168061391757607f821691505b60208210810361248757634e487b7160e01b5f52602260045260245ffd5b601f8211156112b057805f5260205f20601f840160051c8101602085101561395a5750805b601f840160051c820191505b8181101561142b575f8155600101613966565b6001600160401b03831115613990576139906134da565b6139a48361399e8354613903565b83613935565b5f601f8411600181146139d5575f85156139be5750838201355b5f19600387901b1c1916600186901b17835561142b565b5f83815260208120601f198716915b82811015613a0457868501358255602094850194600190920191016139e4565b5086821015613a20575f1960f88860031b161c19848701351681555b505060018560011b0183555050505050565b634e487b7160e01b5f52601160045260245ffd5b8082018082111561092157610921613a32565b634e487b7160e01b5f52603260045260245ffd5b808202811582820484141761092157610921613a32565b5f60018201613a9557613a95613a32565b5060010190565b81516001600160401b03811115613ab557613ab56134da565b613ac981613ac38454613903565b84613935565b6020601f821160018114613afb575f8315613ae45750848201515b5f19600385901b1c1916600184901b17845561142b565b5f84815260208120601f198516915b82811015613b2a5787850151825560209485019460019092019101613b0a565b5084821015613b4757868401515f19600387901b60f8161c191681555b50505050600190811b01905550565b8181038181111561092157610921613a32565b606081525f613b7b6060830186613307565b60208301949094525060400152919050565b5f5f8335601e19843603018112613ba2575f5ffd5b8301803591506001600160401b03821115613bbb575f5ffd5b602001915036819003821315613393575f5ffd5b5f60208284031215613bdf575f5ffd5b815161315a816131e6565b5f81518060208401855e5f93019283525090919050565b66697066733a2f2f60c81b81525f61315a6007830184613bea565b5f61315a8284613bea565b6001600160a01b03858116825284166020820152604081018390526080606082018190525f90613c5990830184613178565b9695505050505050565b5f60208284031215613c73575f5ffd5b815161315a8161312a565b634e487b7160e01b5f52603160045260245ffdfea2646970667358221220ccba49e1c6e25932e83afb899b66f6490b95cda5165770a5b007d43c7a06896364736f6c634300081c0033",
  "linkReferences": {},
  "deployedLinkReferences": {},
  "immutableReferences": {},
  "inputSourceName": "project/contracts/TicketNFT.sol",
  "buildInfoId": "solc-0_8_28-d2b813e9f5bf786ee7ff7a7fa7d4d2ed5ddf0414"
}